{
  "_format": "hh-sol-artifact-1",
  "contractName": "SellKEEYToken",
  "sourceName": "contracts/SellKEEYToken.sol",
  "abi": [
    {
      "inputs": [
        {
          "internalType": "contract Token",
          "name": "_KEEYAddress",
          "type": "address"
        },
        {
          "internalType": "contract Token",
          "name": "_USDTAddress",
          "type": "address"
        },
        {
          "internalType": "uint256",
          "name": "_priceToPay",
          "type": "uint256"
        }
      ],
      "stateMutability": "nonpayable",
      "type": "constructor"
    },
    {
      "inputs": [],
      "name": "KEEYAddress",
      "outputs": [
        {
          "internalType": "contract Token",
          "name": "",
          "type": "address"
        }
      ],
      "stateMutability": "view",
      "type": "function"
    },
    {
      "inputs": [],
      "name": "USDTAddress",
      "outputs": [
        {
          "internalType": "contract Token",
          "name": "",
          "type": "address"
        }
      ],
      "stateMutability": "view",
      "type": "function"
    },
    {
      "inputs": [
        {
          "internalType": "uint256",
          "name": "amount",
          "type": "uint256"
        }
      ],
      "name": "buyKEEY",
      "outputs": [],
      "stateMutability": "nonpayable",
      "type": "function"
    },
    {
      "inputs": [
        {
          "internalType": "uint256",
          "name": "totalFunding",
          "type": "uint256"
        }
      ],
      "name": "initFund",
      "outputs": [],
      "stateMutability": "nonpayable",
      "type": "function"
    },
    {
      "inputs": [],
      "name": "owner",
      "outputs": [
        {
          "internalType": "address",
          "name": "",
          "type": "address"
        }
      ],
      "stateMutability": "view",
      "type": "function"
    },
    {
      "inputs": [],
      "name": "priceToPay",
      "outputs": [
        {
          "internalType": "uint256",
          "name": "",
          "type": "uint256"
        }
      ],
      "stateMutability": "view",
      "type": "function"
    },
    {
      "inputs": [],
      "name": "remainingAmount",
      "outputs": [
        {
          "internalType": "uint256",
          "name": "",
          "type": "uint256"
        }
      ],
      "stateMutability": "view",
      "type": "function"
    },
    {
      "inputs": [
        {
          "internalType": "address",
          "name": "newOwner",
          "type": "address"
        }
      ],
      "name": "transferOwnership",
      "outputs": [],
      "stateMutability": "nonpayable",
      "type": "function"
    },
    {
      "inputs": [
        {
          "internalType": "uint256",
          "name": "numTokens",
          "type": "uint256"
        }
      ],
      "name": "withdraw",
      "outputs": [],
      "stateMutability": "nonpayable",
      "type": "function"
    },
    {
      "inputs": [],
      "name": "withdrawAll",
      "outputs": [],
      "stateMutability": "nonpayable",
      "type": "function"
    }
  ],
  "bytecode": "0x608060405260006004553480156200001657600080fd5b50604051620017f7380380620017f783398181016040528101906200003c91906200017c565b336000806101000a81548173ffffffffffffffffffffffffffffffffffffffff021916908373ffffffffffffffffffffffffffffffffffffffff16021790555082600260006101000a81548173ffffffffffffffffffffffffffffffffffffffff021916908373ffffffffffffffffffffffffffffffffffffffff16021790555081600160006101000a81548173ffffffffffffffffffffffffffffffffffffffff021916908373ffffffffffffffffffffffffffffffffffffffff16021790555080600381905550336000806101000a81548173ffffffffffffffffffffffffffffffffffffffff021916908373ffffffffffffffffffffffffffffffffffffffff16021790555050505062000258565b6000815190506200015f8162000224565b92915050565b60008151905062000176816200023e565b92915050565b6000806000606084860312156200019257600080fd5b6000620001a2868287016200014e565b9350506020620001b5868287016200014e565b9250506040620001c88682870162000165565b9150509250925092565b6000620001df82620001fa565b9050919050565b6000620001f382620001d2565b9050919050565b600073ffffffffffffffffffffffffffffffffffffffff82169050919050565b6000819050919050565b6200022f81620001e6565b81146200023b57600080fd5b50565b62000249816200021a565b81146200025557600080fd5b50565b61158f80620002686000396000f3fe608060405234801561001057600080fd5b506004361061009e5760003560e01c8063a50a1fe611610066578063a50a1fe614610121578063bd241d201461013f578063d8c7de841461015b578063f2fde38b14610179578063ff920c74146101955761009e565b8063098215e5146100a357806312d1ef8c146100c15780632e1a7d4d146100dd578063853828b6146100f95780638da5cb5b14610103575b600080fd5b6100ab6101b3565b6040516100b891906111ac565b60405180910390f35b6100db60048036038101906100d69190610dcb565b6101b9565b005b6100f760048036038101906100f29190610dcb565b61061d565b005b610101610791565b005b61010b6108b8565b6040516101189190610f9b565b60405180910390f35b6101296108dc565b60405161013691906111ac565b60405180910390f35b61015960048036038101906101549190610dcb565b6108e2565b005b610163610ae0565b604051610170919061103f565b60405180910390f35b610193600480360381019061018e9190610d79565b610b06565b005b61019d610ba1565b6040516101aa919061103f565b60405180910390f35b60035481565b600081116101fc576040517f08c379a00000000000000000000000000000000000000000000000000000000081526004016101f39061112c565b60405180910390fd5b8060045411610240576040517f08c379a00000000000000000000000000000000000000000000000000000000081526004016102379061118c565b60405180910390fd5b61027e6040518060400160405280601181526020017f506173732072656d61696e20636865636b000000000000000000000000000000815250610bc7565b60006003548261028e9190611239565b90506000600160009054906101000a900473ffffffffffffffffffffffffffffffffffffffff1673ffffffffffffffffffffffffffffffffffffffff1663dd62ed3e33306040518363ffffffff1660e01b81526004016102ef929190610fb6565b60206040518083038186803b15801561030757600080fd5b505afa15801561031b573d6000803e3d6000fd5b505050506040513d601f19601f8201168201806040525081019061033f9190610df4565b90506103806040518060400160405280600b81526020017f416c6c6f77616e63653a2000000000000000000000000000000000000000000081525082610c60565b818110156103c3576040517f08c379a00000000000000000000000000000000000000000000000000000000081526004016103ba906110cc565b60405180910390fd5b6104016040518060400160405280600e81526020017f5061737320616c6c6f77616e6365000000000000000000000000000000000000815250610bc7565b600160009054906101000a900473ffffffffffffffffffffffffffffffffffffffff1673ffffffffffffffffffffffffffffffffffffffff166323b872dd3360008054906101000a900473ffffffffffffffffffffffffffffffffffffffff16856040518463ffffffff1660e01b815260040161048093929190610fdf565b602060405180830381600087803b15801561049a57600080fd5b505af11580156104ae573d6000803e3d6000fd5b505050506040513d601f19601f820116820180604052508101906104d29190610da2565b506105116040518060400160405280601281526020017f70617373207472616e7366657220555344540000000000000000000000000000815250610bc7565b82600460008282546105239190611293565b92505081905550600260009054906101000a900473ffffffffffffffffffffffffffffffffffffffff1673ffffffffffffffffffffffffffffffffffffffff1663a9059cbb33856040518363ffffffff1660e01b8152600401610587929190611016565b602060405180830381600087803b1580156105a157600080fd5b505af11580156105b5573d6000803e3d6000fd5b505050506040513d601f19601f820116820180604052508101906105d99190610da2565b506106186040518060400160405280601281526020017f70617373207472616e73666572204b4545590000000000000000000000000000815250610bc7565b505050565b60008111610660576040517f08c379a0000000000000000000000000000000000000000000000000000000008152600401610657906110ec565b60405180910390fd5b6004548111156106a5576040517f08c379a000000000000000000000000000000000000000000000000000000000815260040161069c9061114c565b60405180910390fd5b80600460008282546106b79190611293565b92505081905550600260009054906101000a900473ffffffffffffffffffffffffffffffffffffffff1673ffffffffffffffffffffffffffffffffffffffff1663a9059cbb60008054906101000a900473ffffffffffffffffffffffffffffffffffffffff16836040518363ffffffff1660e01b815260040161073b929190611016565b602060405180830381600087803b15801561075557600080fd5b505af1158015610769573d6000803e3d6000fd5b505050506040513d601f19601f8201168201806040525081019061078d9190610da2565b5050565b6000600454116107d6576040517f08c379a00000000000000000000000000000000000000000000000000000000081526004016107cd9061110c565b60405180910390fd5b600060045490506000600481905550600260009054906101000a900473ffffffffffffffffffffffffffffffffffffffff1673ffffffffffffffffffffffffffffffffffffffff1663a9059cbb60008054906101000a900473ffffffffffffffffffffffffffffffffffffffff16836040518363ffffffff1660e01b8152600401610862929190611016565b602060405180830381600087803b15801561087c57600080fd5b505af1158015610890573d6000803e3d6000fd5b505050506040513d601f19601f820116820180604052508101906108b49190610da2565b5050565b60008054906101000a900473ffffffffffffffffffffffffffffffffffffffff1681565b60045481565b60008111610925576040517f08c379a000000000000000000000000000000000000000000000000000000000815260040161091c9061116c565b60405180910390fd5b600260009054906101000a900473ffffffffffffffffffffffffffffffffffffffff1673ffffffffffffffffffffffffffffffffffffffff166370a08231336040518263ffffffff1660e01b81526004016109809190610f9b565b60206040518083038186803b15801561099857600080fd5b505afa1580156109ac573d6000803e3d6000fd5b505050506040513d601f19601f820116820180604052508101906109d09190610df4565b811115610a12576040517f08c379a0000000000000000000000000000000000000000000000000000000008152600401610a09906110ac565b60405180910390fd5b8060046000828254610a2491906111e3565b92505081905550600260009054906101000a900473ffffffffffffffffffffffffffffffffffffffff1673ffffffffffffffffffffffffffffffffffffffff166323b872dd3330846040518463ffffffff1660e01b8152600401610a8a93929190610fdf565b602060405180830381600087803b158015610aa457600080fd5b505af1158015610ab8573d6000803e3d6000fd5b505050506040513d601f19601f82011682018060405250810190610adc9190610da2565b5050565b600260009054906101000a900473ffffffffffffffffffffffffffffffffffffffff1681565b60008054906101000a900473ffffffffffffffffffffffffffffffffffffffff1673ffffffffffffffffffffffffffffffffffffffff163373ffffffffffffffffffffffffffffffffffffffff1614610b5e57600080fd5b806000806101000a81548173ffffffffffffffffffffffffffffffffffffffff021916908373ffffffffffffffffffffffffffffffffffffffff16021790555050565b600160009054906101000a900473ffffffffffffffffffffffffffffffffffffffff1681565b610c5d81604051602401610bdb919061105a565b6040516020818303038152906040527f41304fac000000000000000000000000000000000000000000000000000000007bffffffffffffffffffffffffffffffffffffffffffffffffffffffff19166020820180517bffffffffffffffffffffffffffffffffffffffffffffffffffffffff8381831617835250505050610cfc565b50565b610cf88282604051602401610c7692919061107c565b6040516020818303038152906040527f9710a9d0000000000000000000000000000000000000000000000000000000007bffffffffffffffffffffffffffffffffffffffffffffffffffffffff19166020820180517bffffffffffffffffffffffffffffffffffffffffffffffffffffffff8381831617835250505050610cfc565b5050565b60008151905060006a636f6e736f6c652e6c6f679050602083016000808483855afa5050505050565b600081359050610d3481611514565b92915050565b600081519050610d498161152b565b92915050565b600081359050610d5e81611542565b92915050565b600081519050610d7381611542565b92915050565b600060208284031215610d8b57600080fd5b6000610d9984828501610d25565b91505092915050565b600060208284031215610db457600080fd5b6000610dc284828501610d3a565b91505092915050565b600060208284031215610ddd57600080fd5b6000610deb84828501610d4f565b91505092915050565b600060208284031215610e0657600080fd5b6000610e1484828501610d64565b91505092915050565b610e26816112c7565b82525050565b610e358161130f565b82525050565b6000610e46826111c7565b610e5081856111d2565b9350610e60818560208601611333565b610e6981611395565b840191505092915050565b6000610e81601e836111d2565b9150610e8c826113a6565b602082019050919050565b6000610ea46020836111d2565b9150610eaf826113cf565b602082019050919050565b6000610ec76016836111d2565b9150610ed2826113f8565b602082019050919050565b6000610eea6020836111d2565b9150610ef582611421565b602082019050919050565b6000610f0d601e836111d2565b9150610f188261144a565b602082019050919050565b6000610f306037836111d2565b9150610f3b82611473565b604082019050919050565b6000610f53601c836111d2565b9150610f5e826114c2565b602082019050919050565b6000610f76601c836111d2565b9150610f81826114eb565b602082019050919050565b610f9581611305565b82525050565b6000602082019050610fb06000830184610e1d565b92915050565b6000604082019050610fcb6000830185610e1d565b610fd86020830184610e1d565b9392505050565b6000606082019050610ff46000830186610e1d565b6110016020830185610e1d565b61100e6040830184610f8c565b949350505050565b600060408201905061102b6000830185610e1d565b6110386020830184610f8c565b9392505050565b60006020820190506110546000830184610e2c565b92915050565b600060208201905081810360008301526110748184610e3b565b905092915050565b600060408201905081810360008301526110968185610e3b565b90506110a56020830184610f8c565b9392505050565b600060208201905081810360008301526110c581610e74565b9050919050565b600060208201905081810360008301526110e581610e97565b9050919050565b6000602082019050818103600083015261110581610eba565b9050919050565b6000602082019050818103600083015261112581610edd565b9050919050565b6000602082019050818103600083015261114581610f00565b9050919050565b6000602082019050818103600083015261116581610f23565b9050919050565b6000602082019050818103600083015261118581610f46565b9050919050565b600060208201905081810360008301526111a581610f69565b9050919050565b60006020820190506111c16000830184610f8c565b92915050565b600081519050919050565b600082825260208201905092915050565b60006111ee82611305565b91506111f983611305565b9250827fffffffffffffffffffffffffffffffffffffffffffffffffffffffffffffffff0382111561122e5761122d611366565b5b828201905092915050565b600061124482611305565b915061124f83611305565b9250817fffffffffffffffffffffffffffffffffffffffffffffffffffffffffffffffff048311821515161561128857611287611366565b5b828202905092915050565b600061129e82611305565b91506112a983611305565b9250828210156112bc576112bb611366565b5b828203905092915050565b60006112d2826112e5565b9050919050565b60008115159050919050565b600073ffffffffffffffffffffffffffffffffffffffff82169050919050565b6000819050919050565b600061131a82611321565b9050919050565b600061132c826112e5565b9050919050565b60005b83811015611351578082015181840152602081019050611336565b83811115611360576000848401525b50505050565b7f4e487b7100000000000000000000000000000000000000000000000000000000600052601160045260246000fd5b6000601f19601f8301169050919050565b7f42616c616e6365206973206e6f7420656e6f75676820666f722066756e640000600082015250565b7f4275796572277320616c6c6f77616e6365206973206e6f7420656e6f75676821600082015250565b7f416d6f756e74206973206e6f7420706f73697469766500000000000000000000600082015250565b7f52656d61696e696e6720616d6f756e74206973206e6f7420706f736974697665600082015250565b7f4e6f7420616c6c6f77206e6f6e2d706f73697469766520616d6f756e74210000600082015250565b7f52656d61696e696e6720616d6f756e7420696e20636f6e74726163742069732060008201527f6e6f7420656e6f75676820666f72207769746864726177000000000000000000602082015250565b7f746f74616c46756e64696e67206973206e6f7420706f73697469766500000000600082015250565b7f416d6f756e742072656d61696e696e67206e6f7420656e6f7567682100000000600082015250565b61151d816112c7565b811461152857600080fd5b50565b611534816112d9565b811461153f57600080fd5b50565b61154b81611305565b811461155657600080fd5b5056fea2646970667358221220c8be9e67e517d19112d5ed30848388c4c241b60c9b9fa562f46f533e6ae3422a64736f6c63430008040033",
  "linkReferences": {},
  "deployedLinkReferences": {}
}