{
  "_format": "hh-sol-artifact-1",
  "contractName": "SellKEEYToken",
  "sourceName": "contracts/SellKEEYToken.sol",
  "abi": [
    {
      "inputs": [
        {
          "internalType": "contract Token",
          "name": "_KEEYAddress",
          "type": "address"
        },
        {
          "internalType": "contract Token",
          "name": "_USDTAddress",
          "type": "address"
        },
        {
          "internalType": "uint256",
          "name": "_payToPrice",
          "type": "uint256"
        }
      ],
      "stateMutability": "nonpayable",
      "type": "constructor"
    },
    {
      "inputs": [],
      "name": "KEEYAddress",
      "outputs": [
        {
          "internalType": "contract Token",
          "name": "",
          "type": "address"
        }
      ],
      "stateMutability": "view",
      "type": "function"
    },
    {
      "inputs": [],
      "name": "USDTAddress",
      "outputs": [
        {
          "internalType": "contract Token",
          "name": "",
          "type": "address"
        }
      ],
      "stateMutability": "view",
      "type": "function"
    },
    {
      "inputs": [
        {
          "internalType": "uint256",
          "name": "amount",
          "type": "uint256"
        }
      ],
      "name": "buyKEEY",
      "outputs": [],
      "stateMutability": "nonpayable",
      "type": "function"
    },
    {
      "inputs": [],
      "name": "initFund",
      "outputs": [],
      "stateMutability": "nonpayable",
      "type": "function"
    },
    {
      "inputs": [],
      "name": "owner",
      "outputs": [
        {
          "internalType": "address",
          "name": "",
          "type": "address"
        }
      ],
      "stateMutability": "view",
      "type": "function"
    },
    {
      "inputs": [],
      "name": "payToPrice",
      "outputs": [
        {
          "internalType": "uint256",
          "name": "",
          "type": "uint256"
        }
      ],
      "stateMutability": "view",
      "type": "function"
    },
    {
      "inputs": [
        {
          "internalType": "address",
          "name": "newOwner",
          "type": "address"
        }
      ],
      "name": "transferOwnership",
      "outputs": [],
      "stateMutability": "nonpayable",
      "type": "function"
    }
  ],
  "bytecode": "0x60806040523480156200001157600080fd5b50604051620010a7380380620010a783398181016040528101906200003791906200022e565b336000806101000a81548173ffffffffffffffffffffffffffffffffffffffff021916908373ffffffffffffffffffffffffffffffffffffffff16021790555082600260006101000a81548173ffffffffffffffffffffffffffffffffffffffff021916908373ffffffffffffffffffffffffffffffffffffffff16021790555081600160006101000a81548173ffffffffffffffffffffffffffffffffffffffff021916908373ffffffffffffffffffffffffffffffffffffffff16021790555080600381905550600260009054906101000a900473ffffffffffffffffffffffffffffffffffffffff1673ffffffffffffffffffffffffffffffffffffffff166370a08231336040518263ffffffff1660e01b81526004016200015d9190620002c1565b60206040518083038186803b1580156200017657600080fd5b505afa1580156200018b573d6000803e3d6000fd5b505050506040513d601f19601f82011682018060405250810190620001b1919062000284565b600481905550336000806101000a81548173ffffffffffffffffffffffffffffffffffffffff021916908373ffffffffffffffffffffffffffffffffffffffff16021790555050505062000364565b600081519050620002118162000330565b92915050565b60008151905062000228816200034a565b92915050565b6000806000606084860312156200024457600080fd5b6000620002548682870162000200565b9350506020620002678682870162000200565b92505060406200027a8682870162000217565b9150509250925092565b6000602082840312156200029757600080fd5b6000620002a78482850162000217565b91505092915050565b620002bb81620002de565b82525050565b6000602082019050620002d86000830184620002b0565b92915050565b6000620002eb8262000306565b9050919050565b6000620002ff82620002de565b9050919050565b600073ffffffffffffffffffffffffffffffffffffffff82169050919050565b6000819050919050565b6200033b81620002f2565b81146200034757600080fd5b50565b620003558162000326565b81146200036157600080fd5b50565b610d3380620003746000396000f3fe608060405234801561001057600080fd5b506004361061007d5760003560e01c8063d8c7de841161005b578063d8c7de84146100da578063e11074cb146100f8578063f2fde38b14610102578063ff920c741461011e5761007d565b806312d1ef8c146100825780631954c35e1461009e5780638da5cb5b146100bc575b600080fd5b61009c600480360381019061009791906108df565b61013c565b005b6100a6610514565b6040516100b39190610aeb565b60405180910390f35b6100c461051a565b6040516100d191906109ba565b60405180910390f35b6100e261053e565b6040516100ef9190610a5e565b60405180910390f35b610100610564565b005b61011c6004803603810190610117919061088d565b61061a565b005b6101266106b5565b6040516101339190610a5e565b60405180910390f35b6000811161014957600080fd5b806004541161015757600080fd5b6101956040518060400160405280600b81526020017f706173732072656d61696e0000000000000000000000000000000000000000008152506106db565b6000600354826101a59190610b22565b90506000600160009054906101000a900473ffffffffffffffffffffffffffffffffffffffff1673ffffffffffffffffffffffffffffffffffffffff1663dd62ed3e33306040518363ffffffff1660e01b81526004016102069291906109d5565b60206040518083038186803b15801561021e57600080fd5b505afa158015610232573d6000803e3d6000fd5b505050506040513d601f19601f820116820180604052508101906102569190610908565b90506102976040518060400160405280600c81526020017f20616c6c6f77616e63653a20000000000000000000000000000000000000000081525082610774565b818110156102da576040517f08c379a00000000000000000000000000000000000000000000000000000000081526004016102d190610acb565b60405180910390fd5b6103186040518060400160405280600e81526020017f7061737320616c6c6f77616e63650000000000000000000000000000000000008152506106db565b600160009054906101000a900473ffffffffffffffffffffffffffffffffffffffff1673ffffffffffffffffffffffffffffffffffffffff166323b872dd3330856040518463ffffffff1660e01b8152600401610377939291906109fe565b602060405180830381600087803b15801561039157600080fd5b505af11580156103a5573d6000803e3d6000fd5b505050506040513d601f19601f820116820180604052508101906103c991906108b6565b506104086040518060400160405280601281526020017f70617373207472616e73666572205553445400000000000000000000000000008152506106db565b600260009054906101000a900473ffffffffffffffffffffffffffffffffffffffff1673ffffffffffffffffffffffffffffffffffffffff1663a9059cbb33856040518363ffffffff1660e01b8152600401610465929190610a35565b602060405180830381600087803b15801561047f57600080fd5b505af1158015610493573d6000803e3d6000fd5b505050506040513d601f19601f820116820180604052508101906104b791906108b6565b506104f66040518060400160405280601281526020017f70617373207472616e73666572204b45455900000000000000000000000000008152506106db565b82600460008282546105089190610b7c565b92505081905550505050565b60035481565b60008054906101000a900473ffffffffffffffffffffffffffffffffffffffff1681565b600260009054906101000a900473ffffffffffffffffffffffffffffffffffffffff1681565b600260009054906101000a900473ffffffffffffffffffffffffffffffffffffffff1673ffffffffffffffffffffffffffffffffffffffff166323b872dd33306004546040518463ffffffff1660e01b81526004016105c5939291906109fe565b602060405180830381600087803b1580156105df57600080fd5b505af11580156105f3573d6000803e3d6000fd5b505050506040513d601f19601f8201168201806040525081019061061791906108b6565b50565b60008054906101000a900473ffffffffffffffffffffffffffffffffffffffff1673ffffffffffffffffffffffffffffffffffffffff163373ffffffffffffffffffffffffffffffffffffffff161461067257600080fd5b806000806101000a81548173ffffffffffffffffffffffffffffffffffffffff021916908373ffffffffffffffffffffffffffffffffffffffff16021790555050565b600160009054906101000a900473ffffffffffffffffffffffffffffffffffffffff1681565b610771816040516024016106ef9190610a79565b6040516020818303038152906040527f41304fac000000000000000000000000000000000000000000000000000000007bffffffffffffffffffffffffffffffffffffffffffffffffffffffff19166020820180517bffffffffffffffffffffffffffffffffffffffffffffffffffffffff8381831617835250505050610810565b50565b61080c828260405160240161078a929190610a9b565b6040516020818303038152906040527f9710a9d0000000000000000000000000000000000000000000000000000000007bffffffffffffffffffffffffffffffffffffffffffffffffffffffff19166020820180517bffffffffffffffffffffffffffffffffffffffffffffffffffffffff8381831617835250505050610810565b5050565b60008151905060006a636f6e736f6c652e6c6f679050602083016000808483855afa5050505050565b60008135905061084881610cb8565b92915050565b60008151905061085d81610ccf565b92915050565b60008135905061087281610ce6565b92915050565b60008151905061088781610ce6565b92915050565b60006020828403121561089f57600080fd5b60006108ad84828501610839565b91505092915050565b6000602082840312156108c857600080fd5b60006108d68482850161084e565b91505092915050565b6000602082840312156108f157600080fd5b60006108ff84828501610863565b91505092915050565b60006020828403121561091a57600080fd5b600061092884828501610878565b91505092915050565b61093a81610bb0565b82525050565b61094981610bf8565b82525050565b600061095a82610b06565b6109648185610b11565b9350610974818560208601610c1c565b61097d81610c7e565b840191505092915050565b6000610995600e83610b11565b91506109a082610c8f565b602082019050919050565b6109b481610bee565b82525050565b60006020820190506109cf6000830184610931565b92915050565b60006040820190506109ea6000830185610931565b6109f76020830184610931565b9392505050565b6000606082019050610a136000830186610931565b610a206020830185610931565b610a2d60408301846109ab565b949350505050565b6000604082019050610a4a6000830185610931565b610a5760208301846109ab565b9392505050565b6000602082019050610a736000830184610940565b92915050565b60006020820190508181036000830152610a93818461094f565b905092915050565b60006040820190508181036000830152610ab5818561094f565b9050610ac460208301846109ab565b9392505050565b60006020820190508181036000830152610ae481610988565b9050919050565b6000602082019050610b0060008301846109ab565b92915050565b600081519050919050565b600082825260208201905092915050565b6000610b2d82610bee565b9150610b3883610bee565b9250817fffffffffffffffffffffffffffffffffffffffffffffffffffffffffffffffff0483118215151615610b7157610b70610c4f565b5b828202905092915050565b6000610b8782610bee565b9150610b9283610bee565b925082821015610ba557610ba4610c4f565b5b828203905092915050565b6000610bbb82610bce565b9050919050565b60008115159050919050565b600073ffffffffffffffffffffffffffffffffffffffff82169050919050565b6000819050919050565b6000610c0382610c0a565b9050919050565b6000610c1582610bce565b9050919050565b60005b83811015610c3a578082015181840152602081019050610c1f565b83811115610c49576000848401525b50505050565b7f4e487b7100000000000000000000000000000000000000000000000000000000600052601160045260246000fd5b6000601f19601f8301169050919050565b7f4e656564206d6f72652055534454000000000000000000000000000000000000600082015250565b610cc181610bb0565b8114610ccc57600080fd5b50565b610cd881610bc2565b8114610ce357600080fd5b50565b610cef81610bee565b8114610cfa57600080fd5b5056fea264697066735822122000bf16d1729792730698e476341abd753741958e8cf06fb4c7ce62360cc9225d64736f6c63430008040033",
  "linkReferences": {},
  "deployedLinkReferences": {}
}