{
  "_format": "hh-sol-artifact-1",
  "contractName": "TokenSwap",
  "sourceName": "contracts/SellKEEYToken.sol",
  "abi": [
    {
      "inputs": [
        {
          "internalType": "address",
          "name": "_USDT",
          "type": "address"
        },
        {
          "internalType": "address",
          "name": "_owner1",
          "type": "address"
        },
        {
          "internalType": "address",
          "name": "_KEEY",
          "type": "address"
        },
        {
          "internalType": "address",
          "name": "_owner2",
          "type": "address"
        }
      ],
      "stateMutability": "nonpayable",
      "type": "constructor"
    },
    {
      "inputs": [],
      "name": "KEEY",
      "outputs": [
        {
          "internalType": "contract IERC20",
          "name": "",
          "type": "address"
        }
      ],
      "stateMutability": "view",
      "type": "function"
    },
    {
      "inputs": [],
      "name": "USDT",
      "outputs": [
        {
          "internalType": "contract IERC20",
          "name": "",
          "type": "address"
        }
      ],
      "stateMutability": "view",
      "type": "function"
    },
    {
      "inputs": [],
      "name": "amount1",
      "outputs": [
        {
          "internalType": "uint256",
          "name": "",
          "type": "uint256"
        }
      ],
      "stateMutability": "view",
      "type": "function"
    },
    {
      "inputs": [],
      "name": "amount2",
      "outputs": [
        {
          "internalType": "uint256",
          "name": "",
          "type": "uint256"
        }
      ],
      "stateMutability": "view",
      "type": "function"
    },
    {
      "inputs": [
        {
          "internalType": "uint256",
          "name": "amount",
          "type": "uint256"
        }
      ],
      "name": "buyKEEY",
      "outputs": [],
      "stateMutability": "nonpayable",
      "type": "function"
    },
    {
      "inputs": [],
      "name": "decimal",
      "outputs": [
        {
          "internalType": "uint256",
          "name": "",
          "type": "uint256"
        }
      ],
      "stateMutability": "view",
      "type": "function"
    },
    {
      "inputs": [],
      "name": "owner1",
      "outputs": [
        {
          "internalType": "address",
          "name": "",
          "type": "address"
        }
      ],
      "stateMutability": "view",
      "type": "function"
    },
    {
      "inputs": [],
      "name": "owner2",
      "outputs": [
        {
          "internalType": "address",
          "name": "",
          "type": "address"
        }
      ],
      "stateMutability": "view",
      "type": "function"
    },
    {
      "inputs": [],
      "name": "rate",
      "outputs": [
        {
          "internalType": "uint256",
          "name": "",
          "type": "uint256"
        }
      ],
      "stateMutability": "view",
      "type": "function"
    }
  ],
  "bytecode": "0x608060405260006002556000600555612710600655601260075534801561002557600080fd5b5060405162000e3338038062000e338339818101604052810190610049919061016a565b836000806101000a81548173ffffffffffffffffffffffffffffffffffffffff021916908373ffffffffffffffffffffffffffffffffffffffff16021790555082600160006101000a81548173ffffffffffffffffffffffffffffffffffffffff021916908373ffffffffffffffffffffffffffffffffffffffff16021790555081600360006101000a81548173ffffffffffffffffffffffffffffffffffffffff021916908373ffffffffffffffffffffffffffffffffffffffff16021790555080600460006101000a81548173ffffffffffffffffffffffffffffffffffffffff021916908373ffffffffffffffffffffffffffffffffffffffff16021790555050505050610216565b600081519050610164816101ff565b92915050565b6000806000806080858703121561018057600080fd5b600061018e87828801610155565b945050602061019f87828801610155565b93505060406101b087828801610155565b92505060606101c187828801610155565b91505092959194509250565b60006101d8826101df565b9050919050565b600073ffffffffffffffffffffffffffffffffffffffff82169050919050565b610208816101cd565b811461021357600080fd5b50565b610c0d80620002266000396000f3fe608060405234801561001057600080fd5b50600436106100935760003560e01c80635270972511610066578063527097251461010e578063736889141461012c57806376809ce31461014a578063c54e44eb14610168578063f400fde41461018657610093565b8063057bfcc71461009857806312d1ef8c146100b65780632074c0f5146100d25780632c4e722e146100f0575b600080fd5b6100a06101a4565b6040516100ad91906109e4565b60405180910390f35b6100d060048036038101906100cb91906107c3565b6101aa565b005b6100da6105d9565b6040516100e79190610949565b60405180910390f35b6100f86105ff565b60405161010591906109e4565b60405180910390f35b610116610605565b60405161012391906108ce565b60405180910390f35b61013461062b565b60405161014191906108ce565b60405180910390f35b610152610651565b60405161015f91906109e4565b60405180910390f35b610170610657565b60405161017d9190610949565b60405180910390f35b61018e61067b565b60405161019b91906109e4565b60405180910390f35b60055481565b600081116101b757600080fd5b80600581905550600554600581905550806002819055506006546002546101de9190610a10565b600281905550600160009054906101000a900473ffffffffffffffffffffffffffffffffffffffff1673ffffffffffffffffffffffffffffffffffffffff163373ffffffffffffffffffffffffffffffffffffffff16148061028d5750600460009054906101000a900473ffffffffffffffffffffffffffffffffffffffff1673ffffffffffffffffffffffffffffffffffffffff163373ffffffffffffffffffffffffffffffffffffffff16145b6102cc576040517f08c379a00000000000000000000000000000000000000000000000000000000081526004016102c3906109c4565b60405180910390fd5b60025460008054906101000a900473ffffffffffffffffffffffffffffffffffffffff1673ffffffffffffffffffffffffffffffffffffffff1663dd62ed3e600160009054906101000a900473ffffffffffffffffffffffffffffffffffffffff16306040518363ffffffff1660e01b815260040161034c9291906108e9565b60206040518083038186803b15801561036457600080fd5b505afa158015610378573d6000803e3d6000fd5b505050506040513d601f19601f8201168201806040525081019061039c91906107ec565b10156103dd576040517f08c379a00000000000000000000000000000000000000000000000000000000081526004016103d490610984565b60405180910390fd5b600554600360009054906101000a900473ffffffffffffffffffffffffffffffffffffffff1673ffffffffffffffffffffffffffffffffffffffff1663dd62ed3e600460009054906101000a900473ffffffffffffffffffffffffffffffffffffffff16306040518363ffffffff1660e01b815260040161045f9291906108e9565b60206040518083038186803b15801561047757600080fd5b505afa15801561048b573d6000803e3d6000fd5b505050506040513d601f19601f820116820180604052508101906104af91906107ec565b10156104f0576040517f08c379a00000000000000000000000000000000000000000000000000000000081526004016104e790610964565b60405180910390fd5b61056260008054906101000a900473ffffffffffffffffffffffffffffffffffffffff16600160009054906101000a900473ffffffffffffffffffffffffffffffffffffffff16600460009054906101000a900473ffffffffffffffffffffffffffffffffffffffff16600254610681565b6105d6600360009054906101000a900473ffffffffffffffffffffffffffffffffffffffff16600460009054906101000a900473ffffffffffffffffffffffffffffffffffffffff16600160009054906101000a900473ffffffffffffffffffffffffffffffffffffffff16600554610681565b50565b600360009054906101000a900473ffffffffffffffffffffffffffffffffffffffff1681565b60065481565b600460009054906101000a900473ffffffffffffffffffffffffffffffffffffffff1681565b600160009054906101000a900473ffffffffffffffffffffffffffffffffffffffff1681565b60075481565b60008054906101000a900473ffffffffffffffffffffffffffffffffffffffff1681565b60025481565b60008473ffffffffffffffffffffffffffffffffffffffff166323b872dd8585856040518463ffffffff1660e01b81526004016106c093929190610912565b602060405180830381600087803b1580156106da57600080fd5b505af11580156106ee573d6000803e3d6000fd5b505050506040513d601f19601f82011682018060405250810190610712919061079a565b905080610754576040517f08c379a000000000000000000000000000000000000000000000000000000000815260040161074b906109a4565b60405180910390fd5b5050505050565b60008151905061076a81610ba9565b92915050565b60008135905061077f81610bc0565b92915050565b60008151905061079481610bc0565b92915050565b6000602082840312156107ac57600080fd5b60006107ba8482850161075b565b91505092915050565b6000602082840312156107d557600080fd5b60006107e384828501610770565b91505092915050565b6000602082840312156107fe57600080fd5b600061080c84828501610785565b91505092915050565b61081e81610a6a565b82525050565b61082d81610ab2565b82525050565b60006108406017836109ff565b915061084b82610b05565b602082019050919050565b60006108636017836109ff565b915061086e82610b2e565b602082019050919050565b60006108866015836109ff565b915061089182610b57565b602082019050919050565b60006108a9600e836109ff565b91506108b482610b80565b602082019050919050565b6108c881610aa8565b82525050565b60006020820190506108e36000830184610815565b92915050565b60006040820190506108fe6000830185610815565b61090b6020830184610815565b9392505050565b60006060820190506109276000830186610815565b6109346020830185610815565b61094160408301846108bf565b949350505050565b600060208201905061095e6000830184610824565b92915050565b6000602082019050818103600083015261097d81610833565b9050919050565b6000602082019050818103600083015261099d81610856565b9050919050565b600060208201905081810360008301526109bd81610879565b9050919050565b600060208201905081810360008301526109dd8161089c565b9050919050565b60006020820190506109f960008301846108bf565b92915050565b600082825260208201905092915050565b6000610a1b82610aa8565b9150610a2683610aa8565b9250817fffffffffffffffffffffffffffffffffffffffffffffffffffffffffffffffff0483118215151615610a5f57610a5e610ad6565b5b828202905092915050565b6000610a7582610a88565b9050919050565b60008115159050919050565b600073ffffffffffffffffffffffffffffffffffffffff82169050919050565b6000819050919050565b6000610abd82610ac4565b9050919050565b6000610acf82610a88565b9050919050565b7f4e487b7100000000000000000000000000000000000000000000000000000000600052601160045260246000fd5b7f4b454559206e6f7420656e6f75676820746f2062757921000000000000000000600082015250565b7f5553445420616c6c6f77616e636520746f6f206c6f7721000000000000000000600082015250565b7f546f6b656e207472616e73666572206661696c65640000000000000000000000600082015250565b7f4e6f7420617574686f72697a6564000000000000000000000000000000000000600082015250565b610bb281610a7c565b8114610bbd57600080fd5b50565b610bc981610aa8565b8114610bd457600080fd5b5056fea26469706673582212202d708a9d66adfd4628c99f4f3b96488a561b4b8a1efcbdcaa29867703856464164736f6c63430008040033",
  "linkReferences": {},
  "deployedLinkReferences": {}
}