{
  "_format": "hh-sol-artifact-1",
  "contractName": "KeeyTokenSale",
  "sourceName": "contracts/KeeyTokenSale.sol",
  "abi": [
    {
      "inputs": [
        {
          "internalType": "contract KeeyToken",
          "name": "_token",
          "type": "address"
        },
        {
          "internalType": "contract USDTToken",
          "name": "_usdtToken",
          "type": "address"
        }
      ],
      "stateMutability": "nonpayable",
      "type": "constructor"
    },
    {
      "anonymous": false,
      "inputs": [
        {
          "indexed": false,
          "internalType": "uint256",
          "name": "_amount",
          "type": "uint256"
        }
      ],
      "name": "EndSale",
      "type": "event"
    },
    {
      "anonymous": false,
      "inputs": [
        {
          "indexed": false,
          "internalType": "address",
          "name": "_buyer",
          "type": "address"
        },
        {
          "indexed": false,
          "internalType": "uint256",
          "name": "_amount",
          "type": "uint256"
        }
      ],
      "name": "Sell",
      "type": "event"
    },
    {
      "inputs": [],
      "name": "admin",
      "outputs": [
        {
          "internalType": "address payable",
          "name": "",
          "type": "address"
        }
      ],
      "stateMutability": "view",
      "type": "function"
    },
    {
      "inputs": [
        {
          "internalType": "uint256",
          "name": "_amount",
          "type": "uint256"
        },
        {
          "internalType": "address payable",
          "name": "buyer",
          "type": "address"
        }
      ],
      "name": "buyToken",
      "outputs": [],
      "stateMutability": "payable",
      "type": "function"
    },
    {
      "inputs": [],
      "name": "endSale",
      "outputs": [],
      "stateMutability": "nonpayable",
      "type": "function"
    },
    {
      "inputs": [],
      "name": "token",
      "outputs": [
        {
          "internalType": "contract KeeyToken",
          "name": "",
          "type": "address"
        }
      ],
      "stateMutability": "view",
      "type": "function"
    },
    {
      "inputs": [],
      "name": "tokenPriceUSD",
      "outputs": [
        {
          "internalType": "uint256",
          "name": "",
          "type": "uint256"
        }
      ],
      "stateMutability": "view",
      "type": "function"
    },
    {
      "inputs": [],
      "name": "tokensSold",
      "outputs": [
        {
          "internalType": "uint256",
          "name": "",
          "type": "uint256"
        }
      ],
      "stateMutability": "view",
      "type": "function"
    },
    {
      "inputs": [
        {
          "internalType": "uint256",
          "name": "",
          "type": "uint256"
        }
      ],
      "name": "transaction",
      "outputs": [
        {
          "internalType": "address",
          "name": "buyer",
          "type": "address"
        },
        {
          "internalType": "uint256",
          "name": "amount",
          "type": "uint256"
        }
      ],
      "stateMutability": "view",
      "type": "function"
    },
    {
      "inputs": [],
      "name": "transactionCount",
      "outputs": [
        {
          "internalType": "uint256",
          "name": "",
          "type": "uint256"
        }
      ],
      "stateMutability": "view",
      "type": "function"
    },
    {
      "inputs": [],
      "name": "usdtToken",
      "outputs": [
        {
          "internalType": "contract USDTToken",
          "name": "",
          "type": "address"
        }
      ],
      "stateMutability": "view",
      "type": "function"
    }
  ],
  "bytecode": "0x60806040523480156200001157600080fd5b506040516200165138038062001651833981810160405281019062000037919062000138565b61271060048190555081600160006101000a81548173ffffffffffffffffffffffffffffffffffffffff021916908373ffffffffffffffffffffffffffffffffffffffff16021790555080600260006101000a81548173ffffffffffffffffffffffffffffffffffffffff021916908373ffffffffffffffffffffffffffffffffffffffff160217905550336000806101000a81548173ffffffffffffffffffffffffffffffffffffffff021916908373ffffffffffffffffffffffffffffffffffffffff160217905550505062000209565b6000815190506200011b81620001d5565b92915050565b6000815190506200013281620001ef565b92915050565b600080604083850312156200014c57600080fd5b60006200015c858286016200010a565b92505060206200016f8582860162000121565b9150509250929050565b60006200018682620001b5565b9050919050565b60006200019a8262000179565b9050919050565b6000620001ae8262000179565b9050919050565b600073ffffffffffffffffffffffffffffffffffffffff82169050919050565b620001e0816200018d565b8114620001ec57600080fd5b50565b620001fa81620001a1565b81146200020657600080fd5b50565b61143880620002196000396000f3fe6080604052600436106100865760003560e01c80639134709e116100595780639134709e14610136578063a98ad46c14610152578063b77bf6001461017d578063f851a440146101a8578063fc0c546a146101d357610086565b8063380d831b1461008b578063407fcc31146100a257806346bd0841146100cd578063518ab2a81461010b575b600080fd5b34801561009757600080fd5b506100a06101fe565b005b3480156100ae57600080fd5b506100b7610417565b6040516100c49190611013565b60405180910390f35b3480156100d957600080fd5b506100f460048036038101906100ef9190610c5a565b61041d565b604051610102929190610ec6565b60405180910390f35b34801561011757600080fd5b50610120610461565b60405161012d9190611013565b60405180910390f35b610150600480360381019061014b9190610cac565b610467565b005b34801561015e57600080fd5b50610167610a03565b6040516101749190610f0a565b60405180910390f35b34801561018957600080fd5b50610192610a29565b60405161019f9190611013565b60405180910390f35b3480156101b457600080fd5b506101bd610a2f565b6040516101ca9190610e22565b60405180910390f35b3480156101df57600080fd5b506101e8610a53565b6040516101f59190610eef565b60405180910390f35b60008054906101000a900473ffffffffffffffffffffffffffffffffffffffff1673ffffffffffffffffffffffffffffffffffffffff163373ffffffffffffffffffffffffffffffffffffffff161461025657600080fd5b6000600160009054906101000a900473ffffffffffffffffffffffffffffffffffffffff1673ffffffffffffffffffffffffffffffffffffffff166370a08231306040518263ffffffff1660e01b81526004016102b39190610e07565b60206040518083038186803b1580156102cb57600080fd5b505afa1580156102df573d6000803e3d6000fd5b505050506040513d601f19601f820116820180604052508101906103039190610c83565b9050600160009054906101000a900473ffffffffffffffffffffffffffffffffffffffff1673ffffffffffffffffffffffffffffffffffffffff1663a9059cbb60008054906101000a900473ffffffffffffffffffffffffffffffffffffffff16836040518363ffffffff1660e01b8152600401610382929190610e9d565b602060405180830381600087803b15801561039c57600080fd5b505af11580156103b0573d6000803e3d6000fd5b505050506040513d601f19601f820116820180604052508101906103d49190610c31565b6103dd57600080fd5b7f94173af9e1cd5351395663e6a7838552ea54f5233d0c38bc46de5f4915b302bf8160405161040c9190611013565b60405180910390a150565b60045481565b60066020528060005260406000206000915090508060000160009054906101000a900473ffffffffffffffffffffffffffffffffffffffff16908060010154905082565b60035481565b6104ab6040518060600160405280602b81526020016113d8602b913960008054906101000a900473ffffffffffffffffffffffffffffffffffffffff163033610a79565b81600160009054906101000a900473ffffffffffffffffffffffffffffffffffffffff1673ffffffffffffffffffffffffffffffffffffffff166370a08231306040518263ffffffff1660e01b81526004016105079190610e07565b60206040518083038186803b15801561051f57600080fd5b505afa158015610533573d6000803e3d6000fd5b505050506040513d601f19601f820116820180604052508101906105579190610c83565b1015610598576040517f08c379a000000000000000000000000000000000000000000000000000000000815260040161058f90610ff3565b60405180910390fd5b816004546105a691906110a0565b600260009054906101000a900473ffffffffffffffffffffffffffffffffffffffff1673ffffffffffffffffffffffffffffffffffffffff1663dd62ed3e8360008054906101000a900473ffffffffffffffffffffffffffffffffffffffff166040518363ffffffff1660e01b8152600401610623929190610e3d565b60206040518083038186803b15801561063b57600080fd5b505afa15801561064f573d6000803e3d6000fd5b505050506040513d601f19601f820116820180604052508101906106739190610c83565b10156106b4576040517f08c379a00000000000000000000000000000000000000000000000000000000081526004016106ab90610fd3565b60405180910390fd5b600260009054906101000a900473ffffffffffffffffffffffffffffffffffffffff1673ffffffffffffffffffffffffffffffffffffffff166323b872dd8260008054906101000a900473ffffffffffffffffffffffffffffffffffffffff168560045461072291906110a0565b6040518463ffffffff1660e01b815260040161074093929190610e66565b602060405180830381600087803b15801561075a57600080fd5b505af115801561076e573d6000803e3d6000fd5b505050506040513d601f19601f820116820180604052508101906107929190610c31565b6107d1576040517f08c379a00000000000000000000000000000000000000000000000000000000081526004016107c890610fb3565b60405180910390fd5b6107f26040518060600160405280602e81526020016113aa602e9139610b1b565b600160009054906101000a900473ffffffffffffffffffffffffffffffffffffffff1673ffffffffffffffffffffffffffffffffffffffff1663a9059cbb82846040518363ffffffff1660e01b815260040161084f929190610e9d565b602060405180830381600087803b15801561086957600080fd5b505af115801561087d573d6000803e3d6000fd5b505050506040513d601f19601f820116820180604052508101906108a19190610c31565b6108e0576040517f08c379a00000000000000000000000000000000000000000000000000000000081526004016108d790610f93565b60405180910390fd5b61090160405180606001604052806032815260200161137860329139610b1b565b8160036000828254610913919061104a565b9250508190555060405180604001604052808273ffffffffffffffffffffffffffffffffffffffff1681526020018381525060066000600554815260200190815260200160002060008201518160000160006101000a81548173ffffffffffffffffffffffffffffffffffffffff021916908373ffffffffffffffffffffffffffffffffffffffff16021790555060208201518160010155905050600560008154809291906109c190611205565b91905055507f5e5e995ce3133561afceaa51a9a154d5db228cd7525d34df5185582c18d3df0981836040516109f7929190610e9d565b60405180910390a15050565b600260009054906101000a900473ffffffffffffffffffffffffffffffffffffffff1681565b60055481565b60008054906101000a900473ffffffffffffffffffffffffffffffffffffffff1681565b600160009054906101000a900473ffffffffffffffffffffffffffffffffffffffff1681565b610b1584848484604051602401610a939493929190610f47565b6040516020818303038152906040527fed8f28f6000000000000000000000000000000000000000000000000000000007bffffffffffffffffffffffffffffffffffffffffffffffffffffffff19166020820180517bffffffffffffffffffffffffffffffffffffffffffffffffffffffff8381831617835250505050610bb4565b50505050565b610bb181604051602401610b2f9190610f25565b6040516020818303038152906040527f41304fac000000000000000000000000000000000000000000000000000000007bffffffffffffffffffffffffffffffffffffffffffffffffffffffff19166020820180517bffffffffffffffffffffffffffffffffffffffffffffffffffffffff8381831617835250505050610bb4565b50565b60008151905060006a636f6e736f6c652e6c6f679050602083016000808483855afa5050505050565b600081359050610bec81611332565b92915050565b600081519050610c0181611349565b92915050565b600081359050610c1681611360565b92915050565b600081519050610c2b81611360565b92915050565b600060208284031215610c4357600080fd5b6000610c5184828501610bf2565b91505092915050565b600060208284031215610c6c57600080fd5b6000610c7a84828501610c07565b91505092915050565b600060208284031215610c9557600080fd5b6000610ca384828501610c1c565b91505092915050565b60008060408385031215610cbf57600080fd5b6000610ccd85828601610c07565b9250506020610cde85828601610bdd565b9150509250929050565b610cf181611154565b82525050565b610d008161110c565b82525050565b610d0f816110fa565b82525050565b610d1e81611166565b82525050565b610d2d8161118a565b82525050565b6000610d3e8261102e565b610d488185611039565b9350610d588185602086016111d2565b610d618161127d565b840191505092915050565b6000610d79601583611039565b9150610d848261128e565b602082019050919050565b6000610d9c601f83611039565b9150610da7826112b7565b602082019050919050565b6000610dbf601483611039565b9150610dca826112e0565b602082019050919050565b6000610de2601783611039565b9150610ded82611309565b602082019050919050565b610e018161114a565b82525050565b6000602082019050610e1c6000830184610d06565b92915050565b6000602082019050610e376000830184610cf7565b92915050565b6000604082019050610e526000830185610ce8565b610e5f6020830184610ce8565b9392505050565b6000606082019050610e7b6000830186610ce8565b610e886020830185610ce8565b610e956040830184610df8565b949350505050565b6000604082019050610eb26000830185610ce8565b610ebf6020830184610df8565b9392505050565b6000604082019050610edb6000830185610d06565b610ee86020830184610df8565b9392505050565b6000602082019050610f046000830184610d15565b92915050565b6000602082019050610f1f6000830184610d24565b92915050565b60006020820190508181036000830152610f3f8184610d33565b905092915050565b60006080820190508181036000830152610f618187610d33565b9050610f706020830186610d06565b610f7d6040830185610d06565b610f8a6060830184610d06565b95945050505050565b60006020820190508181036000830152610fac81610d6c565b9050919050565b60006020820190508181036000830152610fcc81610d8f565b9050919050565b60006020820190508181036000830152610fec81610db2565b9050919050565b6000602082019050818103600083015261100c81610dd5565b9050919050565b60006020820190506110286000830184610df8565b92915050565b600081519050919050565b600082825260208201905092915050565b60006110558261114a565b91506110608361114a565b9250827fffffffffffffffffffffffffffffffffffffffffffffffffffffffffffffffff038211156110955761109461124e565b5b828201905092915050565b60006110ab8261114a565b91506110b68361114a565b9250817fffffffffffffffffffffffffffffffffffffffffffffffffffffffffffffffff04831182151516156110ef576110ee61124e565b5b828202905092915050565b60006111058261112a565b9050919050565b60006111178261112a565b9050919050565b60008115159050919050565b600073ffffffffffffffffffffffffffffffffffffffff82169050919050565b6000819050919050565b600061115f826111ae565b9050919050565b600061117182611178565b9050919050565b60006111838261112a565b9050919050565b60006111958261119c565b9050919050565b60006111a78261112a565b9050919050565b60006111b9826111c0565b9050919050565b60006111cb8261112a565b9050919050565b60005b838110156111f05780820151818401526020810190506111d5565b838111156111ff576000848401525b50505050565b60006112108261114a565b91507fffffffffffffffffffffffffffffffffffffffffffffffffffffffffffffffff8214156112435761124261124e565b5b600182019050919050565b7f4e487b7100000000000000000000000000000000000000000000000000000000600052601160045260246000fd5b6000601f19601f8301169050919050565b7f5472616e7366657220746f6b656e206661696c65640000000000000000000000600082015250565b7f5472616e7366657220555344542066726f6d206275796572206661696c656400600082015250565b7f4e6f7420656e6f75676820616c6c6f77616e6365000000000000000000000000600082015250565b7f4e6f7420656e6f756768204b45455920746f2073656e64000000000000000000600082015250565b61133b8161110c565b811461134657600080fd5b50565b6113528161111e565b811461135d57600080fd5b50565b6113698161114a565b811461137457600080fd5b5056fe5472616e7366657220746f6b656e2066726f6d20536d632053616c6520746f204275796572207375636365737366756c6c795472616e7366657220555344542066726f6d20427579657220746f2041646d696e207375636365737366756c6c79416464726573732061646d696e3a2025732c20746869733a2025732c206d73672e73656e6465723a202573a2646970667358221220c582101f1356cfdd79e48f6087f0108fe4542894c725eea6c04f51bdae946d0164736f6c63430008040033",
  "linkReferences": {},
  "deployedLinkReferences": {}
}