{
  "_format": "hh-sol-artifact-1",
  "contractName": "KeeyTokenSale",
  "sourceName": "contracts/KeeyTokenSale.sol",
  "abi": [
    {
      "inputs": [
        {
          "internalType": "contract KeeyToken",
          "name": "_token",
          "type": "address"
        },
        {
          "internalType": "contract USDTToken",
          "name": "_usdtToken",
          "type": "address"
        }
      ],
      "stateMutability": "nonpayable",
      "type": "constructor"
    },
    {
      "anonymous": false,
      "inputs": [
        {
          "indexed": false,
          "internalType": "address",
          "name": "_buyer",
          "type": "address"
        },
        {
          "indexed": false,
          "internalType": "uint256",
          "name": "_amount",
          "type": "uint256"
        }
      ],
      "name": "Sell",
      "type": "event"
    },
    {
      "inputs": [],
      "name": "admin",
      "outputs": [
        {
          "internalType": "address payable",
          "name": "",
          "type": "address"
        }
      ],
      "stateMutability": "view",
      "type": "function"
    },
    {
      "inputs": [
        {
          "internalType": "uint256",
          "name": "_amount",
          "type": "uint256"
        },
        {
          "internalType": "address payable",
          "name": "buyer",
          "type": "address"
        }
      ],
      "name": "buyToken",
      "outputs": [],
      "stateMutability": "payable",
      "type": "function"
    },
    {
      "inputs": [],
      "name": "token",
      "outputs": [
        {
          "internalType": "contract KeeyToken",
          "name": "",
          "type": "address"
        }
      ],
      "stateMutability": "view",
      "type": "function"
    },
    {
      "inputs": [],
      "name": "tokenPriceUSD",
      "outputs": [
        {
          "internalType": "uint256",
          "name": "",
          "type": "uint256"
        }
      ],
      "stateMutability": "view",
      "type": "function"
    },
    {
      "inputs": [],
      "name": "tokensSold",
      "outputs": [
        {
          "internalType": "uint256",
          "name": "",
          "type": "uint256"
        }
      ],
      "stateMutability": "view",
      "type": "function"
    },
    {
      "inputs": [
        {
          "internalType": "uint256",
          "name": "",
          "type": "uint256"
        }
      ],
      "name": "transaction",
      "outputs": [
        {
          "internalType": "address",
          "name": "buyer",
          "type": "address"
        },
        {
          "internalType": "uint256",
          "name": "amount",
          "type": "uint256"
        }
      ],
      "stateMutability": "view",
      "type": "function"
    },
    {
      "inputs": [],
      "name": "transactionCount",
      "outputs": [
        {
          "internalType": "uint256",
          "name": "",
          "type": "uint256"
        }
      ],
      "stateMutability": "view",
      "type": "function"
    },
    {
      "inputs": [],
      "name": "usdtToken",
      "outputs": [
        {
          "internalType": "contract USDTToken",
          "name": "",
          "type": "address"
        }
      ],
      "stateMutability": "view",
      "type": "function"
    }
  ],
  "bytecode": "0x60806040523480156200001157600080fd5b506040516200131938038062001319833981810160405281019062000037919062000138565b61271060048190555081600160006101000a81548173ffffffffffffffffffffffffffffffffffffffff021916908373ffffffffffffffffffffffffffffffffffffffff16021790555080600260006101000a81548173ffffffffffffffffffffffffffffffffffffffff021916908373ffffffffffffffffffffffffffffffffffffffff160217905550336000806101000a81548173ffffffffffffffffffffffffffffffffffffffff021916908373ffffffffffffffffffffffffffffffffffffffff160217905550505062000209565b6000815190506200011b81620001d5565b92915050565b6000815190506200013281620001ef565b92915050565b600080604083850312156200014c57600080fd5b60006200015c858286016200010a565b92505060206200016f8582860162000121565b9150509250929050565b60006200018682620001b5565b9050919050565b60006200019a8262000179565b9050919050565b6000620001ae8262000179565b9050919050565b600073ffffffffffffffffffffffffffffffffffffffff82169050919050565b620001e0816200018d565b8114620001ec57600080fd5b50565b620001fa81620001a1565b81146200020657600080fd5b50565b61110080620002196000396000f3fe60806040526004361061007b5760003560e01c8063a98ad46c1161004e578063a98ad46c14610130578063b77bf6001461015b578063f851a44014610186578063fc0c546a146101b15761007b565b8063407fcc311461008057806346bd0841146100ab578063518ab2a8146100e95780639134709e14610114575b600080fd5b34801561008c57600080fd5b506100956101dc565b6040516100a29190610d64565b60405180910390f35b3480156100b757600080fd5b506100d260048036038101906100cd91906109e7565b6101e2565b6040516100e0929190610c07565b60405180910390f35b3480156100f557600080fd5b506100fe610226565b60405161010b9190610d64565b60405180910390f35b61012e60048036038101906101299190610a39565b61022c565b005b34801561013c57600080fd5b506101456106f4565b6040516101529190610c4b565b60405180910390f35b34801561016757600080fd5b5061017061071a565b60405161017d9190610d64565b60405180910390f35b34801561019257600080fd5b5061019b610720565b6040516101a89190610b8c565b60405180910390f35b3480156101bd57600080fd5b506101c6610744565b6040516101d39190610c30565b60405180910390f35b60045481565b60066020528060005260406000206000915090508060000160009054906101000a900473ffffffffffffffffffffffffffffffffffffffff16908060010154905082565b60035481565b6102706040518060600160405280602b81526020016110a0602b913960008054906101000a900473ffffffffffffffffffffffffffffffffffffffff16303361076a565b81600160009054906101000a900473ffffffffffffffffffffffffffffffffffffffff1673ffffffffffffffffffffffffffffffffffffffff166370a08231306040518263ffffffff1660e01b81526004016102cc9190610b71565b60206040518083038186803b1580156102e457600080fd5b505afa1580156102f8573d6000803e3d6000fd5b505050506040513d601f19601f8201168201806040525081019061031c9190610a10565b101561035d576040517f08c379a000000000000000000000000000000000000000000000000000000000815260040161035490610d44565b60405180910390fd5b6103a96040518060400160405280600881526020017f416d6f756e74203a000000000000000000000000000000000000000000000000815250836004546103a49190610df1565b61080c565b600260009054906101000a900473ffffffffffffffffffffffffffffffffffffffff1673ffffffffffffffffffffffffffffffffffffffff166323b872dd8260008054906101000a900473ffffffffffffffffffffffffffffffffffffffff16856004546104179190610df1565b6040518463ffffffff1660e01b815260040161043593929190610ba7565b602060405180830381600087803b15801561044f57600080fd5b505af1158015610463573d6000803e3d6000fd5b505050506040513d601f19601f8201168201806040525081019061048791906109be565b6104c6576040517f08c379a00000000000000000000000000000000000000000000000000000000081526004016104bd90610d24565b60405180910390fd5b6105046040518060400160405280600c81526020017f48617665206e6f206964656100000000000000000000000000000000000000008152506108a8565b600160009054906101000a900473ffffffffffffffffffffffffffffffffffffffff1673ffffffffffffffffffffffffffffffffffffffff1663a9059cbb82846040518363ffffffff1660e01b8152600401610561929190610bde565b602060405180830381600087803b15801561057b57600080fd5b505af115801561058f573d6000803e3d6000fd5b505050506040513d601f19601f820116820180604052508101906105b391906109be565b6105f2576040517f08c379a00000000000000000000000000000000000000000000000000000000081526004016105e990610d04565b60405180910390fd5b81600360008282546106049190610d9b565b9250508190555060405180604001604052808273ffffffffffffffffffffffffffffffffffffffff1681526020018381525060066000600554815260200190815260200160002060008201518160000160006101000a81548173ffffffffffffffffffffffffffffffffffffffff021916908373ffffffffffffffffffffffffffffffffffffffff16021790555060208201518160010155905050600560008154809291906106b290610f56565b91905055507f5e5e995ce3133561afceaa51a9a154d5db228cd7525d34df5185582c18d3df0981836040516106e8929190610bde565b60405180910390a15050565b600260009054906101000a900473ffffffffffffffffffffffffffffffffffffffff1681565b60055481565b60008054906101000a900473ffffffffffffffffffffffffffffffffffffffff1681565b600160009054906101000a900473ffffffffffffffffffffffffffffffffffffffff1681565b610806848484846040516024016107849493929190610c88565b6040516020818303038152906040527fed8f28f6000000000000000000000000000000000000000000000000000000007bffffffffffffffffffffffffffffffffffffffffffffffffffffffff19166020820180517bffffffffffffffffffffffffffffffffffffffffffffffffffffffff8381831617835250505050610941565b50505050565b6108a48282604051602401610822929190610cd4565b6040516020818303038152906040527f9710a9d0000000000000000000000000000000000000000000000000000000007bffffffffffffffffffffffffffffffffffffffffffffffffffffffff19166020820180517bffffffffffffffffffffffffffffffffffffffffffffffffffffffff8381831617835250505050610941565b5050565b61093e816040516024016108bc9190610c66565b6040516020818303038152906040527f41304fac000000000000000000000000000000000000000000000000000000007bffffffffffffffffffffffffffffffffffffffffffffffffffffffff19166020820180517bffffffffffffffffffffffffffffffffffffffffffffffffffffffff8381831617835250505050610941565b50565b60008151905060006a636f6e736f6c652e6c6f679050602083016000808483855afa5050505050565b6000813590506109798161105a565b92915050565b60008151905061098e81611071565b92915050565b6000813590506109a381611088565b92915050565b6000815190506109b881611088565b92915050565b6000602082840312156109d057600080fd5b60006109de8482850161097f565b91505092915050565b6000602082840312156109f957600080fd5b6000610a0784828501610994565b91505092915050565b600060208284031215610a2257600080fd5b6000610a30848285016109a9565b91505092915050565b60008060408385031215610a4c57600080fd5b6000610a5a85828601610994565b9250506020610a6b8582860161096a565b9150509250929050565b610a7e81610ea5565b82525050565b610a8d81610e5d565b82525050565b610a9c81610e4b565b82525050565b610aab81610eb7565b82525050565b610aba81610edb565b82525050565b6000610acb82610d7f565b610ad58185610d8a565b9350610ae5818560208601610f23565b610aee81610fce565b840191505092915050565b6000610b06601583610d8a565b9150610b1182610fdf565b602082019050919050565b6000610b29601f83610d8a565b9150610b3482611008565b602082019050919050565b6000610b4c601783610d8a565b9150610b5782611031565b602082019050919050565b610b6b81610e9b565b82525050565b6000602082019050610b866000830184610a93565b92915050565b6000602082019050610ba16000830184610a84565b92915050565b6000606082019050610bbc6000830186610a75565b610bc96020830185610a75565b610bd66040830184610b62565b949350505050565b6000604082019050610bf36000830185610a75565b610c006020830184610b62565b9392505050565b6000604082019050610c1c6000830185610a93565b610c296020830184610b62565b9392505050565b6000602082019050610c456000830184610aa2565b92915050565b6000602082019050610c606000830184610ab1565b92915050565b60006020820190508181036000830152610c808184610ac0565b905092915050565b60006080820190508181036000830152610ca28187610ac0565b9050610cb16020830186610a93565b610cbe6040830185610a93565b610ccb6060830184610a93565b95945050505050565b60006040820190508181036000830152610cee8185610ac0565b9050610cfd6020830184610b62565b9392505050565b60006020820190508181036000830152610d1d81610af9565b9050919050565b60006020820190508181036000830152610d3d81610b1c565b9050919050565b60006020820190508181036000830152610d5d81610b3f565b9050919050565b6000602082019050610d796000830184610b62565b92915050565b600081519050919050565b600082825260208201905092915050565b6000610da682610e9b565b9150610db183610e9b565b9250827fffffffffffffffffffffffffffffffffffffffffffffffffffffffffffffffff03821115610de657610de5610f9f565b5b828201905092915050565b6000610dfc82610e9b565b9150610e0783610e9b565b9250817fffffffffffffffffffffffffffffffffffffffffffffffffffffffffffffffff0483118215151615610e4057610e3f610f9f565b5b828202905092915050565b6000610e5682610e7b565b9050919050565b6000610e6882610e7b565b9050919050565b60008115159050919050565b600073ffffffffffffffffffffffffffffffffffffffff82169050919050565b6000819050919050565b6000610eb082610eff565b9050919050565b6000610ec282610ec9565b9050919050565b6000610ed482610e7b565b9050919050565b6000610ee682610eed565b9050919050565b6000610ef882610e7b565b9050919050565b6000610f0a82610f11565b9050919050565b6000610f1c82610e7b565b9050919050565b60005b83811015610f41578082015181840152602081019050610f26565b83811115610f50576000848401525b50505050565b6000610f6182610e9b565b91507fffffffffffffffffffffffffffffffffffffffffffffffffffffffffffffffff821415610f9457610f93610f9f565b5b600182019050919050565b7f4e487b7100000000000000000000000000000000000000000000000000000000600052601160045260246000fd5b6000601f19601f8301169050919050565b7f5472616e7366657220746f6b656e206661696c65640000000000000000000000600082015250565b7f5472616e7366657220555344542066726f6d206275796572206661696c656400600082015250565b7f4e6f7420656e6f756768204b45455920746f2073656e64000000000000000000600082015250565b61106381610e5d565b811461106e57600080fd5b50565b61107a81610e6f565b811461108557600080fd5b50565b61109181610e9b565b811461109c57600080fd5b5056fe416464726573732061646d696e3a2025732c20746869733a2025732c206d73672e73656e6465723a202573a2646970667358221220d0f84032bfe391b151306e05b857c16f714cdd994b513ac3f202d56fd0ef583a64736f6c63430008040033",
  "linkReferences": {},
  "deployedLinkReferences": {}
}