{
  "_format": "hh-sol-artifact-1",
  "contractName": "KeeyTokenSale",
  "sourceName": "contracts/KeeyTokenSale.sol",
  "abi": [
    {
      "inputs": [
        {
          "internalType": "contract KeeyToken",
          "name": "_token",
          "type": "address"
        },
        {
          "internalType": "contract USDTToken",
          "name": "_usdtToken",
          "type": "address"
        }
      ],
      "stateMutability": "nonpayable",
      "type": "constructor"
    },
    {
      "anonymous": false,
      "inputs": [
        {
          "indexed": false,
          "internalType": "uint256",
          "name": "_amount",
          "type": "uint256"
        }
      ],
      "name": "EndSale",
      "type": "event"
    },
    {
      "anonymous": false,
      "inputs": [
        {
          "indexed": false,
          "internalType": "address",
          "name": "_buyer",
          "type": "address"
        },
        {
          "indexed": false,
          "internalType": "uint256",
          "name": "_amount",
          "type": "uint256"
        }
      ],
      "name": "Sell",
      "type": "event"
    },
    {
      "inputs": [],
      "name": "admin",
      "outputs": [
        {
          "internalType": "address payable",
          "name": "",
          "type": "address"
        }
      ],
      "stateMutability": "view",
      "type": "function"
    },
    {
      "inputs": [
        {
          "internalType": "uint256",
          "name": "_amount",
          "type": "uint256"
        }
      ],
      "name": "buyToken",
      "outputs": [],
      "stateMutability": "payable",
      "type": "function"
    },
    {
      "inputs": [],
      "name": "endSale",
      "outputs": [],
      "stateMutability": "nonpayable",
      "type": "function"
    },
    {
      "inputs": [],
      "name": "token",
      "outputs": [
        {
          "internalType": "contract KeeyToken",
          "name": "",
          "type": "address"
        }
      ],
      "stateMutability": "view",
      "type": "function"
    },
    {
      "inputs": [],
      "name": "tokenPriceUSD",
      "outputs": [
        {
          "internalType": "uint256",
          "name": "",
          "type": "uint256"
        }
      ],
      "stateMutability": "view",
      "type": "function"
    },
    {
      "inputs": [],
      "name": "tokensSold",
      "outputs": [
        {
          "internalType": "uint256",
          "name": "",
          "type": "uint256"
        }
      ],
      "stateMutability": "view",
      "type": "function"
    },
    {
      "inputs": [
        {
          "internalType": "uint256",
          "name": "",
          "type": "uint256"
        }
      ],
      "name": "transaction",
      "outputs": [
        {
          "internalType": "address",
          "name": "buyer",
          "type": "address"
        },
        {
          "internalType": "uint256",
          "name": "amount",
          "type": "uint256"
        }
      ],
      "stateMutability": "view",
      "type": "function"
    },
    {
      "inputs": [],
      "name": "transactionCount",
      "outputs": [
        {
          "internalType": "uint256",
          "name": "",
          "type": "uint256"
        }
      ],
      "stateMutability": "view",
      "type": "function"
    },
    {
      "inputs": [],
      "name": "usdtToken",
      "outputs": [
        {
          "internalType": "contract USDTToken",
          "name": "",
          "type": "address"
        }
      ],
      "stateMutability": "view",
      "type": "function"
    }
  ],
  "bytecode": "0x60806040523480156200001157600080fd5b50604051620015c8380380620015c8833981810160405281019062000037919062000138565b61271060048190555081600160006101000a81548173ffffffffffffffffffffffffffffffffffffffff021916908373ffffffffffffffffffffffffffffffffffffffff16021790555080600260006101000a81548173ffffffffffffffffffffffffffffffffffffffff021916908373ffffffffffffffffffffffffffffffffffffffff160217905550336000806101000a81548173ffffffffffffffffffffffffffffffffffffffff021916908373ffffffffffffffffffffffffffffffffffffffff160217905550505062000209565b6000815190506200011b81620001d5565b92915050565b6000815190506200013281620001ef565b92915050565b600080604083850312156200014c57600080fd5b60006200015c858286016200010a565b92505060206200016f8582860162000121565b9150509250929050565b60006200018682620001b5565b9050919050565b60006200019a8262000179565b9050919050565b6000620001ae8262000179565b9050919050565b600073ffffffffffffffffffffffffffffffffffffffff82169050919050565b620001e0816200018d565b8114620001ec57600080fd5b50565b620001fa81620001a1565b81146200020657600080fd5b50565b6113af80620002196000396000f3fe6080604052600436106100865760003560e01c8063518ab2a811610059578063518ab2a814610127578063a98ad46c14610152578063b77bf6001461017d578063f851a440146101a8578063fc0c546a146101d357610086565b80632d296bf11461008b578063380d831b146100a7578063407fcc31146100be57806346bd0841146100e9575b600080fd5b6100a560048036038101906100a09190610c24565b6101fe565b005b3480156100b357600080fd5b506100bc610779565b005b3480156100ca57600080fd5b506100d3610992565b6040516100e09190610fa1565b60405180910390f35b3480156100f557600080fd5b50610110600480360381019061010b9190610c24565b610998565b60405161011e929190610e54565b60405180910390f35b34801561013357600080fd5b5061013c6109dc565b6040516101499190610fa1565b60405180910390f35b34801561015e57600080fd5b506101676109e2565b6040516101749190610e98565b60405180910390f35b34801561018957600080fd5b50610192610a08565b60405161019f9190610fa1565b60405180910390f35b3480156101b457600080fd5b506101bd610a0e565b6040516101ca9190610db0565b60405180910390f35b3480156101df57600080fd5b506101e8610a32565b6040516101f59190610e7d565b60405180910390f35b6102426040518060600160405280602b815260200161134f602b913960008054906101000a900473ffffffffffffffffffffffffffffffffffffffff163033610a58565b80600160009054906101000a900473ffffffffffffffffffffffffffffffffffffffff1673ffffffffffffffffffffffffffffffffffffffff166370a08231306040518263ffffffff1660e01b815260040161029e9190610d95565b60206040518083038186803b1580156102b657600080fd5b505afa1580156102ca573d6000803e3d6000fd5b505050506040513d601f19601f820116820180604052508101906102ee9190610c4d565b101561032f576040517f08c379a000000000000000000000000000000000000000000000000000000000815260040161032690610f81565b60405180910390fd5b8060045461033d919061102e565b600260009054906101000a900473ffffffffffffffffffffffffffffffffffffffff1673ffffffffffffffffffffffffffffffffffffffff1663dd62ed3e33306040518363ffffffff1660e01b815260040161039a929190610df4565b60206040518083038186803b1580156103b257600080fd5b505afa1580156103c6573d6000803e3d6000fd5b505050506040513d601f19601f820116820180604052508101906103ea9190610c4d565b101561042b576040517f08c379a000000000000000000000000000000000000000000000000000000000815260040161042290610f61565b60405180910390fd5b600260009054906101000a900473ffffffffffffffffffffffffffffffffffffffff1673ffffffffffffffffffffffffffffffffffffffff166323b872dd3360008054906101000a900473ffffffffffffffffffffffffffffffffffffffff1684600454610499919061102e565b6040518463ffffffff1660e01b81526004016104b793929190610e1d565b602060405180830381600087803b1580156104d157600080fd5b505af11580156104e5573d6000803e3d6000fd5b505050506040513d601f19601f820116820180604052508101906105099190610bfb565b610548576040517f08c379a000000000000000000000000000000000000000000000000000000000815260040161053f90610f41565b60405180910390fd5b6105696040518060600160405280602e8152602001611321602e9139610afa565b600160009054906101000a900473ffffffffffffffffffffffffffffffffffffffff1673ffffffffffffffffffffffffffffffffffffffff1663a9059cbb33836040518363ffffffff1660e01b81526004016105c6929190610e54565b602060405180830381600087803b1580156105e057600080fd5b505af11580156105f4573d6000803e3d6000fd5b505050506040513d601f19601f820116820180604052508101906106189190610bfb565b610657576040517f08c379a000000000000000000000000000000000000000000000000000000000815260040161064e90610f21565b60405180910390fd5b6106786040518060600160405280603281526020016112ef60329139610afa565b806003600082825461068a9190610fd8565b9250508190555060405180604001604052803373ffffffffffffffffffffffffffffffffffffffff1681526020018281525060066000600554815260200190815260200160002060008201518160000160006101000a81548173ffffffffffffffffffffffffffffffffffffffff021916908373ffffffffffffffffffffffffffffffffffffffff160217905550602082015181600101559050506005600081548092919061073890611193565b91905055507f5e5e995ce3133561afceaa51a9a154d5db228cd7525d34df5185582c18d3df09338260405161076e929190610e54565b60405180910390a150565b60008054906101000a900473ffffffffffffffffffffffffffffffffffffffff1673ffffffffffffffffffffffffffffffffffffffff163373ffffffffffffffffffffffffffffffffffffffff16146107d157600080fd5b6000600160009054906101000a900473ffffffffffffffffffffffffffffffffffffffff1673ffffffffffffffffffffffffffffffffffffffff166370a08231306040518263ffffffff1660e01b815260040161082e9190610d95565b60206040518083038186803b15801561084657600080fd5b505afa15801561085a573d6000803e3d6000fd5b505050506040513d601f19601f8201168201806040525081019061087e9190610c4d565b9050600160009054906101000a900473ffffffffffffffffffffffffffffffffffffffff1673ffffffffffffffffffffffffffffffffffffffff1663a9059cbb60008054906101000a900473ffffffffffffffffffffffffffffffffffffffff16836040518363ffffffff1660e01b81526004016108fd929190610dcb565b602060405180830381600087803b15801561091757600080fd5b505af115801561092b573d6000803e3d6000fd5b505050506040513d601f19601f8201168201806040525081019061094f9190610bfb565b61095857600080fd5b7f94173af9e1cd5351395663e6a7838552ea54f5233d0c38bc46de5f4915b302bf816040516109879190610fa1565b60405180910390a150565b60045481565b60066020528060005260406000206000915090508060000160009054906101000a900473ffffffffffffffffffffffffffffffffffffffff16908060010154905082565b60035481565b600260009054906101000a900473ffffffffffffffffffffffffffffffffffffffff1681565b60055481565b60008054906101000a900473ffffffffffffffffffffffffffffffffffffffff1681565b600160009054906101000a900473ffffffffffffffffffffffffffffffffffffffff1681565b610af484848484604051602401610a729493929190610ed5565b6040516020818303038152906040527fed8f28f6000000000000000000000000000000000000000000000000000000007bffffffffffffffffffffffffffffffffffffffffffffffffffffffff19166020820180517bffffffffffffffffffffffffffffffffffffffffffffffffffffffff8381831617835250505050610b93565b50505050565b610b9081604051602401610b0e9190610eb3565b6040516020818303038152906040527f41304fac000000000000000000000000000000000000000000000000000000007bffffffffffffffffffffffffffffffffffffffffffffffffffffffff19166020820180517bffffffffffffffffffffffffffffffffffffffffffffffffffffffff8381831617835250505050610b93565b50565b60008151905060006a636f6e736f6c652e6c6f679050602083016000808483855afa5050505050565b600081519050610bcb816112c0565b92915050565b600081359050610be0816112d7565b92915050565b600081519050610bf5816112d7565b92915050565b600060208284031215610c0d57600080fd5b6000610c1b84828501610bbc565b91505092915050565b600060208284031215610c3657600080fd5b6000610c4484828501610bd1565b91505092915050565b600060208284031215610c5f57600080fd5b6000610c6d84828501610be6565b91505092915050565b610c7f816110e2565b82525050565b610c8e8161109a565b82525050565b610c9d81611088565b82525050565b610cac816110f4565b82525050565b610cbb81611118565b82525050565b6000610ccc82610fbc565b610cd68185610fc7565b9350610ce6818560208601611160565b610cef8161120b565b840191505092915050565b6000610d07601583610fc7565b9150610d128261121c565b602082019050919050565b6000610d2a601f83610fc7565b9150610d3582611245565b602082019050919050565b6000610d4d601483610fc7565b9150610d588261126e565b602082019050919050565b6000610d70601783610fc7565b9150610d7b82611297565b602082019050919050565b610d8f816110d8565b82525050565b6000602082019050610daa6000830184610c94565b92915050565b6000602082019050610dc56000830184610c85565b92915050565b6000604082019050610de06000830185610c76565b610ded6020830184610d86565b9392505050565b6000604082019050610e096000830185610c94565b610e166020830184610c94565b9392505050565b6000606082019050610e326000830186610c94565b610e3f6020830185610c76565b610e4c6040830184610d86565b949350505050565b6000604082019050610e696000830185610c94565b610e766020830184610d86565b9392505050565b6000602082019050610e926000830184610ca3565b92915050565b6000602082019050610ead6000830184610cb2565b92915050565b60006020820190508181036000830152610ecd8184610cc1565b905092915050565b60006080820190508181036000830152610eef8187610cc1565b9050610efe6020830186610c94565b610f0b6040830185610c94565b610f186060830184610c94565b95945050505050565b60006020820190508181036000830152610f3a81610cfa565b9050919050565b60006020820190508181036000830152610f5a81610d1d565b9050919050565b60006020820190508181036000830152610f7a81610d40565b9050919050565b60006020820190508181036000830152610f9a81610d63565b9050919050565b6000602082019050610fb66000830184610d86565b92915050565b600081519050919050565b600082825260208201905092915050565b6000610fe3826110d8565b9150610fee836110d8565b9250827fffffffffffffffffffffffffffffffffffffffffffffffffffffffffffffffff03821115611023576110226111dc565b5b828201905092915050565b6000611039826110d8565b9150611044836110d8565b9250817fffffffffffffffffffffffffffffffffffffffffffffffffffffffffffffffff048311821515161561107d5761107c6111dc565b5b828202905092915050565b6000611093826110b8565b9050919050565b60006110a5826110b8565b9050919050565b60008115159050919050565b600073ffffffffffffffffffffffffffffffffffffffff82169050919050565b6000819050919050565b60006110ed8261113c565b9050919050565b60006110ff82611106565b9050919050565b6000611111826110b8565b9050919050565b60006111238261112a565b9050919050565b6000611135826110b8565b9050919050565b60006111478261114e565b9050919050565b6000611159826110b8565b9050919050565b60005b8381101561117e578082015181840152602081019050611163565b8381111561118d576000848401525b50505050565b600061119e826110d8565b91507fffffffffffffffffffffffffffffffffffffffffffffffffffffffffffffffff8214156111d1576111d06111dc565b5b600182019050919050565b7f4e487b7100000000000000000000000000000000000000000000000000000000600052601160045260246000fd5b6000601f19601f8301169050919050565b7f5472616e7366657220746f6b656e206661696c65640000000000000000000000600082015250565b7f5472616e7366657220555344542066726f6d206275796572206661696c656400600082015250565b7f4e6f7420656e6f75676820616c6c6f77616e6365000000000000000000000000600082015250565b7f4e6f7420656e6f756768204b45455920746f2073656e64000000000000000000600082015250565b6112c9816110ac565b81146112d457600080fd5b50565b6112e0816110d8565b81146112eb57600080fd5b5056fe5472616e7366657220746f6b656e2066726f6d20536d632053616c6520746f204275796572207375636365737366756c6c795472616e7366657220555344542066726f6d20427579657220746f2041646d696e207375636365737366756c6c79416464726573732061646d696e3a2025732c20746869733a2025732c206d73672e73656e6465723a202573a26469706673582212207767a539e948697888f1ee5d02cdd54d0dec2b08e760b6749c4a6539eb369cef64736f6c63430008040033",
  "linkReferences": {},
  "deployedLinkReferences": {}
}