{
  "contractName": "PoolSaleToken",
  "abi": [
    {
      "inputs": [
        {
          "internalType": "address",
          "name": "tokenSale_",
          "type": "address"
        },
        {
          "internalType": "address",
          "name": "tokenBase_",
          "type": "address"
        },
        {
          "internalType": "uint256",
          "name": "totalSale_",
          "type": "uint256"
        },
        {
          "internalType": "uint256",
          "name": "saleRate_",
          "type": "uint256"
        },
        {
          "internalType": "uint256",
          "name": "baseRate_",
          "type": "uint256"
        },
        {
          "internalType": "uint256",
          "name": "maxCap_",
          "type": "uint256"
        },
        {
          "internalType": "uint256",
          "name": "minCap_",
          "type": "uint256"
        }
      ],
      "name": "createTokenSale",
      "outputs": [],
      "stateMutability": "nonpayable",
      "type": "function"
    },
    {
      "inputs": [],
      "name": "tokenSaleInfo",
      "outputs": [
        {
          "components": [
            {
              "internalType": "address",
              "name": "tokenSale",
              "type": "address"
            },
            {
              "internalType": "address",
              "name": "tokenBase",
              "type": "address"
            },
            {
              "internalType": "uint256",
              "name": "totalSale",
              "type": "uint256"
            },
            {
              "internalType": "uint256",
              "name": "totalSold",
              "type": "uint256"
            },
            {
              "internalType": "uint256",
              "name": "saleRate",
              "type": "uint256"
            },
            {
              "internalType": "uint256",
              "name": "baseRate",
              "type": "uint256"
            },
            {
              "internalType": "uint256",
              "name": "maxCap",
              "type": "uint256"
            },
            {
              "internalType": "uint256",
              "name": "minCap",
              "type": "uint256"
            },
            {
              "internalType": "uint256",
              "name": "tokenId",
              "type": "uint256"
            },
            {
              "internalType": "bool",
              "name": "isActive",
              "type": "bool"
            }
          ],
          "internalType": "struct PoolSaleToken.TokenSale[]",
          "name": "",
          "type": "tuple[]"
        }
      ],
      "stateMutability": "view",
      "type": "function"
    },
    {
      "inputs": [
        {
          "internalType": "uint256",
          "name": "tokenId",
          "type": "uint256"
        }
      ],
      "name": "getOwnerOfTokenSale",
      "outputs": [
        {
          "internalType": "address",
          "name": "",
          "type": "address"
        }
      ],
      "stateMutability": "view",
      "type": "function"
    },
    {
      "inputs": [
        {
          "internalType": "uint256",
          "name": "tokenId",
          "type": "uint256"
        },
        {
          "internalType": "uint256",
          "name": "baseAmount",
          "type": "uint256"
        }
      ],
      "name": "buySaleToken",
      "outputs": [],
      "stateMutability": "nonpayable",
      "type": "function"
    }
  ],
  "bytecode": "0x608060405234801561001057600080fd5b50610d1f806100206000396000f3fe608060405234801561001057600080fd5b506004361061004c5760003560e01c80630a1c4b02146100515780634a57991c14610081578063849c2ae11461009d578063a8153937146100b9575b600080fd5b61006b60048036038101906100669190610682565b6100d7565b60405161007891906106f0565b60405180910390f35b61009b60048036038101906100969190610737565b610113565b005b6100b760048036038101906100b291906107d9565b610329565b005b6100c16104d2565b6040516100ce91906109ce565b60405180910390f35b600080600083815260200190815260200160002060009054906101000a900473ffffffffffffffffffffffffffffffffffffffff169050919050565b60016040518061014001604052808973ffffffffffffffffffffffffffffffffffffffff1681526020018873ffffffffffffffffffffffffffffffffffffffff1681526020018781526020016000815260200186815260200185815260200184815260200183815260200160025481526020016001151581525090806001815401808255809150506001900390600052602060002090600a020160009091909190915060008201518160000160006101000a81548173ffffffffffffffffffffffffffffffffffffffff021916908373ffffffffffffffffffffffffffffffffffffffff16021790555060208201518160010160006101000a81548173ffffffffffffffffffffffffffffffffffffffff021916908373ffffffffffffffffffffffffffffffffffffffff16021790555060408201518160020155606082015181600301556080820151816004015560a0820151816005015560c0820151816006015560e0820151816007015561010082015181600801556101208201518160090160006101000a81548160ff02191690831515021790555050506102b661063f565b600080600254815260200190815260200160002060006101000a81548173ffffffffffffffffffffffffffffffffffffffff021916908373ffffffffffffffffffffffffffffffffffffffff1602179055506002600081548092919061031b90610a1f565b919050555050505050505050565b60006001838154811061033f5761033e610a68565b5b90600052602060002090600a02019050600081600501548260040154846103669190610a97565b6103709190610b20565b905060008260000160009054906101000a900473ffffffffffffffffffffffffffffffffffffffff169050600080600087815260200190815260200160002060009054906101000a900473ffffffffffffffffffffffffffffffffffffffff169050828273ffffffffffffffffffffffffffffffffffffffff1663dd62ed3e83306040518363ffffffff1660e01b815260040161040e929190610b51565b602060405180830381865afa15801561042b573d6000803e3d6000fd5b505050506040513d601f19601f8201168201806040525081019061044f9190610b8f565b101580156104705750828460030154856002015461046d9190610bbc565b10155b6104af576040517f08c379a00000000000000000000000000000000000000000000000000000000081526004016104a690610c73565b60405180910390fd5b828460030160008282546104c39190610c93565b92505081905550505050505050565b60606001805480602002602001604051908101604052809291908181526020016000905b8282101561063657838290600052602060002090600a0201604051806101400160405290816000820160009054906101000a900473ffffffffffffffffffffffffffffffffffffffff1673ffffffffffffffffffffffffffffffffffffffff1673ffffffffffffffffffffffffffffffffffffffff1681526020016001820160009054906101000a900473ffffffffffffffffffffffffffffffffffffffff1673ffffffffffffffffffffffffffffffffffffffff1673ffffffffffffffffffffffffffffffffffffffff168152602001600282015481526020016003820154815260200160048201548152602001600582015481526020016006820154815260200160078201548152602001600882015481526020016009820160009054906101000a900460ff161515151581525050815260200190600101906104f6565b50505050905090565b600033905090565b600080fd5b6000819050919050565b61065f8161064c565b811461066a57600080fd5b50565b60008135905061067c81610656565b92915050565b60006020828403121561069857610697610647565b5b60006106a68482850161066d565b91505092915050565b600073ffffffffffffffffffffffffffffffffffffffff82169050919050565b60006106da826106af565b9050919050565b6106ea816106cf565b82525050565b600060208201905061070560008301846106e1565b92915050565b610714816106cf565b811461071f57600080fd5b50565b6000813590506107318161070b565b92915050565b600080600080600080600060e0888a03121561075657610755610647565b5b60006107648a828b01610722565b97505060206107758a828b01610722565b96505060406107868a828b0161066d565b95505060606107978a828b0161066d565b94505060806107a88a828b0161066d565b93505060a06107b98a828b0161066d565b92505060c06107ca8a828b0161066d565b91505092959891949750929550565b600080604083850312156107f0576107ef610647565b5b60006107fe8582860161066d565b925050602061080f8582860161066d565b9150509250929050565b600081519050919050565b600082825260208201905092915050565b6000819050602082019050919050565b61084e816106cf565b82525050565b61085d8161064c565b82525050565b60008115159050919050565b61087881610863565b82525050565b610140820160008201516108956000850182610845565b5060208201516108a86020850182610845565b5060408201516108bb6040850182610854565b5060608201516108ce6060850182610854565b5060808201516108e16080850182610854565b5060a08201516108f460a0850182610854565b5060c082015161090760c0850182610854565b5060e082015161091a60e0850182610854565b5061010082015161092f610100850182610854565b5061012082015161094461012085018261086f565b50505050565b6000610956838361087e565b6101408301905092915050565b6000602082019050919050565b600061097b82610819565b6109858185610824565b935061099083610835565b8060005b838110156109c15781516109a8888261094a565b97506109b383610963565b925050600181019050610994565b5085935050505092915050565b600060208201905081810360008301526109e88184610970565b905092915050565b7f4e487b7100000000000000000000000000000000000000000000000000000000600052601160045260246000fd5b6000610a2a8261064c565b91507fffffffffffffffffffffffffffffffffffffffffffffffffffffffffffffffff821415610a5d57610a5c6109f0565b5b600182019050919050565b7f4e487b7100000000000000000000000000000000000000000000000000000000600052603260045260246000fd5b6000610aa28261064c565b9150610aad8361064c565b9250817fffffffffffffffffffffffffffffffffffffffffffffffffffffffffffffffff0483118215151615610ae657610ae56109f0565b5b828202905092915050565b7f4e487b7100000000000000000000000000000000000000000000000000000000600052601260045260246000fd5b6000610b2b8261064c565b9150610b368361064c565b925082610b4657610b45610af1565b5b828204905092915050565b6000604082019050610b6660008301856106e1565b610b7360208301846106e1565b9392505050565b600081519050610b8981610656565b92915050565b600060208284031215610ba557610ba4610647565b5b6000610bb384828501610b7a565b91505092915050565b6000610bc78261064c565b9150610bd28361064c565b925082821015610be557610be46109f0565b5b828203905092915050565b600082825260208201905092915050565b7f4e6f7420656e6f7567682062616c616e636520746f6b656e2073616c6520666f60008201527f7220726571756573740000000000000000000000000000000000000000000000602082015250565b6000610c5d602983610bf0565b9150610c6882610c01565b604082019050919050565b60006020820190508181036000830152610c8c81610c50565b9050919050565b6000610c9e8261064c565b9150610ca98361064c565b9250827fffffffffffffffffffffffffffffffffffffffffffffffffffffffffffffffff03821115610cde57610cdd6109f0565b5b82820190509291505056fea264697066735822122098931a5b64834bc60a4c8c8da7163bf81c8a23702ed5ee830fd359da4ff65d6864736f6c634300080a0033",
  "immutableReferences": {},
  "source": "// SPDX-License-Identifier: MIT\npragma solidity ^0.8.9;\n\nimport \"./TokenFactory.sol\";\nimport \"./Address.sol\";\nimport \"./SafeERC20.sol\";\nimport \"./IERC20.sol\";\nimport \"./Token.sol\";\nimport \"./Context.sol\";\n\n/**\n * @dev Smart Contract to handle Tokens Sale.\n */\ncontract PoolSaleToken is Context {\n    using SafeERC20 for IERC20Token;\n    // Token sale information\n    struct TokenSale {\n        address tokenSale;\n        address tokenBase;\n        uint256 totalSale;\n        uint256 totalSold;\n        uint256 saleRate;\n        uint256 baseRate;\n        uint256 maxCap;\n        uint256 minCap;\n        uint256 tokenId;\n        bool isActive;\n    }\n\n    // Mapping from token sale ID to owner address\n    mapping(uint256 => address) private _owners;\n\n    // List Token sale\n    TokenSale[] private _tokenSaleInfos;\n\n    // TokenSale length\n    uint256 private _tokenSaleLength;\n\n    /**\n     * @dev create new TokenSale for Pool\n     */\n\n    function createTokenSale(\n        address tokenSale_,\n        address tokenBase_,\n        uint256 totalSale_,\n        uint256 saleRate_,\n        uint256 baseRate_,\n        uint256 maxCap_,\n        uint256 minCap_\n    ) public virtual {\n        _tokenSaleInfos.push(\n            TokenSale({\n                tokenSale: tokenSale_,\n                tokenBase: tokenBase_,\n                totalSale: totalSale_,\n                totalSold: 0,\n                saleRate: saleRate_,\n                baseRate: baseRate_,\n                maxCap: maxCap_,\n                minCap: minCap_,\n                tokenId: _tokenSaleLength,\n                isActive: true\n            })\n        );\n        _owners[_tokenSaleLength] = _msgSender();\n        _tokenSaleLength++;\n    }\n\n    /**\n     *@dev Get list of Token sales\n     */\n    function tokenSaleInfo() public view virtual returns (TokenSale[] memory) {\n        return _tokenSaleInfos;\n    }\n\n    /**\n     * @dev Get owner of creator token sale\n     */\n\n    function getOwnerOfTokenSale(uint256 tokenId)\n        public\n        view\n        virtual\n        returns (address)\n    {\n        return _owners[tokenId];\n    }\n\n    /**\n     * @dev send base token to owner of tokensale\n     * @dev send sale token to buyer.\n     */\n\n    function buySaleToken(uint256 tokenId, uint256 baseAmount) public virtual {\n        TokenSale storage tokenSaleStruct = _tokenSaleInfos[tokenId];\n        uint256 tokenSaleRequest = (baseAmount * tokenSaleStruct.saleRate) /\n            tokenSaleStruct.baseRate;\n        // uint256 tokenBaseExactly = (tokenSaleRequest *\n        //     tokenSaleStruct.baseRate) / tokenSaleStruct.saleRate;\n        IERC20Token saleToken = IERC20Token(tokenSaleStruct.tokenSale);\n        // IERC20Token baseToken = IERC20Token(tokenSaleStruct.tokenBase);\n        address owner = _owners[tokenId];\n        require(\n            saleToken.allowance(owner, address(this)) >= tokenSaleRequest &&\n                (tokenSaleStruct.totalSale - tokenSaleStruct.totalSold) >=\n                tokenSaleRequest,\n            \"Not enough balance token sale for request\"\n        );\n        /// sender must be approve baseToken for poolSaleToken before transfer.\n        // baseToken.safeTransferFrom(_msgSender(), owner, tokenBaseExactly);\n        // saleToken.safeTransferFrom(\n        //     address(this),\n        //     _msgSender(),\n        //     tokenSaleRequest\n        // );\n        tokenSaleStruct.totalSold += tokenSaleRequest;\n    }\n}\n",
  "sourcePath": "/Volumes/Data/dev/learn/kardiachain/bye-bye-world/truffle/contracts/PoolSaleToken.sol",
  "compiler": {
    "name": "solc",
    "version": "0.8.10+commit.fc410830.Emscripten.clang"
  },
  "schemaVersion": "3.4.3",
  "updatedAt": "2021-11-14T04:28:19.939Z",
  "devdoc": {
    "details": "Smart Contract to handle Tokens Sale.",
    "kind": "dev",
    "methods": {
      "buySaleToken(uint256,uint256)": {
        "details": "send base token to owner of tokensalesend sale token to buyer."
      },
      "createTokenSale(address,address,uint256,uint256,uint256,uint256,uint256)": {
        "details": "create new TokenSale for Pool"
      },
      "getOwnerOfTokenSale(uint256)": {
        "details": "Get owner of creator token sale"
      },
      "tokenSaleInfo()": {
        "details": "Get list of Token sales"
      }
    },
    "version": 1
  },
  "userdoc": {
    "kind": "user",
    "methods": {},
    "version": 1
  }
}