{
  "contractName": "PoolSaleToken",
  "abi": [
    {
      "inputs": [
        {
          "internalType": "address",
          "name": "tokenSale_",
          "type": "address"
        },
        {
          "internalType": "address",
          "name": "tokenBase_",
          "type": "address"
        },
        {
          "internalType": "uint256",
          "name": "totalSale_",
          "type": "uint256"
        },
        {
          "internalType": "uint256",
          "name": "saleRate_",
          "type": "uint256"
        },
        {
          "internalType": "uint256",
          "name": "baseRate_",
          "type": "uint256"
        },
        {
          "internalType": "uint256",
          "name": "maxCap_",
          "type": "uint256"
        },
        {
          "internalType": "uint256",
          "name": "minCap_",
          "type": "uint256"
        }
      ],
      "name": "createTokenSale",
      "outputs": [],
      "stateMutability": "nonpayable",
      "type": "function"
    },
    {
      "inputs": [],
      "name": "tokenSaleInfo",
      "outputs": [
        {
          "components": [
            {
              "internalType": "address",
              "name": "tokenSale",
              "type": "address"
            },
            {
              "internalType": "address",
              "name": "tokenBase",
              "type": "address"
            },
            {
              "internalType": "uint256",
              "name": "totalSale",
              "type": "uint256"
            },
            {
              "internalType": "uint256",
              "name": "totalSold",
              "type": "uint256"
            },
            {
              "internalType": "uint256",
              "name": "saleRate",
              "type": "uint256"
            },
            {
              "internalType": "uint256",
              "name": "baseRate",
              "type": "uint256"
            },
            {
              "internalType": "uint256",
              "name": "maxCap",
              "type": "uint256"
            },
            {
              "internalType": "uint256",
              "name": "minCap",
              "type": "uint256"
            },
            {
              "internalType": "uint256",
              "name": "tokenId",
              "type": "uint256"
            },
            {
              "internalType": "bool",
              "name": "isActive",
              "type": "bool"
            }
          ],
          "internalType": "struct PoolSaleToken.TokenSale[]",
          "name": "",
          "type": "tuple[]"
        }
      ],
      "stateMutability": "view",
      "type": "function"
    },
    {
      "inputs": [
        {
          "internalType": "uint256",
          "name": "tokenId",
          "type": "uint256"
        }
      ],
      "name": "getOwnerOfTokenSale",
      "outputs": [
        {
          "internalType": "address",
          "name": "",
          "type": "address"
        }
      ],
      "stateMutability": "view",
      "type": "function"
    }
  ],
  "bytecode": "0x608060405234801561001057600080fd5b5061109d806100206000396000f3fe608060405234801561001057600080fd5b50600436106100415760003560e01c80630a1c4b02146100465780634a57991c14610076578063a815393714610092575b600080fd5b610060600480360381019061005b919061088a565b6100b0565b60405161006d91906108f8565b60405180910390f35b610090600480360381019061008b919061093f565b6100ec565b005b61009a610326565b6040516100a79190610b96565b60405180910390f35b600080600083815260200190815260200160002060009054906101000a900473ffffffffffffffffffffffffffffffffffffffff169050919050565b61011730868973ffffffffffffffffffffffffffffffffffffffff166104939092919063ffffffff16565b60016040518061014001604052808973ffffffffffffffffffffffffffffffffffffffff1681526020018873ffffffffffffffffffffffffffffffffffffffff1681526020018781526020016000815260200186815260200185815260200184815260200183815260200160025481526020016001151581525090806001815401808255809150506001900390600052602060002090600a020160009091909190915060008201518160000160006101000a81548173ffffffffffffffffffffffffffffffffffffffff021916908373ffffffffffffffffffffffffffffffffffffffff16021790555060208201518160010160006101000a81548173ffffffffffffffffffffffffffffffffffffffff021916908373ffffffffffffffffffffffffffffffffffffffff16021790555060408201518160020155606082015181600301556080820151816004015560a0820151816005015560c0820151816006015560e0820151816007015561010082015181600801556101208201518160090160006101000a81548160ff021916908315150217905550505033600080600254815260200190815260200160002060006101000a81548173ffffffffffffffffffffffffffffffffffffffff021916908373ffffffffffffffffffffffffffffffffffffffff1602179055506002600081548092919061031890610be7565b919050555050505050505050565b60606001805480602002602001604051908101604052809291908181526020016000905b8282101561048a57838290600052602060002090600a0201604051806101400160405290816000820160009054906101000a900473ffffffffffffffffffffffffffffffffffffffff1673ffffffffffffffffffffffffffffffffffffffff1673ffffffffffffffffffffffffffffffffffffffff1681526020016001820160009054906101000a900473ffffffffffffffffffffffffffffffffffffffff1673ffffffffffffffffffffffffffffffffffffffff1673ffffffffffffffffffffffffffffffffffffffff168152602001600282015481526020016003820154815260200160048201548152602001600582015481526020016006820154815260200160078201548152602001600882015481526020016009820160009054906101000a900460ff1615151515815250508152602001906001019061034a565b50505050905090565b600081148061051d575060008373ffffffffffffffffffffffffffffffffffffffff1663dd62ed3e30856040518363ffffffff1660e01b81526004016104da929190610c30565b602060405180830381865afa1580156104f7573d6000803e3d6000fd5b505050506040513d601f19601f8201168201806040525081019061051b9190610c6e565b145b61055c576040517f08c379a000000000000000000000000000000000000000000000000000000000815260040161055390610d1e565b60405180910390fd5b6105dd8363095ea7b360e01b848460405160240161057b929190610d4d565b604051602081830303815290604052907bffffffffffffffffffffffffffffffffffffffffffffffffffffffff19166020820180517bffffffffffffffffffffffffffffffffffffffffffffffffffffffff83818316178352505050506105e2565b505050565b6000610644826040518060400160405280602081526020017f5361666545524332303a206c6f772d6c6576656c2063616c6c206661696c65648152508573ffffffffffffffffffffffffffffffffffffffff166106a99092919063ffffffff16565b90506000815111156106a457808060200190518101906106649190610da2565b6106a3576040517f08c379a000000000000000000000000000000000000000000000000000000000815260040161069a90610e41565b60405180910390fd5b5b505050565b60606106b884846000856106c1565b90509392505050565b606082471015610706576040517f08c379a00000000000000000000000000000000000000000000000000000000081526004016106fd90610ed3565b60405180910390fd5b61070f856107d5565b61074e576040517f08c379a000000000000000000000000000000000000000000000000000000000815260040161074590610f3f565b60405180910390fd5b6000808673ffffffffffffffffffffffffffffffffffffffff1685876040516107779190610fd9565b60006040518083038185875af1925050503d80600081146107b4576040519150601f19603f3d011682016040523d82523d6000602084013e6107b9565b606091505b50915091506107c98282866107e8565b92505050949350505050565b600080823b905060008111915050919050565b606083156107f857829050610848565b60008351111561080b5782518084602001fd5b816040517f08c379a000000000000000000000000000000000000000000000000000000000815260040161083f9190611045565b60405180910390fd5b9392505050565b600080fd5b6000819050919050565b61086781610854565b811461087257600080fd5b50565b6000813590506108848161085e565b92915050565b6000602082840312156108a05761089f61084f565b5b60006108ae84828501610875565b91505092915050565b600073ffffffffffffffffffffffffffffffffffffffff82169050919050565b60006108e2826108b7565b9050919050565b6108f2816108d7565b82525050565b600060208201905061090d60008301846108e9565b92915050565b61091c816108d7565b811461092757600080fd5b50565b60008135905061093981610913565b92915050565b600080600080600080600060e0888a03121561095e5761095d61084f565b5b600061096c8a828b0161092a565b975050602061097d8a828b0161092a565b965050604061098e8a828b01610875565b955050606061099f8a828b01610875565b94505060806109b08a828b01610875565b93505060a06109c18a828b01610875565b92505060c06109d28a828b01610875565b91505092959891949750929550565b600081519050919050565b600082825260208201905092915050565b6000819050602082019050919050565b610a16816108d7565b82525050565b610a2581610854565b82525050565b60008115159050919050565b610a4081610a2b565b82525050565b61014082016000820151610a5d6000850182610a0d565b506020820151610a706020850182610a0d565b506040820151610a836040850182610a1c565b506060820151610a966060850182610a1c565b506080820151610aa96080850182610a1c565b5060a0820151610abc60a0850182610a1c565b5060c0820151610acf60c0850182610a1c565b5060e0820151610ae260e0850182610a1c565b50610100820151610af7610100850182610a1c565b50610120820151610b0c610120850182610a37565b50505050565b6000610b1e8383610a46565b6101408301905092915050565b6000602082019050919050565b6000610b43826109e1565b610b4d81856109ec565b9350610b58836109fd565b8060005b83811015610b89578151610b708882610b12565b9750610b7b83610b2b565b925050600181019050610b5c565b5085935050505092915050565b60006020820190508181036000830152610bb08184610b38565b905092915050565b7f4e487b7100000000000000000000000000000000000000000000000000000000600052601160045260246000fd5b6000610bf282610854565b91507fffffffffffffffffffffffffffffffffffffffffffffffffffffffffffffffff821415610c2557610c24610bb8565b5b600182019050919050565b6000604082019050610c4560008301856108e9565b610c5260208301846108e9565b9392505050565b600081519050610c688161085e565b92915050565b600060208284031215610c8457610c8361084f565b5b6000610c9284828501610c59565b91505092915050565b600082825260208201905092915050565b7f5361666545524332303a20617070726f76652066726f6d206e6f6e2d7a65726f60008201527f20616c6c6f77616e636500000000000000000000000000000000000000000000602082015250565b6000610d08602a83610c9b565b9150610d1382610cac565b604082019050919050565b60006020820190508181036000830152610d3781610cfb565b9050919050565b610d4781610854565b82525050565b6000604082019050610d6260008301856108e9565b610d6f6020830184610d3e565b9392505050565b610d7f81610a2b565b8114610d8a57600080fd5b50565b600081519050610d9c81610d76565b92915050565b600060208284031215610db857610db761084f565b5b6000610dc684828501610d8d565b91505092915050565b7f5361666545524332303a204552433230206f7065726174696f6e20646964206e60008201527f6f74207375636365656400000000000000000000000000000000000000000000602082015250565b6000610e2b602a83610c9b565b9150610e3682610dcf565b604082019050919050565b60006020820190508181036000830152610e5a81610e1e565b9050919050565b7f416464726573733a20696e73756666696369656e742062616c616e636520666f60008201527f722063616c6c0000000000000000000000000000000000000000000000000000602082015250565b6000610ebd602683610c9b565b9150610ec882610e61565b604082019050919050565b60006020820190508181036000830152610eec81610eb0565b9050919050565b7f416464726573733a2063616c6c20746f206e6f6e2d636f6e7472616374000000600082015250565b6000610f29601d83610c9b565b9150610f3482610ef3565b602082019050919050565b60006020820190508181036000830152610f5881610f1c565b9050919050565b600081519050919050565b600081905092915050565b60005b83811015610f93578082015181840152602081019050610f78565b83811115610fa2576000848401525b50505050565b6000610fb382610f5f565b610fbd8185610f6a565b9350610fcd818560208601610f75565b80840191505092915050565b6000610fe58284610fa8565b915081905092915050565b600081519050919050565b6000601f19601f8301169050919050565b600061101782610ff0565b6110218185610c9b565b9350611031818560208601610f75565b61103a81610ffb565b840191505092915050565b6000602082019050818103600083015261105f818461100c565b90509291505056fea264697066735822122024e63e30419e5bc6df1faf8065689bb1867a0e6bb7fe5d937a0437d1b77354e464736f6c634300080a0033",
  "immutableReferences": {},
  "source": "// SPDX-License-Identifier: MIT\npragma solidity ^0.8.9;\n\nimport \"./TokenFactory.sol\";\nimport \"./Address.sol\";\nimport \"./SafeERC20.sol\";\nimport \"./IERC20.sol\";\nimport \"./Token.sol\";\n\n/**\n * @dev Smart Contract to handle Tokens Sale.\n */\ncontract PoolSaleToken {\n    using SafeERC20 for IERC20Token;\n    // Token sale information\n    struct TokenSale {\n        address tokenSale;\n        address tokenBase;\n        uint256 totalSale;\n        uint256 totalSold;\n        uint256 saleRate;\n        uint256 baseRate;\n        uint256 maxCap;\n        uint256 minCap;\n        uint256 tokenId;\n        bool isActive;\n    }\n\n    // Mapping from token sale ID to owner address\n    mapping(uint256 => address) private _owners;\n\n    // List Token sale\n    TokenSale[] private _tokenSaleInfos;\n\n    // TokenSale length\n    uint256 private _tokenSaleLength;\n\n    /**\n     * @dev create new TokenSale for Pool\n     */\n\n    function createTokenSale(\n        address tokenSale_,\n        address tokenBase_,\n        uint256 totalSale_,\n        uint256 saleRate_,\n        uint256 baseRate_,\n        uint256 maxCap_,\n        uint256 minCap_\n    ) public virtual {\n        /// Appove token from msg.sender for pool sale  contract\n        IERC20Token(tokenSale_).safeApprove(address(this), totalSale_);\n        _tokenSaleInfos.push(\n            TokenSale({\n                tokenSale: tokenSale_,\n                tokenBase: tokenBase_,\n                totalSale: totalSale_,\n                totalSold: 0,\n                saleRate: saleRate_,\n                baseRate: baseRate_,\n                maxCap: maxCap_,\n                minCap: minCap_,\n                tokenId: _tokenSaleLength,\n                isActive: true\n            })\n        );\n        _owners[_tokenSaleLength] = msg.sender;\n        _tokenSaleLength++;\n    }\n\n    /**\n     *@dev Get list of Token sales\n     */\n    function tokenSaleInfo() public view virtual returns (TokenSale[] memory) {\n        return _tokenSaleInfos;\n    }\n\n    /**\n     * @dev Get owner of creator token sale\n     */\n\n    function getOwnerOfTokenSale(uint256 tokenId)\n        public\n        view\n        virtual\n        returns (address)\n    {\n        return _owners[tokenId];\n    }\n}\n",
  "sourcePath": "/Volumes/Data/dev/learn/kardiachain/bye-bye-world/truffle/contracts/PoolSaleToken.sol",
  "compiler": {
    "name": "solc",
    "version": "0.8.10+commit.fc410830.Emscripten.clang"
  },
  "schemaVersion": "3.4.3",
  "updatedAt": "2021-11-13T17:10:07.100Z",
  "devdoc": {
    "details": "Smart Contract to handle Tokens Sale.",
    "kind": "dev",
    "methods": {
      "createTokenSale(address,address,uint256,uint256,uint256,uint256,uint256)": {
        "details": "create new TokenSale for Pool"
      },
      "getOwnerOfTokenSale(uint256)": {
        "details": "Get owner of creator token sale"
      },
      "tokenSaleInfo()": {
        "details": "Get list of Token sales"
      }
    },
    "version": 1
  },
  "userdoc": {
    "kind": "user",
    "methods": {},
    "version": 1
  }
}