{
  "contractName": "TokenFactory",
  "abi": [
    {
      "inputs": [],
      "name": "tokensLength",
      "outputs": [
        {
          "internalType": "uint256",
          "name": "",
          "type": "uint256"
        }
      ],
      "stateMutability": "view",
      "type": "function"
    },
    {
      "inputs": [
        {
          "internalType": "address",
          "name": "creator",
          "type": "address"
        }
      ],
      "name": "tokenOf",
      "outputs": [
        {
          "internalType": "address",
          "name": "",
          "type": "address"
        }
      ],
      "stateMutability": "view",
      "type": "function"
    },
    {
      "inputs": [
        {
          "internalType": "string",
          "name": "name_",
          "type": "string"
        },
        {
          "internalType": "string",
          "name": "symbol_",
          "type": "string"
        },
        {
          "internalType": "string",
          "name": "url_",
          "type": "string"
        },
        {
          "internalType": "uint8",
          "name": "decimal_",
          "type": "uint8"
        },
        {
          "internalType": "uint256",
          "name": "totalSupply_",
          "type": "uint256"
        }
      ],
      "name": "create",
      "outputs": [
        {
          "internalType": "address",
          "name": "",
          "type": "address"
        }
      ],
      "stateMutability": "nonpayable",
      "type": "function"
    }
  ],
  "bytecode": "0x608060405234801561001057600080fd5b50612444806100206000396000f3fe60806040523480156200001157600080fd5b5060043610620000465760003560e01c806342ec38e2146200004b578063d92fc67b1462000081578063d975ac4014620000a3575b600080fd5b620000696004803603810190620000639190620002bc565b620000d9565b604051620000789190620002ff565b60405180910390f35b6200008b62000141565b6040516200009a919062000337565b60405180910390f35b620000c16004803603810190620000bb919062000525565b62000147565b604051620000d09190620002ff565b60405180910390f35b60008060008373ffffffffffffffffffffffffffffffffffffffff1673ffffffffffffffffffffffffffffffffffffffff16815260200190815260200160002060009054906101000a900473ffffffffffffffffffffffffffffffffffffffff169050919050565b60015481565b6000803387878786886040516200015e9062000235565b6200016f96959493929190620006ae565b604051809103906000f0801580156200018c573d6000803e3d6000fd5b5090506000819050806000803373ffffffffffffffffffffffffffffffffffffffff1673ffffffffffffffffffffffffffffffffffffffff16815260200190815260200160002060006101000a81548173ffffffffffffffffffffffffffffffffffffffff021916908373ffffffffffffffffffffffffffffffffffffffff160217905550600180546200022191906200075f565b600181905550809250505095945050505050565b611c5280620007bd83390190565b6000604051905090565b600080fd5b600080fd5b600073ffffffffffffffffffffffffffffffffffffffff82169050919050565b6000620002848262000257565b9050919050565b620002968162000277565b8114620002a257600080fd5b50565b600081359050620002b6816200028b565b92915050565b600060208284031215620002d557620002d46200024d565b5b6000620002e584828501620002a5565b91505092915050565b620002f98162000277565b82525050565b6000602082019050620003166000830184620002ee565b92915050565b6000819050919050565b62000331816200031c565b82525050565b60006020820190506200034e600083018462000326565b92915050565b600080fd5b600080fd5b6000601f19601f8301169050919050565b7f4e487b7100000000000000000000000000000000000000000000000000000000600052604160045260246000fd5b620003a9826200035e565b810181811067ffffffffffffffff82111715620003cb57620003ca6200036f565b5b80604052505050565b6000620003e062000243565b9050620003ee82826200039e565b919050565b600067ffffffffffffffff8211156200041157620004106200036f565b5b6200041c826200035e565b9050602081019050919050565b82818337600083830152505050565b60006200044f6200044984620003f3565b620003d4565b9050828152602081018484840111156200046e576200046d62000359565b5b6200047b84828562000429565b509392505050565b600082601f8301126200049b576200049a62000354565b5b8135620004ad84826020860162000438565b91505092915050565b600060ff82169050919050565b620004ce81620004b6565b8114620004da57600080fd5b50565b600081359050620004ee81620004c3565b92915050565b620004ff816200031c565b81146200050b57600080fd5b50565b6000813590506200051f81620004f4565b92915050565b600080600080600060a086880312156200054457620005436200024d565b5b600086013567ffffffffffffffff81111562000565576200056462000252565b5b620005738882890162000483565b955050602086013567ffffffffffffffff81111562000597576200059662000252565b5b620005a58882890162000483565b945050604086013567ffffffffffffffff811115620005c957620005c862000252565b5b620005d78882890162000483565b9350506060620005ea88828901620004dd565b9250506080620005fd888289016200050e565b9150509295509295909350565b600081519050919050565b600082825260208201905092915050565b60005b838110156200064657808201518184015260208101905062000629565b8381111562000656576000848401525b50505050565b600062000669826200060a565b62000675818562000615565b93506200068781856020860162000626565b62000692816200035e565b840191505092915050565b620006a881620004b6565b82525050565b600060c082019050620006c56000830189620002ee565b8181036020830152620006d981886200065c565b90508181036040830152620006ef81876200065c565b905081810360608301526200070581866200065c565b905062000716608083018562000326565b6200072560a08301846200069d565b979650505050505050565b7f4e487b7100000000000000000000000000000000000000000000000000000000600052601160045260246000fd5b60006200076c826200031c565b915062000779836200031c565b9250827fffffffffffffffffffffffffffffffffffffffffffffffffffffffffffffffff03821115620007b157620007b062000730565b5b82820190509291505056fe60806040523480156200001157600080fd5b5060405162001c5238038062001c5283398181016040528101906200003791906200045f565b85600260006101000a81548173ffffffffffffffffffffffffffffffffffffffff021916908373ffffffffffffffffffffffffffffffffffffffff16021790555084600490805190602001906200009092919062000134565b508360059080519060200190620000a992919062000134565b5080600660006101000a81548160ff021916908360ff160217905550816003819055508260079080519060200190620000e492919062000134565b50816000808873ffffffffffffffffffffffffffffffffffffffff1673ffffffffffffffffffffffffffffffffffffffff16815260200190815260200160002081905550505050505050620005bd565b828054620001429062000587565b90600052602060002090601f016020900481019282620001665760008555620001b2565b82601f106200018157805160ff1916838001178555620001b2565b82800160010185558215620001b2579182015b82811115620001b157825182559160200191906001019062000194565b5b509050620001c19190620001c5565b5090565b5b80821115620001e0576000816000905550600101620001c6565b5090565b6000604051905090565b600080fd5b600080fd5b600073ffffffffffffffffffffffffffffffffffffffff82169050919050565b60006200022582620001f8565b9050919050565b620002378162000218565b81146200024357600080fd5b50565b60008151905062000257816200022c565b92915050565b600080fd5b600080fd5b6000601f19601f8301169050919050565b7f4e487b7100000000000000000000000000000000000000000000000000000000600052604160045260246000fd5b620002b28262000267565b810181811067ffffffffffffffff82111715620002d457620002d362000278565b5b80604052505050565b6000620002e9620001e4565b9050620002f78282620002a7565b919050565b600067ffffffffffffffff8211156200031a576200031962000278565b5b620003258262000267565b9050602081019050919050565b60005b838110156200035257808201518184015260208101905062000335565b8381111562000362576000848401525b50505050565b60006200037f6200037984620002fc565b620002dd565b9050828152602081018484840111156200039e576200039d62000262565b5b620003ab84828562000332565b509392505050565b600082601f830112620003cb57620003ca6200025d565b5b8151620003dd84826020860162000368565b91505092915050565b6000819050919050565b620003fb81620003e6565b81146200040757600080fd5b50565b6000815190506200041b81620003f0565b92915050565b600060ff82169050919050565b620004398162000421565b81146200044557600080fd5b50565b60008151905062000459816200042e565b92915050565b60008060008060008060c087890312156200047f576200047e620001ee565b5b60006200048f89828a0162000246565b965050602087015167ffffffffffffffff811115620004b357620004b2620001f3565b5b620004c189828a01620003b3565b955050604087015167ffffffffffffffff811115620004e557620004e4620001f3565b5b620004f389828a01620003b3565b945050606087015167ffffffffffffffff811115620005175762000516620001f3565b5b6200052589828a01620003b3565b93505060806200053889828a016200040a565b92505060a06200054b89828a0162000448565b9150509295509295509295565b7f4e487b7100000000000000000000000000000000000000000000000000000000600052602260045260246000fd5b60006002820490506001821680620005a057607f821691505b60208210811415620005b757620005b662000558565b5b50919050565b61168580620005cd6000396000f3fe608060405234801561001057600080fd5b50600436106100ea5760003560e01c8063524f3f4c1161008c578063a457c2d711610066578063a457c2d714610263578063a9059cbb14610293578063dd62ed3e146102c3578063f47b7740146102f3576100ea565b8063524f3f4c146101f757806370a082311461021557806395d89b4114610245576100ea565b806318160ddd116100c857806318160ddd1461015b57806323b872dd14610179578063313ce567146101a957806339509351146101c7576100ea565b806302d05d3f146100ef57806306fdde031461010d578063095ea7b31461012b575b600080fd5b6100f7610315565b6040516101049190610e2f565b60405180910390f35b61011561033f565b6040516101229190610ee3565b60405180910390f35b61014560048036038101906101409190610f6c565b6103d1565b6040516101529190610fc7565b60405180910390f35b6101636103e8565b6040516101709190610ff1565b60405180910390f35b610193600480360381019061018e919061100c565b6103f2565b6040516101a09190610fc7565b60405180910390f35b6101b16104dc565b6040516101be919061107b565b60405180910390f35b6101e160048036038101906101dc9190610f6c565b6104f3565b6040516101ee9190610fc7565b60405180910390f35b6101ff610591565b60405161020c9190610ee3565b60405180910390f35b61022f600480360381019061022a9190611096565b610623565b60405161023c9190610ff1565b60405180910390f35b61024d61066b565b60405161025a9190610ee3565b60405180910390f35b61027d60048036038101906102789190610f6c565b6106fd565b60405161028a9190610fc7565b60405180910390f35b6102ad60048036038101906102a89190610f6c565b6107da565b6040516102ba9190610fc7565b60405180910390f35b6102dd60048036038101906102d891906110c3565b6107f1565b6040516102ea9190610ff1565b60405180910390f35b6102fb610878565b60405161030c959493929190611103565b60405180910390f35b6000600260009054906101000a900473ffffffffffffffffffffffffffffffffffffffff16905090565b60606004805461034e9061119a565b80601f016020809104026020016040519081016040528092919081815260200182805461037a9061119a565b80156103c75780601f1061039c576101008083540402835291602001916103c7565b820191906000526020600020905b8154815290600101906020018083116103aa57829003601f168201915b5050505050905090565b60006103de3384846109b8565b6001905092915050565b6000600354905090565b60006103ff848484610b83565b6000600160008673ffffffffffffffffffffffffffffffffffffffff1673ffffffffffffffffffffffffffffffffffffffff16815260200190815260200160002060003373ffffffffffffffffffffffffffffffffffffffff1673ffffffffffffffffffffffffffffffffffffffff168152602001908152602001600020549050828110156104c3576040517f08c379a00000000000000000000000000000000000000000000000000000000081526004016104ba9061123e565b60405180910390fd5b6104d085338584036109b8565b60019150509392505050565b6000600660009054906101000a900460ff16905090565b6000610587338484600160003373ffffffffffffffffffffffffffffffffffffffff1673ffffffffffffffffffffffffffffffffffffffff16815260200190815260200160002060008873ffffffffffffffffffffffffffffffffffffffff1673ffffffffffffffffffffffffffffffffffffffff16815260200190815260200160002054610582919061128d565b6109b8565b6001905092915050565b6060600780546105a09061119a565b80601f01602080910402602001604051908101604052809291908181526020018280546105cc9061119a565b80156106195780601f106105ee57610100808354040283529160200191610619565b820191906000526020600020905b8154815290600101906020018083116105fc57829003601f168201915b5050505050905090565b60008060008373ffffffffffffffffffffffffffffffffffffffff1673ffffffffffffffffffffffffffffffffffffffff168152602001908152602001600020549050919050565b60606005805461067a9061119a565b80601f01602080910402602001604051908101604052809291908181526020018280546106a69061119a565b80156106f35780601f106106c8576101008083540402835291602001916106f3565b820191906000526020600020905b8154815290600101906020018083116106d657829003601f168201915b5050505050905090565b600080600160003373ffffffffffffffffffffffffffffffffffffffff1673ffffffffffffffffffffffffffffffffffffffff16815260200190815260200160002060008573ffffffffffffffffffffffffffffffffffffffff1673ffffffffffffffffffffffffffffffffffffffff168152602001908152602001600020549050828110156107c2576040517f08c379a00000000000000000000000000000000000000000000000000000000081526004016107b990611355565b60405180910390fd5b6107cf33858584036109b8565b600191505092915050565b60006107e7338484610b83565b6001905092915050565b6000600160008473ffffffffffffffffffffffffffffffffffffffff1673ffffffffffffffffffffffffffffffffffffffff16815260200190815260200160002060008373ffffffffffffffffffffffffffffffffffffffff1673ffffffffffffffffffffffffffffffffffffffff16815260200190815260200160002054905092915050565b60608060008060606004805461088d9061119a565b80601f01602080910402602001604051908101604052809291908181526020018280546108b99061119a565b80156109065780601f106108db57610100808354040283529160200191610906565b820191906000526020600020905b8154815290600101906020018083116108e957829003601f168201915b505050505094506005805461091a9061119a565b80601f01602080910402602001604051908101604052809291908181526020018280546109469061119a565b80156109935780601f1061096857610100808354040283529160200191610993565b820191906000526020600020905b81548152906001019060200180831161097657829003601f168201915b50505050509350600660009054906101000a900460ff16925060035491509091929394565b600073ffffffffffffffffffffffffffffffffffffffff168373ffffffffffffffffffffffffffffffffffffffff161415610a28576040517f08c379a0000000000000000000000000000000000000000000000000000000008152600401610a1f906113e7565b60405180910390fd5b600073ffffffffffffffffffffffffffffffffffffffff168273ffffffffffffffffffffffffffffffffffffffff161415610a98576040517f08c379a0000000000000000000000000000000000000000000000000000000008152600401610a8f90611479565b60405180910390fd5b80600160008573ffffffffffffffffffffffffffffffffffffffff1673ffffffffffffffffffffffffffffffffffffffff16815260200190815260200160002060008473ffffffffffffffffffffffffffffffffffffffff1673ffffffffffffffffffffffffffffffffffffffff168152602001908152602001600020819055508173ffffffffffffffffffffffffffffffffffffffff168373ffffffffffffffffffffffffffffffffffffffff167f8c5be1e5ebec7d5bd14f71427d1e84f3dd0314c0f7b2291e5b200ac8c7c3b92583604051610b769190610ff1565b60405180910390a3505050565b600073ffffffffffffffffffffffffffffffffffffffff168373ffffffffffffffffffffffffffffffffffffffff161415610bf3576040517f08c379a0000000000000000000000000000000000000000000000000000000008152600401610bea9061150b565b60405180910390fd5b600073ffffffffffffffffffffffffffffffffffffffff168273ffffffffffffffffffffffffffffffffffffffff161415610c63576040517f08c379a0000000000000000000000000000000000000000000000000000000008152600401610c5a9061159d565b60405180910390fd5b60008060008573ffffffffffffffffffffffffffffffffffffffff1673ffffffffffffffffffffffffffffffffffffffff16815260200190815260200160002054905081811015610ce9576040517f08c379a0000000000000000000000000000000000000000000000000000000008152600401610ce09061162f565b60405180910390fd5b8181036000808673ffffffffffffffffffffffffffffffffffffffff1673ffffffffffffffffffffffffffffffffffffffff16815260200190815260200160002081905550816000808573ffffffffffffffffffffffffffffffffffffffff1673ffffffffffffffffffffffffffffffffffffffff1681526020019081526020016000206000828254610d7c919061128d565b925050819055508273ffffffffffffffffffffffffffffffffffffffff168473ffffffffffffffffffffffffffffffffffffffff167fddf252ad1be2c89b69c2b068fc378daa952ba7f163c4a11628f55a4df523b3ef84604051610de09190610ff1565b60405180910390a350505050565b600073ffffffffffffffffffffffffffffffffffffffff82169050919050565b6000610e1982610dee565b9050919050565b610e2981610e0e565b82525050565b6000602082019050610e446000830184610e20565b92915050565b600081519050919050565b600082825260208201905092915050565b60005b83811015610e84578082015181840152602081019050610e69565b83811115610e93576000848401525b50505050565b6000601f19601f8301169050919050565b6000610eb582610e4a565b610ebf8185610e55565b9350610ecf818560208601610e66565b610ed881610e99565b840191505092915050565b60006020820190508181036000830152610efd8184610eaa565b905092915050565b600080fd5b610f1381610e0e565b8114610f1e57600080fd5b50565b600081359050610f3081610f0a565b92915050565b6000819050919050565b610f4981610f36565b8114610f5457600080fd5b50565b600081359050610f6681610f40565b92915050565b60008060408385031215610f8357610f82610f05565b5b6000610f9185828601610f21565b9250506020610fa285828601610f57565b9150509250929050565b60008115159050919050565b610fc181610fac565b82525050565b6000602082019050610fdc6000830184610fb8565b92915050565b610feb81610f36565b82525050565b60006020820190506110066000830184610fe2565b92915050565b60008060006060848603121561102557611024610f05565b5b600061103386828701610f21565b935050602061104486828701610f21565b925050604061105586828701610f57565b9150509250925092565b600060ff82169050919050565b6110758161105f565b82525050565b6000602082019050611090600083018461106c565b92915050565b6000602082840312156110ac576110ab610f05565b5b60006110ba84828501610f21565b91505092915050565b600080604083850312156110da576110d9610f05565b5b60006110e885828601610f21565b92505060206110f985828601610f21565b9150509250929050565b600060a082019050818103600083015261111d8188610eaa565b905081810360208301526111318187610eaa565b9050611140604083018661106c565b61114d6060830185610fe2565b818103608083015261115f8184610eaa565b90509695505050505050565b7f4e487b7100000000000000000000000000000000000000000000000000000000600052602260045260246000fd5b600060028204905060018216806111b257607f821691505b602082108114156111c6576111c561116b565b5b50919050565b7f45524332303a207472616e7366657220616d6f756e742065786365656473206160008201527f6c6c6f77616e6365000000000000000000000000000000000000000000000000602082015250565b6000611228602883610e55565b9150611233826111cc565b604082019050919050565b600060208201905081810360008301526112578161121b565b9050919050565b7f4e487b7100000000000000000000000000000000000000000000000000000000600052601160045260246000fd5b600061129882610f36565b91506112a383610f36565b9250827fffffffffffffffffffffffffffffffffffffffffffffffffffffffffffffffff038211156112d8576112d761125e565b5b828201905092915050565b7f45524332303a2064656372656173656420616c6c6f77616e63652062656c6f7760008201527f207a65726f000000000000000000000000000000000000000000000000000000602082015250565b600061133f602583610e55565b915061134a826112e3565b604082019050919050565b6000602082019050818103600083015261136e81611332565b9050919050565b7f45524332303a20617070726f76652066726f6d20746865207a65726f2061646460008201527f7265737300000000000000000000000000000000000000000000000000000000602082015250565b60006113d1602483610e55565b91506113dc82611375565b604082019050919050565b60006020820190508181036000830152611400816113c4565b9050919050565b7f45524332303a20617070726f766520746f20746865207a65726f20616464726560008201527f7373000000000000000000000000000000000000000000000000000000000000602082015250565b6000611463602283610e55565b915061146e82611407565b604082019050919050565b6000602082019050818103600083015261149281611456565b9050919050565b7f45524332303a207472616e736665722066726f6d20746865207a65726f20616460008201527f6472657373000000000000000000000000000000000000000000000000000000602082015250565b60006114f5602583610e55565b915061150082611499565b604082019050919050565b60006020820190508181036000830152611524816114e8565b9050919050565b7f45524332303a207472616e7366657220746f20746865207a65726f206164647260008201527f6573730000000000000000000000000000000000000000000000000000000000602082015250565b6000611587602383610e55565b91506115928261152b565b604082019050919050565b600060208201905081810360008301526115b68161157a565b9050919050565b7f45524332303a207472616e7366657220616d6f756e742065786365656473206260008201527f616c616e63650000000000000000000000000000000000000000000000000000602082015250565b6000611619602683610e55565b9150611624826115bd565b604082019050919050565b600060208201905081810360008301526116488161160c565b905091905056fea26469706673582212207856e43fd2076aa93ef593434a257ddc924df178a5473d5bdb91eefb9453a8ba64736f6c634300080a0033a2646970667358221220f44143cfc31a2acf7c9a1e4ec7e40e306000b770bfbb2b69558beba17a5b72ff64736f6c634300080a0033",
  "immutableReferences": {},
  "source": "/// SPDX-License-Identifier: MIT\n\n/// @dev From version 0.8.0 solidity Integrated SafeMath\npragma solidity ^0.8.10;\n\ninterface TokenMetadata {\n    function tokenUrl() external view returns (string memory);\n\n    function creator() external view returns (address);\n\n    function information()\n        external\n        view\n        returns (\n            string memory name_,\n            string memory symbol_,\n            uint8 decimal_,\n            uint256 totalSupply_,\n            string memory url_\n        );\n}\n\ninterface IERC20 {\n    function name() external view returns (string memory);\n\n    function symbol() external view returns (string memory);\n\n    function decimals() external view returns (uint8);\n\n    function totalSupply() external view returns (uint256);\n\n    function balanceOf(address account) external view returns (uint256);\n\n    function transfer(address recipient, uint256 amount)\n        external\n        returns (bool);\n\n    function allowance(address owner, address spender)\n        external\n        view\n        returns (uint256);\n\n    function approve(address spender, uint256 amount) external returns (bool);\n\n    function transferFrom(\n        address sender,\n        address recipient,\n        uint256 amount\n    ) external returns (bool);\n\n    /**\n     * @dev Emitted when `value` tokens are moved from one account (`from`) to\n     * another (`to`).\n     *\n     * Note that `value` may be zero.\n     */\n    event Transfer(address indexed from, address indexed to, uint256 value);\n\n    /**\n     * @dev Emitted when the allowance of a `spender` for an `owner` is set by\n     * a call to {approve}. `value` is the new allowance.\n     */\n    event Approval(\n        address indexed owner,\n        address indexed spender,\n        uint256 value\n    );\n}\n\ncontract Token is IERC20, TokenMetadata {\n    mapping(address => uint256) private _balances;\n\n    mapping(address => mapping(address => uint256)) private _allowances;\n\n    address private _creator;\n    uint256 private _totalSupply;\n    string private _name;\n    string private _symbol;\n    uint8 private _decimal;\n    string private _url;\n\n    /**\n     *\n     * All four of these values are immutable: they can only be set once during\n     * construction.\n     */\n    constructor(\n        address creator_,\n        string memory name_,\n        string memory symbol_,\n        string memory url_,\n        uint256 totalSupply_,\n        uint8 decimal_\n    ) {\n        _creator = creator_;\n        _name = name_;\n        _symbol = symbol_;\n        _decimal = decimal_;\n        _totalSupply = totalSupply_;\n        _url = url_;\n        _balances[creator_] = totalSupply_;\n    }\n\n    /**\n     * @dev Returns the name of the token.\n     */\n    function name() public view virtual override returns (string memory) {\n        return _name;\n    }\n\n    /**\n     * @dev Returns the symbol of the token, usually a shorter version of the\n     * name.\n     */\n    function symbol() public view virtual override returns (string memory) {\n        return _symbol;\n    }\n\n    /**\n     * @dev Returns the number of decimals used to get its user representation.\n     * For example, if `decimals` equals `2`, a balance of `505` tokens should\n     * be displayed to a user as `5.05` (`505 / 10 ** 2`).\n     */\n    function decimals() public view virtual override returns (uint8) {\n        return _decimal;\n    }\n\n    /**\n     * @dev Get total supply of token.\n     */\n    function totalSupply() public view virtual override returns (uint256) {\n        return _totalSupply;\n    }\n\n    /**\n     * @dev Get Url image of token\n     */\n    function tokenUrl() public view virtual override returns (string memory) {\n        return _url;\n    }\n\n    /**\n     * @dev Get creator of token\n     */\n\n    function creator() public view virtual override returns (address) {\n        return _creator;\n    }\n\n    /**\n     * @dev Return all information of token\n     */\n\n    function information()\n        public\n        view\n        virtual\n        override\n        returns (\n            string memory name_,\n            string memory symbol_,\n            uint8 decimal_,\n            uint256 totalSupply_,\n            string memory url_\n        )\n    {\n        name_ = _name;\n        symbol_ = _symbol;\n        decimal_ = _decimal;\n        totalSupply_ = _totalSupply;\n        url_ = url_;\n    }\n\n    /**\n     * @dev Get balance token of address.\n     */\n    function balanceOf(address account)\n        public\n        view\n        virtual\n        override\n        returns (uint256)\n    {\n        return _balances[account];\n    }\n\n    /**\n     * @dev Moves `amount` tokens from the caller's account to `recipient`.\n     *\n     * Returns a boolean value indicating whether the operation succeeded.\n     *\n     * Emits a {Transfer} event.\n     */\n\n    function transfer(address recipient, uint256 amount)\n        public\n        virtual\n        override\n        returns (bool)\n    {\n        _transfer(msg.sender, recipient, amount);\n        return true;\n    }\n\n    /**\n     * @dev Returns the remaining number of tokens that `spender` will be\n     * allowed to spend on behalf of `owner` through {transferFrom}. This is\n     * zero by default.\n     *\n     * This value changes when {approve} or {transferFrom} are called.\n     */\n    function allowance(address owner, address spender)\n        public\n        view\n        virtual\n        override\n        returns (uint256)\n    {\n        return _allowances[owner][spender];\n    }\n\n    /**\n     * @dev Sets `amount` as the allowance of `spender` over the caller's tokens.\n     *\n     * Returns a boolean value indicating whether the operation succeeded.\n     *\n     * IMPORTANT: Beware that changing an allowance with this method brings the risk\n     * that someone may use both the old and the new allowance by unfortunate\n     * transaction ordering. One possible solution to mitigate this race\n     * condition is to first reduce the spender's allowance to 0 and set the\n     * desired value afterwards:\n     * https://github.com/ethereum/EIPs/issues/20#issuecomment-263524729\n     *\n     * Emits an {Approval} event.\n     */\n    function approve(address spender, uint256 amount)\n        public\n        virtual\n        override\n        returns (bool)\n    {\n        _approve(msg.sender, spender, amount);\n        return true;\n    }\n\n    /**\n     * @dev Moves `amount` tokens from `sender` to `recipient` using the\n     * allowance mechanism. `amount` is then deducted from the caller's\n     * allowance.\n     *\n     * Returns a boolean value indicating whether the operation succeeded.\n     *\n     * Emits a {Transfer} event.\n     */\n    function transferFrom(\n        address sender,\n        address recipient,\n        uint256 amount\n    ) public virtual override returns (bool) {\n        _transfer(sender, recipient, amount);\n        uint256 currentAllowance = _allowances[sender][msg.sender];\n        require(\n            currentAllowance >= amount,\n            \"ERC20: transfer amount exceeds allowance\"\n        );\n        unchecked {\n            _approve(sender, msg.sender, currentAllowance - amount);\n        }\n        return true;\n    }\n\n    /**\n     * @dev Atomically increases the allowance granted to `spender` by the caller.\n     *\n     * This is an alternative to {approve} that can be used as a mitigation for\n     * problems described in {IERC20-approve}.\n     *\n     * Emits an {Approval} event indicating the updated allowance.\n     *\n     * Requirements:\n     *\n     * - `spender` cannot be the zero address.\n     */\n    function increaseAllowance(address spender, uint256 addedValue)\n        public\n        virtual\n        returns (bool)\n    {\n        _approve(\n            msg.sender,\n            spender,\n            _allowances[msg.sender][spender] + addedValue\n        );\n        return true;\n    }\n\n    /**\n     * @dev Atomically decreases the allowance granted to `spender` by the caller.\n     *\n     * This is an alternative to {approve} that can be used as a mitigation for\n     * problems described in {IERC20-approve}.\n     *\n     * Emits an {Approval} event indicating the updated allowance.\n     *\n     * Requirements:\n     *\n     * - `spender` cannot be the zero address.\n     * - `spender` must have allowance for the caller of at least\n     * `subtractedValue`.\n     */\n    function decreaseAllowance(address spender, uint256 subtractedValue)\n        public\n        virtual\n        returns (bool)\n    {\n        uint256 currentAllowance = _allowances[msg.sender][spender];\n        require(\n            currentAllowance >= subtractedValue,\n            \"ERC20: decreased allowance below zero\"\n        );\n        unchecked {\n            _approve(msg.sender, spender, currentAllowance - subtractedValue);\n        }\n\n        return true;\n    }\n\n    /**\n     * @dev Moves `amount` of tokens from `sender` to `recipient`.\n     *\n     * This internal function is equivalent to {transfer}, and can be used to\n     * e.g. implement automatic token fees, slashing mechanisms, etc.\n     *\n     * Emits a {Transfer} event.\n     *\n     * Requirements:\n     *\n     * - `sender` cannot be the zero address.\n     * - `recipient` cannot be the zero address.\n     * - `sender` must have a balance of at least `amount`.\n     */\n    function _transfer(\n        address sender,\n        address recipient,\n        uint256 amount\n    ) internal virtual {\n        require(sender != address(0), \"ERC20: transfer from the zero address\");\n        require(recipient != address(0), \"ERC20: transfer to the zero address\");\n        uint256 senderBalance = _balances[sender];\n        require(\n            senderBalance >= amount,\n            \"ERC20: transfer amount exceeds balance\"\n        );\n        unchecked {\n            _balances[sender] = senderBalance - amount;\n        }\n        _balances[recipient] += amount;\n        emit Transfer(sender, recipient, amount);\n    }\n\n    /** @dev Creates `amount` tokens and assigns them to `account`, increasing\n     * the total supply.\n     *\n     * Emits a {Transfer} event with `from` set to the zero address.\n     *\n     * Requirements:\n     *\n     * - `account` cannot be the zero address.\n     */\n    function _mint(address account, uint256 amount) internal virtual {\n        require(account != address(0), \"ERC20: mint to the zero address\");\n        _totalSupply += amount;\n        _balances[account] += amount;\n        emit Transfer(address(0), account, amount);\n    }\n\n    /**\n     * @dev Destroys `amount` tokens from `account`, reducing the\n     * total supply.\n     *\n     * Emits a {Transfer} event with `to` set to the zero address.\n     *\n     * Requirements:\n     *\n     * - `account` cannot be the zero address.\n     * - `account` must have at least `amount` tokens.\n     */\n    function _burn(address account, uint256 amount) internal virtual {\n        require(account != address(0), \"ERC20: burn from the zero address\");\n        uint256 accountBalance = _balances[account];\n        require(accountBalance >= amount, \"ERC20: burn amount exceeds balance\");\n        unchecked {\n            _balances[account] = accountBalance - amount;\n        }\n        _totalSupply -= amount;\n\n        emit Transfer(account, address(0), amount);\n    }\n\n    /**\n     * @dev Sets `amount` as the allowance of `spender` over the `owner` s tokens.\n     *\n     * This internal function is equivalent to `approve`, and can be used to\n     * e.g. set automatic allowances for certain subsystems, etc.\n     *\n     * Emits an {Approval} event.\n     *\n     * Requirements:\n     *\n     * - `owner` cannot be the zero address.\n     * - `spender` cannot be the zero address.\n     */\n    function _approve(\n        address owner,\n        address spender,\n        uint256 amount\n    ) internal virtual {\n        require(owner != address(0), \"ERC20: approve from the zero address\");\n        require(spender != address(0), \"ERC20: approve to the zero address\");\n\n        _allowances[owner][spender] = amount;\n        emit Approval(owner, spender, amount);\n    }\n}\n\ncontract TokenFactory {\n    mapping(address => address) private tokens;\n    uint256 public tokensLength;\n\n    function tokenOf(address creator) public view virtual returns (address) {\n        return tokens[creator];\n    }\n\n    function create(\n        string memory name_,\n        string memory symbol_,\n        string memory url_,\n        uint8 decimal_,\n        uint256 totalSupply_\n    ) public virtual returns (address) {\n        Token newToken = new Token(\n            msg.sender,\n            name_,\n            symbol_,\n            url_,\n            totalSupply_,\n            decimal_\n        );\n        address addressNewToken = address(newToken);\n        tokens[msg.sender] = addressNewToken;\n        tokensLength = tokensLength + 1;\n        return addressNewToken;\n    }\n}\n",
  "sourcePath": "/Volumes/Data/dev/learn/kardiachain/bye-bye-world/truffle/contracts/TokenFactory.sol",
  "compiler": {
    "name": "solc",
    "version": "0.8.10+commit.fc410830.Emscripten.clang"
  },
  "schemaVersion": "3.4.3",
  "updatedAt": "2021-11-12T16:55:17.251Z",
  "devdoc": {
    "kind": "dev",
    "methods": {},
    "version": 1
  },
  "userdoc": {
    "kind": "user",
    "methods": {},
    "version": 1
  }
}