{
  "contractName": "TokenFactory",
  "abi": [
    {
      "inputs": [
        {
          "internalType": "address",
          "name": "creator",
          "type": "address"
        }
      ],
      "name": "tokenOf",
      "outputs": [
        {
          "internalType": "address",
          "name": "",
          "type": "address"
        }
      ],
      "stateMutability": "view",
      "type": "function"
    },
    {
      "inputs": [
        {
          "internalType": "address",
          "name": "token",
          "type": "address"
        }
      ],
      "name": "tokenUrl",
      "outputs": [
        {
          "internalType": "string",
          "name": "",
          "type": "string"
        }
      ],
      "stateMutability": "view",
      "type": "function"
    },
    {
      "inputs": [
        {
          "internalType": "string",
          "name": "name_",
          "type": "string"
        },
        {
          "internalType": "string",
          "name": "symbol_",
          "type": "string"
        },
        {
          "internalType": "string",
          "name": "url_",
          "type": "string"
        },
        {
          "internalType": "uint8",
          "name": "decimal_",
          "type": "uint8"
        },
        {
          "internalType": "uint256",
          "name": "totalSupply_",
          "type": "uint256"
        }
      ],
      "name": "create",
      "outputs": [
        {
          "internalType": "address",
          "name": "",
          "type": "address"
        }
      ],
      "stateMutability": "nonpayable",
      "type": "function"
    },
    {
      "inputs": [
        {
          "internalType": "address",
          "name": "token",
          "type": "address"
        }
      ],
      "name": "informationOfToken",
      "outputs": [
        {
          "internalType": "string",
          "name": "name_",
          "type": "string"
        },
        {
          "internalType": "string",
          "name": "symbol_",
          "type": "string"
        },
        {
          "internalType": "uint8",
          "name": "decimal_",
          "type": "uint8"
        },
        {
          "internalType": "uint256",
          "name": "totalSupply_",
          "type": "uint256"
        },
        {
          "internalType": "string",
          "name": "url_",
          "type": "string"
        }
      ],
      "stateMutability": "view",
      "type": "function"
    }
  ],
  "bytecode": "0x608060405234801561001057600080fd5b50612801806100206000396000f3fe60806040523480156200001157600080fd5b5060043610620000525760003560e01c8063390b4c1a146200005757806342ec38e2146200008d5780637f3a8fe914620000c3578063d975ac4014620000fd575b600080fd5b6200007560048036038101906200006f91906200079a565b62000133565b60405162000084919062000870565b60405180910390f35b620000ab6004803603810190620000a591906200079a565b6200020c565b604051620000ba9190620008a5565b60405180910390f35b620000e16004803603810190620000db91906200079a565b62000274565b604051620000f4959493929190620008fb565b60405180910390f35b6200011b600480360381019062000115919062000b20565b62000537565b6040516200012a9190620008a5565b60405180910390f35b6060600160008373ffffffffffffffffffffffffffffffffffffffff1673ffffffffffffffffffffffffffffffffffffffff1681526020019081526020016000208054620001819062000c34565b80601f0160208091040260200160405190810160405280929190818152602001828054620001af9062000c34565b8015620002005780601f10620001d45761010080835404028352916020019162000200565b820191906000526020600020905b815481529060010190602001808311620001e257829003601f168201915b50505050509050919050565b60008060008373ffffffffffffffffffffffffffffffffffffffff1673ffffffffffffffffffffffffffffffffffffffff16815260200190815260200160002060009054906101000a900473ffffffffffffffffffffffffffffffffffffffff169050919050565b606080600080606060008690508073ffffffffffffffffffffffffffffffffffffffff166306fdde036040518163ffffffff1660e01b8152600401600060405180830381865afa158015620002cd573d6000803e3d6000fd5b505050506040513d6000823e3d601f19601f82011682018060405250810190620002f8919062000ce8565b95508073ffffffffffffffffffffffffffffffffffffffff166395d89b416040518163ffffffff1660e01b8152600401600060405180830381865afa15801562000346573d6000803e3d6000fd5b505050506040513d6000823e3d601f19601f8201168201806040525081019062000371919062000ce8565b94508073ffffffffffffffffffffffffffffffffffffffff1663313ce5676040518163ffffffff1660e01b8152600401602060405180830381865afa158015620003bf573d6000803e3d6000fd5b505050506040513d601f19601f82011682018060405250810190620003e5919062000d50565b93508073ffffffffffffffffffffffffffffffffffffffff166318160ddd6040518163ffffffff1660e01b8152600401602060405180830381865afa15801562000433573d6000803e3d6000fd5b505050506040513d601f19601f8201168201806040525081019062000459919062000d99565b9250600160008873ffffffffffffffffffffffffffffffffffffffff1673ffffffffffffffffffffffffffffffffffffffff1681526020019081526020016000208054620004a79062000c34565b80601f0160208091040260200160405190810160405280929190818152602001828054620004d59062000c34565b8015620005265780601f10620004fa5761010080835404028352916020019162000526565b820191906000526020600020905b8154815290600101906020018083116200050857829003601f168201915b505050505091505091939590929450565b60008033878786866040516200054d9062000663565b6200055d95949392919062000dcb565b604051809103906000f0801580156200057a573d6000803e3d6000fd5b5090506000819050806000803373ffffffffffffffffffffffffffffffffffffffff1673ffffffffffffffffffffffffffffffffffffffff16815260200190815260200160002060006101000a81548173ffffffffffffffffffffffffffffffffffffffff021916908373ffffffffffffffffffffffffffffffffffffffff16021790555085600160008373ffffffffffffffffffffffffffffffffffffffff1673ffffffffffffffffffffffffffffffffffffffff16815260200190815260200160002090805190602001906200065492919062000671565b50809250505095945050505050565b6119958062000e3783390190565b8280546200067f9062000c34565b90600052602060002090601f016020900481019282620006a35760008555620006ef565b82601f10620006be57805160ff1916838001178555620006ef565b82800160010185558215620006ef579182015b82811115620006ee578251825591602001919060010190620006d1565b5b509050620006fe919062000702565b5090565b5b808211156200071d57600081600090555060010162000703565b5090565b6000604051905090565b600080fd5b600080fd5b600073ffffffffffffffffffffffffffffffffffffffff82169050919050565b6000620007628262000735565b9050919050565b620007748162000755565b81146200078057600080fd5b50565b600081359050620007948162000769565b92915050565b600060208284031215620007b357620007b26200072b565b5b6000620007c38482850162000783565b91505092915050565b600081519050919050565b600082825260208201905092915050565b60005b8381101562000808578082015181840152602081019050620007eb565b8381111562000818576000848401525b50505050565b6000601f19601f8301169050919050565b60006200083c82620007cc565b620008488185620007d7565b93506200085a818560208601620007e8565b62000865816200081e565b840191505092915050565b600060208201905081810360008301526200088c81846200082f565b905092915050565b6200089f8162000755565b82525050565b6000602082019050620008bc600083018462000894565b92915050565b600060ff82169050919050565b620008da81620008c2565b82525050565b6000819050919050565b620008f581620008e0565b82525050565b600060a08201905081810360008301526200091781886200082f565b905081810360208301526200092d81876200082f565b90506200093e6040830186620008cf565b6200094d6060830185620008ea565b81810360808301526200096181846200082f565b90509695505050505050565b600080fd5b600080fd5b7f4e487b7100000000000000000000000000000000000000000000000000000000600052604160045260246000fd5b620009b1826200081e565b810181811067ffffffffffffffff82111715620009d357620009d262000977565b5b80604052505050565b6000620009e862000721565b9050620009f68282620009a6565b919050565b600067ffffffffffffffff82111562000a195762000a1862000977565b5b62000a24826200081e565b9050602081019050919050565b82818337600083830152505050565b600062000a5762000a5184620009fb565b620009dc565b90508281526020810184848401111562000a765762000a7562000972565b5b62000a8384828562000a31565b509392505050565b600082601f83011262000aa35762000aa26200096d565b5b813562000ab584826020860162000a40565b91505092915050565b62000ac981620008c2565b811462000ad557600080fd5b50565b60008135905062000ae98162000abe565b92915050565b62000afa81620008e0565b811462000b0657600080fd5b50565b60008135905062000b1a8162000aef565b92915050565b600080600080600060a0868803121562000b3f5762000b3e6200072b565b5b600086013567ffffffffffffffff81111562000b605762000b5f62000730565b5b62000b6e8882890162000a8b565b955050602086013567ffffffffffffffff81111562000b925762000b9162000730565b5b62000ba08882890162000a8b565b945050604086013567ffffffffffffffff81111562000bc45762000bc362000730565b5b62000bd28882890162000a8b565b935050606062000be58882890162000ad8565b925050608062000bf88882890162000b09565b9150509295509295909350565b7f4e487b7100000000000000000000000000000000000000000000000000000000600052602260045260246000fd5b6000600282049050600182168062000c4d57607f821691505b6020821081141562000c645762000c6362000c05565b5b50919050565b600062000c8162000c7b84620009fb565b620009dc565b90508281526020810184848401111562000ca05762000c9f62000972565b5b62000cad848285620007e8565b509392505050565b600082601f83011262000ccd5762000ccc6200096d565b5b815162000cdf84826020860162000c6a565b91505092915050565b60006020828403121562000d015762000d006200072b565b5b600082015167ffffffffffffffff81111562000d225762000d2162000730565b5b62000d308482850162000cb5565b91505092915050565b60008151905062000d4a8162000abe565b92915050565b60006020828403121562000d695762000d686200072b565b5b600062000d798482850162000d39565b91505092915050565b60008151905062000d938162000aef565b92915050565b60006020828403121562000db25762000db16200072b565b5b600062000dc28482850162000d82565b91505092915050565b600060a08201905062000de2600083018862000894565b818103602083015262000df681876200082f565b9050818103604083015262000e0c81866200082f565b905062000e1d6060830185620008cf565b62000e2c6080830184620008ea565b969550505050505056fe60806040523480156200001157600080fd5b506040516200199538038062001995833981810160405281019062000037919062000445565b84600260006101000a81548173ffffffffffffffffffffffffffffffffffffffff021916908373ffffffffffffffffffffffffffffffffffffffff1602179055508360049080519060200190620000909291906200011a565b508260059080519060200190620000a99291906200011a565b5081600660006101000a81548160ff021916908360ff16021790555080600381905550806000808773ffffffffffffffffffffffffffffffffffffffff1673ffffffffffffffffffffffffffffffffffffffff16815260200190815260200160002081905550505050505062000570565b82805462000128906200053a565b90600052602060002090601f0160209004810192826200014c576000855562000198565b82601f106200016757805160ff191683800117855562000198565b8280016001018555821562000198579182015b82811115620001975782518255916020019190600101906200017a565b5b509050620001a79190620001ab565b5090565b5b80821115620001c6576000816000905550600101620001ac565b5090565b6000604051905090565b600080fd5b600080fd5b600073ffffffffffffffffffffffffffffffffffffffff82169050919050565b60006200020b82620001de565b9050919050565b6200021d81620001fe565b81146200022957600080fd5b50565b6000815190506200023d8162000212565b92915050565b600080fd5b600080fd5b6000601f19601f8301169050919050565b7f4e487b7100000000000000000000000000000000000000000000000000000000600052604160045260246000fd5b62000298826200024d565b810181811067ffffffffffffffff82111715620002ba57620002b96200025e565b5b80604052505050565b6000620002cf620001ca565b9050620002dd82826200028d565b919050565b600067ffffffffffffffff8211156200030057620002ff6200025e565b5b6200030b826200024d565b9050602081019050919050565b60005b83811015620003385780820151818401526020810190506200031b565b8381111562000348576000848401525b50505050565b6000620003656200035f84620002e2565b620002c3565b90508281526020810184848401111562000384576200038362000248565b5b6200039184828562000318565b509392505050565b600082601f830112620003b157620003b062000243565b5b8151620003c38482602086016200034e565b91505092915050565b600060ff82169050919050565b620003e481620003cc565b8114620003f057600080fd5b50565b6000815190506200040481620003d9565b92915050565b6000819050919050565b6200041f816200040a565b81146200042b57600080fd5b50565b6000815190506200043f8162000414565b92915050565b600080600080600060a08688031215620004645762000463620001d4565b5b600062000474888289016200022c565b955050602086015167ffffffffffffffff811115620004985762000497620001d9565b5b620004a68882890162000399565b945050604086015167ffffffffffffffff811115620004ca57620004c9620001d9565b5b620004d88882890162000399565b9350506060620004eb88828901620003f3565b9250506080620004fe888289016200042e565b9150509295509295909350565b7f4e487b7100000000000000000000000000000000000000000000000000000000600052602260045260246000fd5b600060028204905060018216806200055357607f821691505b602082108114156200056a57620005696200050b565b5b50919050565b61141580620005806000396000f3fe608060405234801561001057600080fd5b50600436106100b45760003560e01c80633950935111610071578063395093511461019157806370a08231146101c157806395d89b41146101f1578063a457c2d71461020f578063a9059cbb1461023f578063dd62ed3e1461026f576100b4565b806302d05d3f146100b957806306fdde03146100d7578063095ea7b3146100f557806318160ddd1461012557806323b872dd14610143578063313ce56714610173575b600080fd5b6100c161029f565b6040516100ce9190610c27565b60405180910390f35b6100df6102c9565b6040516100ec9190610cdb565b60405180910390f35b61010f600480360381019061010a9190610d64565b61035b565b60405161011c9190610dbf565b60405180910390f35b61012d610379565b60405161013a9190610de9565b60405180910390f35b61015d60048036038101906101589190610e04565b610383565b60405161016a9190610dbf565b60405180910390f35b61017b61047b565b6040516101889190610e73565b60405180910390f35b6101ab60048036038101906101a69190610d64565b610492565b6040516101b89190610dbf565b60405180910390f35b6101db60048036038101906101d69190610e8e565b61053e565b6040516101e89190610de9565b60405180910390f35b6101f9610586565b6040516102069190610cdb565b60405180910390f35b61022960048036038101906102249190610d64565b610618565b6040516102369190610dbf565b60405180910390f35b61025960048036038101906102549190610d64565b610703565b6040516102669190610dbf565b60405180910390f35b61028960048036038101906102849190610ebb565b610721565b6040516102969190610de9565b60405180910390f35b6000600260009054906101000a900473ffffffffffffffffffffffffffffffffffffffff16905090565b6060600480546102d890610f2a565b80601f016020809104026020016040519081016040528092919081815260200182805461030490610f2a565b80156103515780601f1061032657610100808354040283529160200191610351565b820191906000526020600020905b81548152906001019060200180831161033457829003601f168201915b5050505050905090565b600061036f6103686107a8565b84846107b0565b6001905092915050565b6000600354905090565b600061039084848461097b565b6000600160008673ffffffffffffffffffffffffffffffffffffffff1673ffffffffffffffffffffffffffffffffffffffff16815260200190815260200160002060006103db6107a8565b73ffffffffffffffffffffffffffffffffffffffff1673ffffffffffffffffffffffffffffffffffffffff1681526020019081526020016000205490508281101561045b576040517f08c379a000000000000000000000000000000000000000000000000000000000815260040161045290610fce565b60405180910390fd5b61046f856104676107a8565b8584036107b0565b60019150509392505050565b6000600660009054906101000a900460ff16905090565b600061053461049f6107a8565b8484600160006104ad6107a8565b73ffffffffffffffffffffffffffffffffffffffff1673ffffffffffffffffffffffffffffffffffffffff16815260200190815260200160002060008873ffffffffffffffffffffffffffffffffffffffff1673ffffffffffffffffffffffffffffffffffffffff1681526020019081526020016000205461052f919061101d565b6107b0565b6001905092915050565b60008060008373ffffffffffffffffffffffffffffffffffffffff1673ffffffffffffffffffffffffffffffffffffffff168152602001908152602001600020549050919050565b60606005805461059590610f2a565b80601f01602080910402602001604051908101604052809291908181526020018280546105c190610f2a565b801561060e5780601f106105e35761010080835404028352916020019161060e565b820191906000526020600020905b8154815290600101906020018083116105f157829003601f168201915b5050505050905090565b600080600160006106276107a8565b73ffffffffffffffffffffffffffffffffffffffff1673ffffffffffffffffffffffffffffffffffffffff16815260200190815260200160002060008573ffffffffffffffffffffffffffffffffffffffff1673ffffffffffffffffffffffffffffffffffffffff168152602001908152602001600020549050828110156106e4576040517f08c379a00000000000000000000000000000000000000000000000000000000081526004016106db906110e5565b60405180910390fd5b6106f86106ef6107a8565b858584036107b0565b600191505092915050565b60006107176107106107a8565b848461097b565b6001905092915050565b6000600160008473ffffffffffffffffffffffffffffffffffffffff1673ffffffffffffffffffffffffffffffffffffffff16815260200190815260200160002060008373ffffffffffffffffffffffffffffffffffffffff1673ffffffffffffffffffffffffffffffffffffffff16815260200190815260200160002054905092915050565b600033905090565b600073ffffffffffffffffffffffffffffffffffffffff168373ffffffffffffffffffffffffffffffffffffffff161415610820576040517f08c379a000000000000000000000000000000000000000000000000000000000815260040161081790611177565b60405180910390fd5b600073ffffffffffffffffffffffffffffffffffffffff168273ffffffffffffffffffffffffffffffffffffffff161415610890576040517f08c379a000000000000000000000000000000000000000000000000000000000815260040161088790611209565b60405180910390fd5b80600160008573ffffffffffffffffffffffffffffffffffffffff1673ffffffffffffffffffffffffffffffffffffffff16815260200190815260200160002060008473ffffffffffffffffffffffffffffffffffffffff1673ffffffffffffffffffffffffffffffffffffffff168152602001908152602001600020819055508173ffffffffffffffffffffffffffffffffffffffff168373ffffffffffffffffffffffffffffffffffffffff167f8c5be1e5ebec7d5bd14f71427d1e84f3dd0314c0f7b2291e5b200ac8c7c3b9258360405161096e9190610de9565b60405180910390a3505050565b600073ffffffffffffffffffffffffffffffffffffffff168373ffffffffffffffffffffffffffffffffffffffff1614156109eb576040517f08c379a00000000000000000000000000000000000000000000000000000000081526004016109e29061129b565b60405180910390fd5b600073ffffffffffffffffffffffffffffffffffffffff168273ffffffffffffffffffffffffffffffffffffffff161415610a5b576040517f08c379a0000000000000000000000000000000000000000000000000000000008152600401610a529061132d565b60405180910390fd5b60008060008573ffffffffffffffffffffffffffffffffffffffff1673ffffffffffffffffffffffffffffffffffffffff16815260200190815260200160002054905081811015610ae1576040517f08c379a0000000000000000000000000000000000000000000000000000000008152600401610ad8906113bf565b60405180910390fd5b8181036000808673ffffffffffffffffffffffffffffffffffffffff1673ffffffffffffffffffffffffffffffffffffffff16815260200190815260200160002081905550816000808573ffffffffffffffffffffffffffffffffffffffff1673ffffffffffffffffffffffffffffffffffffffff1681526020019081526020016000206000828254610b74919061101d565b925050819055508273ffffffffffffffffffffffffffffffffffffffff168473ffffffffffffffffffffffffffffffffffffffff167fddf252ad1be2c89b69c2b068fc378daa952ba7f163c4a11628f55a4df523b3ef84604051610bd89190610de9565b60405180910390a350505050565b600073ffffffffffffffffffffffffffffffffffffffff82169050919050565b6000610c1182610be6565b9050919050565b610c2181610c06565b82525050565b6000602082019050610c3c6000830184610c18565b92915050565b600081519050919050565b600082825260208201905092915050565b60005b83811015610c7c578082015181840152602081019050610c61565b83811115610c8b576000848401525b50505050565b6000601f19601f8301169050919050565b6000610cad82610c42565b610cb78185610c4d565b9350610cc7818560208601610c5e565b610cd081610c91565b840191505092915050565b60006020820190508181036000830152610cf58184610ca2565b905092915050565b600080fd5b610d0b81610c06565b8114610d1657600080fd5b50565b600081359050610d2881610d02565b92915050565b6000819050919050565b610d4181610d2e565b8114610d4c57600080fd5b50565b600081359050610d5e81610d38565b92915050565b60008060408385031215610d7b57610d7a610cfd565b5b6000610d8985828601610d19565b9250506020610d9a85828601610d4f565b9150509250929050565b60008115159050919050565b610db981610da4565b82525050565b6000602082019050610dd46000830184610db0565b92915050565b610de381610d2e565b82525050565b6000602082019050610dfe6000830184610dda565b92915050565b600080600060608486031215610e1d57610e1c610cfd565b5b6000610e2b86828701610d19565b9350506020610e3c86828701610d19565b9250506040610e4d86828701610d4f565b9150509250925092565b600060ff82169050919050565b610e6d81610e57565b82525050565b6000602082019050610e886000830184610e64565b92915050565b600060208284031215610ea457610ea3610cfd565b5b6000610eb284828501610d19565b91505092915050565b60008060408385031215610ed257610ed1610cfd565b5b6000610ee085828601610d19565b9250506020610ef185828601610d19565b9150509250929050565b7f4e487b7100000000000000000000000000000000000000000000000000000000600052602260045260246000fd5b60006002820490506001821680610f4257607f821691505b60208210811415610f5657610f55610efb565b5b50919050565b7f45524332303a207472616e7366657220616d6f756e742065786365656473206160008201527f6c6c6f77616e6365000000000000000000000000000000000000000000000000602082015250565b6000610fb8602883610c4d565b9150610fc382610f5c565b604082019050919050565b60006020820190508181036000830152610fe781610fab565b9050919050565b7f4e487b7100000000000000000000000000000000000000000000000000000000600052601160045260246000fd5b600061102882610d2e565b915061103383610d2e565b9250827fffffffffffffffffffffffffffffffffffffffffffffffffffffffffffffffff0382111561106857611067610fee565b5b828201905092915050565b7f45524332303a2064656372656173656420616c6c6f77616e63652062656c6f7760008201527f207a65726f000000000000000000000000000000000000000000000000000000602082015250565b60006110cf602583610c4d565b91506110da82611073565b604082019050919050565b600060208201905081810360008301526110fe816110c2565b9050919050565b7f45524332303a20617070726f76652066726f6d20746865207a65726f2061646460008201527f7265737300000000000000000000000000000000000000000000000000000000602082015250565b6000611161602483610c4d565b915061116c82611105565b604082019050919050565b6000602082019050818103600083015261119081611154565b9050919050565b7f45524332303a20617070726f766520746f20746865207a65726f20616464726560008201527f7373000000000000000000000000000000000000000000000000000000000000602082015250565b60006111f3602283610c4d565b91506111fe82611197565b604082019050919050565b60006020820190508181036000830152611222816111e6565b9050919050565b7f45524332303a207472616e736665722066726f6d20746865207a65726f20616460008201527f6472657373000000000000000000000000000000000000000000000000000000602082015250565b6000611285602583610c4d565b915061129082611229565b604082019050919050565b600060208201905081810360008301526112b481611278565b9050919050565b7f45524332303a207472616e7366657220746f20746865207a65726f206164647260008201527f6573730000000000000000000000000000000000000000000000000000000000602082015250565b6000611317602383610c4d565b9150611322826112bb565b604082019050919050565b600060208201905081810360008301526113468161130a565b9050919050565b7f45524332303a207472616e7366657220616d6f756e742065786365656473206260008201527f616c616e63650000000000000000000000000000000000000000000000000000602082015250565b60006113a9602683610c4d565b91506113b48261134d565b604082019050919050565b600060208201905081810360008301526113d88161139c565b905091905056fea2646970667358221220d2a88fe9d851722a5e70beae406124d5d17b5e98fe52c6464c4dca56c6fc12e064736f6c634300080a0033a2646970667358221220be94b84e36087716e51bd330921c25ef3808419313e186494f45c9df99ce70e464736f6c634300080a0033",
  "immutableReferences": {},
  "source": "/// SPDX-License-Identifier: MIT\n/**\n *@dev From version 0.8.0 solidity Integrated SafeMath\n */\npragma solidity ^0.8.10;\n\nimport \"./IERC20.sol\";\nimport \"./Token.sol\";\n\n/**\n * @dev Contract handle create a new Token.\n */\n\ncontract TokenFactory {\n    // Mapping from creator to token address.\n    mapping(address => address) private _tokens;\n\n    // Mapping from token to url.\n    mapping(address => string) private _urls;\n\n    /**\n     * @dev Return token address latest of creator.\n     */\n    function tokenOf(address creator) public view virtual returns (address) {\n        return _tokens[creator];\n    }\n\n    function tokenUrl(address token)\n        public\n        view\n        virtual\n        returns (string memory)\n    {\n        return _urls[token];\n    }\n\n    /**\n     *@dev Create New Token.\n     */\n    function create(\n        string memory name_,\n        string memory symbol_,\n        string memory url_,\n        uint8 decimal_,\n        uint256 totalSupply_\n    ) public virtual returns (address) {\n        Token newToken = new Token(\n            msg.sender,\n            name_,\n            symbol_,\n            decimal_,\n            totalSupply_\n        );\n        address addressNewToken = address(newToken);\n        _tokens[msg.sender] = addressNewToken;\n        _urls[addressNewToken] = url_;\n        return addressNewToken;\n    }\n\n    /**\n     * @dev Return all information of token\n     */\n\n    function informationOfToken(address token)\n        public\n        view\n        virtual\n        returns (\n            string memory name_,\n            string memory symbol_,\n            uint8 decimal_,\n            uint256 totalSupply_,\n            string memory url_\n        )\n    {\n        IERC20Token tokenContract = IERC20Token(token);\n        name_ = tokenContract.name();\n        symbol_ = tokenContract.symbol();\n        decimal_ = tokenContract.decimals();\n        totalSupply_ = tokenContract.totalSupply();\n        url_ = _urls[token];\n    }\n}\n",
  "sourcePath": "/Volumes/Data/dev/learn/kardiachain/bye-bye-world/truffle/contracts/TokenFactory.sol",
  "compiler": {
    "name": "solc",
    "version": "0.8.10+commit.fc410830.Emscripten.clang"
  },
  "schemaVersion": "3.4.3",
  "updatedAt": "2021-11-13T17:10:07.115Z",
  "devdoc": {
    "details": "Contract handle create a new Token.",
    "kind": "dev",
    "methods": {
      "create(string,string,string,uint8,uint256)": {
        "details": "Create New Token."
      },
      "informationOfToken(address)": {
        "details": "Return all information of token"
      },
      "tokenOf(address)": {
        "details": "Return token address latest of creator."
      }
    },
    "version": 1
  },
  "userdoc": {
    "kind": "user",
    "methods": {},
    "version": 1
  }
}