{
  "contractName": "KeeyTokenSale",
  "abi": [
    {
      "inputs": [
        {
          "internalType": "contract KeeyToken",
          "name": "_token",
          "type": "address"
        }
      ],
      "stateMutability": "nonpayable",
      "type": "constructor"
    },
    {
      "anonymous": false,
      "inputs": [
        {
          "indexed": false,
          "internalType": "address",
          "name": "_buyer",
          "type": "address"
        },
        {
          "indexed": false,
          "internalType": "uint256",
          "name": "_amount",
          "type": "uint256"
        }
      ],
      "name": "Sell",
      "type": "event"
    },
    {
      "inputs": [],
      "name": "admin",
      "outputs": [
        {
          "internalType": "address payable",
          "name": "",
          "type": "address"
        }
      ],
      "stateMutability": "view",
      "type": "function"
    },
    {
      "inputs": [],
      "name": "token",
      "outputs": [
        {
          "internalType": "contract KeeyToken",
          "name": "",
          "type": "address"
        }
      ],
      "stateMutability": "view",
      "type": "function"
    },
    {
      "inputs": [],
      "name": "tokenPriceUSD",
      "outputs": [
        {
          "internalType": "int256",
          "name": "",
          "type": "int256"
        }
      ],
      "stateMutability": "view",
      "type": "function"
    },
    {
      "inputs": [],
      "name": "tokensSold",
      "outputs": [
        {
          "internalType": "uint256",
          "name": "",
          "type": "uint256"
        }
      ],
      "stateMutability": "view",
      "type": "function"
    },
    {
      "inputs": [
        {
          "internalType": "uint256",
          "name": "",
          "type": "uint256"
        }
      ],
      "name": "transaction",
      "outputs": [
        {
          "internalType": "address",
          "name": "buyer",
          "type": "address"
        },
        {
          "internalType": "uint256",
          "name": "amount",
          "type": "uint256"
        }
      ],
      "stateMutability": "view",
      "type": "function"
    },
    {
      "inputs": [],
      "name": "transactionCount",
      "outputs": [
        {
          "internalType": "uint256",
          "name": "",
          "type": "uint256"
        }
      ],
      "stateMutability": "view",
      "type": "function"
    },
    {
      "inputs": [],
      "name": "getETHPrice",
      "outputs": [
        {
          "internalType": "int256",
          "name": "",
          "type": "int256"
        }
      ],
      "stateMutability": "view",
      "type": "function"
    },
    {
      "inputs": [],
      "name": "getKeeyTokenPriceInETH",
      "outputs": [
        {
          "internalType": "int256",
          "name": "",
          "type": "int256"
        }
      ],
      "stateMutability": "view",
      "type": "function"
    },
    {
      "inputs": [
        {
          "internalType": "uint256",
          "name": "_amount",
          "type": "uint256"
        }
      ],
      "name": "buyToken",
      "outputs": [],
      "stateMutability": "payable",
      "type": "function"
    },
    {
      "inputs": [],
      "name": "endSale",
      "outputs": [],
      "stateMutability": "nonpayable",
      "type": "function"
    }
  ],
  "bytecode": "0x60806040527374756dac944fd192bb85a8a613918e107e3dcc85600160006101000a81548173ffffffffffffffffffffffffffffffffffffffff021916908373ffffffffffffffffffffffffffffffffffffffff1602179055503480156200006657600080fd5b506040516200113f3803806200113f83398181016040528101906200008c9190620001ef565b739326bfa02add2366b30bacb125260af641031331600560006101000a81548173ffffffffffffffffffffffffffffffffffffffff021916908373ffffffffffffffffffffffffffffffffffffffff160217905550600a60048190555080600260006101000a81548173ffffffffffffffffffffffffffffffffffffffff021916908373ffffffffffffffffffffffffffffffffffffffff160217905550336000806101000a81548173ffffffffffffffffffffffffffffffffffffffff021916908373ffffffffffffffffffffffffffffffffffffffff1602179055505062000221565b600080fd5b600073ffffffffffffffffffffffffffffffffffffffff82169050919050565b6000620001a38262000176565b9050919050565b6000620001b78262000196565b9050919050565b620001c981620001aa565b8114620001d557600080fd5b50565b600081519050620001e981620001be565b92915050565b60006020828403121562000208576200020762000171565b5b60006200021884828501620001d8565b91505092915050565b610f0e80620002316000396000f3fe6080604052600436106100915760003560e01c8063893b1cc711610059578063893b1cc71461015d578063a607a8d914610188578063b77bf600146101b3578063f851a440146101de578063fc0c546a1461020957610091565b80632d296bf114610096578063380d831b146100b2578063407fcc31146100c957806346bd0841146100f4578063518ab2a814610132575b600080fd5b6100b060048036038101906100ab91906108ba565b610234565b005b3480156100be57600080fd5b506100c7610514565b005b3480156100d557600080fd5b506100de61070e565b6040516100eb9190610900565b60405180910390f35b34801561010057600080fd5b5061011b600480360381019061011691906108ba565b610714565b60405161012992919061096b565b60405180910390f35b34801561013e57600080fd5b50610147610758565b6040516101549190610994565b60405180910390f35b34801561016957600080fd5b5061017261075e565b60405161017f9190610900565b60405180910390f35b34801561019457600080fd5b5061019d61077f565b6040516101aa9190610900565b60405180910390f35b3480156101bf57600080fd5b506101c861082f565b6040516101d59190610994565b60405180910390f35b3480156101ea57600080fd5b506101f3610835565b60405161020091906109d0565b60405180910390f35b34801561021557600080fd5b5061021e610859565b60405161022b9190610a4a565b60405180910390f35b600061023e61075e565b9050818161024c9190610a94565b34121561025857600080fd5b81600260009054906101000a900473ffffffffffffffffffffffffffffffffffffffff1673ffffffffffffffffffffffffffffffffffffffff166370a08231306040518263ffffffff1660e01b81526004016102b49190610bab565b602060405180830381865afa1580156102d1573d6000803e3d6000fd5b505050506040513d601f19601f820116820180604052508101906102f59190610bdb565b101561030057600080fd5b600260009054906101000a900473ffffffffffffffffffffffffffffffffffffffff1673ffffffffffffffffffffffffffffffffffffffff1663a9059cbb33846040518363ffffffff1660e01b815260040161035d92919061096b565b6020604051808303816000875af115801561037c573d6000803e3d6000fd5b505050506040513d601f19601f820116820180604052508101906103a09190610c40565b6103a957600080fd5b600160009054906101000a900473ffffffffffffffffffffffffffffffffffffffff1673ffffffffffffffffffffffffffffffffffffffff166108fc349081150290604051600060405180830381858888f19350505050158015610411573d6000803e3d6000fd5b5081600360008282546104249190610c6d565b9250508190555060405180604001604052803373ffffffffffffffffffffffffffffffffffffffff1681526020018381525060076000600654815260200190815260200160002060008201518160000160006101000a81548173ffffffffffffffffffffffffffffffffffffffff021916908373ffffffffffffffffffffffffffffffffffffffff16021790555060208201518160010155905050600660008154809291906104d290610cc3565b91905055507f5e5e995ce3133561afceaa51a9a154d5db228cd7525d34df5185582c18d3df09338360405161050892919061096b565b60405180910390a15050565b60008054906101000a900473ffffffffffffffffffffffffffffffffffffffff1673ffffffffffffffffffffffffffffffffffffffff163373ffffffffffffffffffffffffffffffffffffffff161461056c57600080fd5b6000600260009054906101000a900473ffffffffffffffffffffffffffffffffffffffff1673ffffffffffffffffffffffffffffffffffffffff166370a08231306040518263ffffffff1660e01b81526004016105c99190610bab565b602060405180830381865afa1580156105e6573d6000803e3d6000fd5b505050506040513d601f19601f8201168201806040525081019061060a9190610bdb565b9050600260009054906101000a900473ffffffffffffffffffffffffffffffffffffffff1673ffffffffffffffffffffffffffffffffffffffff1663a9059cbb60008054906101000a900473ffffffffffffffffffffffffffffffffffffffff16836040518363ffffffff1660e01b8152600401610689929190610d2d565b6020604051808303816000875af11580156106a8573d6000803e3d6000fd5b505050506040513d601f19601f820116820180604052508101906106cc9190610c40565b6106d557600080fd5b60008054906101000a900473ffffffffffffffffffffffffffffffffffffffff1673ffffffffffffffffffffffffffffffffffffffff16ff5b60045481565b60076020528060005260406000206000915090508060000160009054906101000a900473ffffffffffffffffffffffffffffffffffffffff16908060010154905082565b60035481565b60008061076961077f565b9050806004546107799190610d85565b91505090565b600080600560009054906101000a900473ffffffffffffffffffffffffffffffffffffffff1673ffffffffffffffffffffffffffffffffffffffff1663feaf968c6040518163ffffffff1660e01b815260040160a060405180830381865afa1580156107ef573d6000803e3d6000fd5b505050506040513d601f19601f820116820180604052508101906108139190610e5d565b5050509150506305f5e100816108299190610d85565b91505090565b60065481565b60008054906101000a900473ffffffffffffffffffffffffffffffffffffffff1681565b600260009054906101000a900473ffffffffffffffffffffffffffffffffffffffff1681565b600080fd5b6000819050919050565b61089781610884565b81146108a257600080fd5b50565b6000813590506108b48161088e565b92915050565b6000602082840312156108d0576108cf61087f565b5b60006108de848285016108a5565b91505092915050565b6000819050919050565b6108fa816108e7565b82525050565b600060208201905061091560008301846108f1565b92915050565b600073ffffffffffffffffffffffffffffffffffffffff82169050919050565b60006109468261091b565b9050919050565b6109568161093b565b82525050565b61096581610884565b82525050565b6000604082019050610980600083018561094d565b61098d602083018461095c565b9392505050565b60006020820190506109a9600083018461095c565b92915050565b60006109ba8261091b565b9050919050565b6109ca816109af565b82525050565b60006020820190506109e560008301846109c1565b92915050565b6000819050919050565b6000610a10610a0b610a068461091b565b6109eb565b61091b565b9050919050565b6000610a22826109f5565b9050919050565b6000610a3482610a17565b9050919050565b610a4481610a29565b82525050565b6000602082019050610a5f6000830184610a3b565b92915050565b7f4e487b7100000000000000000000000000000000000000000000000000000000600052601160045260246000fd5b6000610a9f826108e7565b9150610aaa836108e7565b9250827f7fffffffffffffffffffffffffffffffffffffffffffffffffffffffffffffff0482116000841360008413161615610ae957610ae8610a65565b5b817f80000000000000000000000000000000000000000000000000000000000000000583126000841260008413161615610b2657610b25610a65565b5b827f80000000000000000000000000000000000000000000000000000000000000000582126000841360008412161615610b6357610b62610a65565b5b827f7fffffffffffffffffffffffffffffffffffffffffffffffffffffffffffffff0582126000841260008412161615610ba057610b9f610a65565b5b828202905092915050565b6000602082019050610bc0600083018461094d565b92915050565b600081519050610bd58161088e565b92915050565b600060208284031215610bf157610bf061087f565b5b6000610bff84828501610bc6565b91505092915050565b60008115159050919050565b610c1d81610c08565b8114610c2857600080fd5b50565b600081519050610c3a81610c14565b92915050565b600060208284031215610c5657610c5561087f565b5b6000610c6484828501610c2b565b91505092915050565b6000610c7882610884565b9150610c8383610884565b9250827fffffffffffffffffffffffffffffffffffffffffffffffffffffffffffffffff03821115610cb857610cb7610a65565b5b828201905092915050565b6000610cce82610884565b91507fffffffffffffffffffffffffffffffffffffffffffffffffffffffffffffffff821415610d0157610d00610a65565b5b600182019050919050565b6000610d1782610a17565b9050919050565b610d2781610d0c565b82525050565b6000604082019050610d426000830185610d1e565b610d4f602083018461095c565b9392505050565b7f4e487b7100000000000000000000000000000000000000000000000000000000600052601260045260246000fd5b6000610d90826108e7565b9150610d9b836108e7565b925082610dab57610daa610d56565b5b600160000383147f800000000000000000000000000000000000000000000000000000000000000083141615610de457610de3610a65565b5b828205905092915050565b600069ffffffffffffffffffff82169050919050565b610e0e81610def565b8114610e1957600080fd5b50565b600081519050610e2b81610e05565b92915050565b610e3a816108e7565b8114610e4557600080fd5b50565b600081519050610e5781610e31565b92915050565b600080600080600060a08688031215610e7957610e7861087f565b5b6000610e8788828901610e1c565b9550506020610e9888828901610e48565b9450506040610ea988828901610bc6565b9350506060610eba88828901610bc6565b9250506080610ecb88828901610e1c565b915050929550929590935056fea26469706673582212206d72c14b6d6297caf5983e69141d7c1a9dc82720ea8b0e09072518eb41ddcc9c64736f6c634300080c0033",
  "immutableReferences": {},
  "source": "// SPDX-License-Identifier: MIT\r\npragma solidity ^0.8.4;\r\n\r\nimport './KeeyToken.sol';\r\nimport \"@chainlink/contracts/src/v0.8/interfaces/AggregatorV3Interface.sol\";\r\n\r\ncontract KeeyTokenSale {\r\n    address payable public admin;\r\n    address payable private ethFunds = payable(0x74756DAc944FD192Bb85a8A613918e107e3dcc85);\r\n    KeeyToken public token;\r\n    uint256 public tokensSold;\r\n    int public tokenPriceUSD;\r\n    AggregatorV3Interface internal priceFeed;\r\n\r\n    uint256 public transactionCount;\r\n\r\n    event Sell(address _buyer, uint256 _amount);\r\n\r\n    struct Transaction {\r\n        address buyer;\r\n        uint256 amount;\r\n    }\r\n\r\n    mapping(uint256 => Transaction) public transaction;\r\n\r\n    constructor(KeeyToken _token) {\r\n        priceFeed = AggregatorV3Interface(0x9326BFA02ADD2366b30bacB125260Af641031331);\r\n        tokenPriceUSD = 10;\r\n        token = _token;\r\n        admin = payable(msg.sender);\r\n    }\r\n\r\n    function getETHPrice() public view returns(int) {\r\n                (\r\n            /*uint80 roundID*/,\r\n            int price,\r\n            /*uint startedAt*/,\r\n            /*uint timeStamp*/,\r\n            /*uint80 answeredInRound*/\r\n        ) = priceFeed.latestRoundData();\r\n\r\n        //Chain link return price in GWei\r\n\r\n        return (price / 10**8);\r\n    }\r\n\r\n    function getKeeyTokenPriceInETH() public view returns(int) {\r\n        int ethPrice = getETHPrice();\r\n        return tokenPriceUSD / ethPrice;\r\n    }\r\n\r\n    function buyToken(uint256 _amount) public payable {\r\n        int keeyTokenPriceInETH = getKeeyTokenPriceInETH();\r\n\r\n        // Check that the buyer sends the enough ETH\r\n        require(int(msg.value) >= keeyTokenPriceInETH * int(_amount));\r\n\r\n        // Check that the sale contract provides the enogh ETH to make this transaction\r\n        require(token.balanceOf(address(this)) >= _amount);\r\n\r\n        // Make sure token transfer successfully\r\n        require(token.transfer(msg.sender, _amount));\r\n\r\n        // Transfer the ETH of the buyer to us\r\n        ethFunds.transfer(msg.value);\r\n\r\n        tokensSold += _amount;\r\n        transaction[transactionCount] = Transaction(msg.sender, _amount);\r\n        transactionCount++;\r\n\r\n        emit Sell(msg.sender, _amount);\r\n    }\r\n\r\n    function endSale() public {\r\n        require(msg.sender == admin);\r\n\r\n        uint256 amount = token.balanceOf(address(this));\r\n        require(token.transfer(admin, amount));\r\n        selfdestruct(payable(admin));\r\n    }\r\n}",
  "sourcePath": "C:\\Users\\Khoa\\Documents\\bye-bye-world\\contracts\\KeeyTokenSale.sol",
  "compiler": {
    "name": "solc",
    "version": "0.8.12+commit.f00d7308.Emscripten.clang"
  },
  "schemaVersion": "3.4.6",
  "updatedAt": "2022-03-12T18:21:51.776Z",
  "devdoc": {
    "kind": "dev",
    "methods": {},
    "version": 1
  },
  "userdoc": {
    "kind": "user",
    "methods": {},
    "version": 1
  }
}