{
  "_format": "hh-sol-artifact-1",
  "contractName": "Token",
  "sourceName": "contracts/Token.sol",
  "abi": [
    {
      "inputs": [
        {
          "internalType": "uint256",
          "name": "_totalSupply",
          "type": "uint256"
        },
        {
          "internalType": "string",
          "name": "_name",
          "type": "string"
        },
        {
          "internalType": "string",
          "name": "_symbol",
          "type": "string"
        }
      ],
      "stateMutability": "nonpayable",
      "type": "constructor"
    },
    {
      "anonymous": false,
      "inputs": [
        {
          "indexed": false,
          "internalType": "address",
          "name": "owner",
          "type": "address"
        },
        {
          "indexed": false,
          "internalType": "address",
          "name": "spender",
          "type": "address"
        },
        {
          "indexed": false,
          "internalType": "uint256",
          "name": "amount",
          "type": "uint256"
        }
      ],
      "name": "Approval",
      "type": "event"
    },
    {
      "anonymous": false,
      "inputs": [
        {
          "indexed": false,
          "internalType": "uint256",
          "name": "remainingTotalSupply",
          "type": "uint256"
        }
      ],
      "name": "TotalSupplyChange",
      "type": "event"
    },
    {
      "anonymous": false,
      "inputs": [
        {
          "indexed": false,
          "internalType": "address",
          "name": "from",
          "type": "address"
        },
        {
          "indexed": false,
          "internalType": "address",
          "name": "to",
          "type": "address"
        },
        {
          "indexed": false,
          "internalType": "uint256",
          "name": "amount",
          "type": "uint256"
        }
      ],
      "name": "Transfer",
      "type": "event"
    },
    {
      "inputs": [
        {
          "internalType": "address",
          "name": "",
          "type": "address"
        },
        {
          "internalType": "address",
          "name": "",
          "type": "address"
        }
      ],
      "name": "allowance",
      "outputs": [
        {
          "internalType": "uint256",
          "name": "",
          "type": "uint256"
        }
      ],
      "stateMutability": "view",
      "type": "function"
    },
    {
      "inputs": [
        {
          "internalType": "address",
          "name": "spender",
          "type": "address"
        },
        {
          "internalType": "uint256",
          "name": "amount",
          "type": "uint256"
        }
      ],
      "name": "approve",
      "outputs": [
        {
          "internalType": "bool",
          "name": "success",
          "type": "bool"
        }
      ],
      "stateMutability": "nonpayable",
      "type": "function"
    },
    {
      "inputs": [
        {
          "internalType": "address",
          "name": "account",
          "type": "address"
        }
      ],
      "name": "balanceOf",
      "outputs": [
        {
          "internalType": "uint256",
          "name": "",
          "type": "uint256"
        }
      ],
      "stateMutability": "view",
      "type": "function"
    },
    {
      "inputs": [
        {
          "internalType": "uint256",
          "name": "amount",
          "type": "uint256"
        }
      ],
      "name": "burn",
      "outputs": [],
      "stateMutability": "nonpayable",
      "type": "function"
    },
    {
      "inputs": [],
      "name": "name",
      "outputs": [
        {
          "internalType": "string",
          "name": "",
          "type": "string"
        }
      ],
      "stateMutability": "view",
      "type": "function"
    },
    {
      "inputs": [],
      "name": "owner",
      "outputs": [
        {
          "internalType": "address",
          "name": "",
          "type": "address"
        }
      ],
      "stateMutability": "view",
      "type": "function"
    },
    {
      "inputs": [],
      "name": "symbol",
      "outputs": [
        {
          "internalType": "string",
          "name": "",
          "type": "string"
        }
      ],
      "stateMutability": "view",
      "type": "function"
    },
    {
      "inputs": [],
      "name": "totalSupply",
      "outputs": [
        {
          "internalType": "uint256",
          "name": "",
          "type": "uint256"
        }
      ],
      "stateMutability": "view",
      "type": "function"
    },
    {
      "inputs": [
        {
          "internalType": "address",
          "name": "to",
          "type": "address"
        },
        {
          "internalType": "uint256",
          "name": "amount",
          "type": "uint256"
        }
      ],
      "name": "transfer",
      "outputs": [],
      "stateMutability": "nonpayable",
      "type": "function"
    },
    {
      "inputs": [
        {
          "internalType": "address",
          "name": "from",
          "type": "address"
        },
        {
          "internalType": "address",
          "name": "to",
          "type": "address"
        },
        {
          "internalType": "uint256",
          "name": "amount",
          "type": "uint256"
        }
      ],
      "name": "transferFrom",
      "outputs": [],
      "stateMutability": "nonpayable",
      "type": "function"
    },
    {
      "inputs": [
        {
          "internalType": "address",
          "name": "newOwner",
          "type": "address"
        }
      ],
      "name": "transferOwnership",
      "outputs": [],
      "stateMutability": "nonpayable",
      "type": "function"
    }
  ],
  "bytecode": "0x60806040523480156200001157600080fd5b5060405162001a5138038062001a51833981810160405281019062000037919062000278565b336000806101000a81548173ffffffffffffffffffffffffffffffffffffffff021916908373ffffffffffffffffffffffffffffffffffffffff16021790555081600190805190602001906200008f9291906200013f565b508060029080519060200190620000a89291906200013f565b5082600381905550600354600460003373ffffffffffffffffffffffffffffffffffffffff1673ffffffffffffffffffffffffffffffffffffffff16815260200190815260200160002081905550336000806101000a81548173ffffffffffffffffffffffffffffffffffffffff021916908373ffffffffffffffffffffffffffffffffffffffff16021790555050505062000494565b8280546200014d906200039f565b90600052602060002090601f016020900481019282620001715760008555620001bd565b82601f106200018c57805160ff1916838001178555620001bd565b82800160010185558215620001bd579182015b82811115620001bc5782518255916020019190600101906200019f565b5b509050620001cc9190620001d0565b5090565b5b80821115620001eb576000816000905550600101620001d1565b5090565b600062000206620002008462000329565b62000300565b9050828152602081018484840111156200021f57600080fd5b6200022c84828562000369565b509392505050565b600082601f8301126200024657600080fd5b815162000258848260208601620001ef565b91505092915050565b60008151905062000272816200047a565b92915050565b6000806000606084860312156200028e57600080fd5b60006200029e8682870162000261565b935050602084015167ffffffffffffffff811115620002bc57600080fd5b620002ca8682870162000234565b925050604084015167ffffffffffffffff811115620002e857600080fd5b620002f68682870162000234565b9150509250925092565b60006200030c6200031f565b90506200031a8282620003d5565b919050565b6000604051905090565b600067ffffffffffffffff8211156200034757620003466200043a565b5b620003528262000469565b9050602081019050919050565b6000819050919050565b60005b83811015620003895780820151818401526020810190506200036c565b8381111562000399576000848401525b50505050565b60006002820490506001821680620003b857607f821691505b60208210811415620003cf57620003ce6200040b565b5b50919050565b620003e08262000469565b810181811067ffffffffffffffff821117156200040257620004016200043a565b5b80604052505050565b7f4e487b7100000000000000000000000000000000000000000000000000000000600052602260045260246000fd5b7f4e487b7100000000000000000000000000000000000000000000000000000000600052604160045260246000fd5b6000601f19601f8301169050919050565b62000485816200035f565b81146200049157600080fd5b50565b6115ad80620004a46000396000f3fe608060405234801561001057600080fd5b50600436106100a95760003560e01c806370a082311161007157806370a08231146101525780638da5cb5b1461018257806395d89b41146101a0578063a9059cbb146101be578063dd62ed3e146101da578063f2fde38b1461020a576100a9565b806306fdde03146100ae578063095ea7b3146100cc57806318160ddd146100fc57806323b872dd1461011a57806342966c6814610136575b600080fd5b6100b6610226565b6040516100c39190611192565b60405180910390f35b6100e660048036038101906100e19190610fce565b6102b4565b6040516100f39190611177565b60405180910390f35b61010461043a565b60405161011191906112a2565b60405180910390f35b610134600480360381019061012f9190610f7f565b610440565b005b610150600480360381019061014b919061100a565b610879565b005b61016c60048036038101906101679190610f1a565b6109a6565b60405161017991906112a2565b60405180910390f35b61018a6109ef565b6040516101979190611125565b60405180910390f35b6101a8610a13565b6040516101b59190611192565b60405180910390f35b6101d860048036038101906101d39190610fce565b610aa1565b005b6101f460048036038101906101ef9190610f43565b610ccc565b60405161020191906112a2565b60405180910390f35b610224600480360381019061021f9190610f1a565b610cf1565b005b60018054610233906113de565b80601f016020809104026020016040519081016040528092919081815260200182805461025f906113de565b80156102ac5780601f10610281576101008083540402835291602001916102ac565b820191906000526020600020905b81548152906001019060200180831161028f57829003601f168201915b505050505081565b600080600560003373ffffffffffffffffffffffffffffffffffffffff1673ffffffffffffffffffffffffffffffffffffffff16815260200190815260200160002060008573ffffffffffffffffffffffffffffffffffffffff1673ffffffffffffffffffffffffffffffffffffffff1681526020019081526020016000205414610374576040517f08c379a000000000000000000000000000000000000000000000000000000000815260040161036b90611222565b60405180910390fd5b81600560003373ffffffffffffffffffffffffffffffffffffffff1673ffffffffffffffffffffffffffffffffffffffff16815260200190815260200160002060008573ffffffffffffffffffffffffffffffffffffffff1673ffffffffffffffffffffffffffffffffffffffff168152602001908152602001600020819055507f8c5be1e5ebec7d5bd14f71427d1e84f3dd0314c0f7b2291e5b200ac8c7c3b92533848460405161042893929190611140565b60405180910390a16001905092915050565b60035481565b6104fb6040518060400160405280601681526020017f416c6c6f77616e636520697320257320746f6b656e7300000000000000000000815250600560008673ffffffffffffffffffffffffffffffffffffffff1673ffffffffffffffffffffffffffffffffffffffff16815260200190815260200160002060003373ffffffffffffffffffffffffffffffffffffffff1673ffffffffffffffffffffffffffffffffffffffff16815260200190815260200160002054610d8c565b6105796040518060400160405280601b81526020017f53656e6465722062616c616e636520697320257320746f6b656e730000000000815250600460008673ffffffffffffffffffffffffffffffffffffffff1673ffffffffffffffffffffffffffffffffffffffff16815260200190815260200160002054610d8c565b6105b96040518060400160405280601e81526020017f547279696e6720746f2073656e6420257320746f6b656e7320746f20257300008152508284610e28565b80600460008573ffffffffffffffffffffffffffffffffffffffff1673ffffffffffffffffffffffffffffffffffffffff16815260200190815260200160002054101561063b576040517f08c379a000000000000000000000000000000000000000000000000000000000815260040161063290611282565b60405180910390fd5b80600560008573ffffffffffffffffffffffffffffffffffffffff1673ffffffffffffffffffffffffffffffffffffffff16815260200190815260200160002060003373ffffffffffffffffffffffffffffffffffffffff1673ffffffffffffffffffffffffffffffffffffffff1681526020019081526020016000205410156106fa576040517f08c379a00000000000000000000000000000000000000000000000000000000081526004016106f190611242565b60405180910390fd5b80600460008573ffffffffffffffffffffffffffffffffffffffff1673ffffffffffffffffffffffffffffffffffffffff1681526020019081526020016000206000828254610749919061132f565b9250508190555080600560008573ffffffffffffffffffffffffffffffffffffffff1673ffffffffffffffffffffffffffffffffffffffff16815260200190815260200160002060003373ffffffffffffffffffffffffffffffffffffffff1673ffffffffffffffffffffffffffffffffffffffff16815260200190815260200160002060008282546107dc919061132f565b9250508190555080600460008473ffffffffffffffffffffffffffffffffffffffff1673ffffffffffffffffffffffffffffffffffffffff168152602001908152602001600020600082825461083291906112d9565b925050819055507fddf252ad1be2c89b69c2b068fc378daa952ba7f163c4a11628f55a4df523b3ef83838360405161086c93929190611140565b60405180910390a1505050565b80600460003373ffffffffffffffffffffffffffffffffffffffff1673ffffffffffffffffffffffffffffffffffffffff1681526020019081526020016000205410156108fb576040517f08c379a00000000000000000000000000000000000000000000000000000000081526004016108f290611262565b60405180910390fd5b80600460003373ffffffffffffffffffffffffffffffffffffffff1673ffffffffffffffffffffffffffffffffffffffff168152602001908152602001600020600082825461094a919061132f565b925050819055508060036000828254610963919061132f565b925050819055507f78bcde01236b83f68bca3d0f5cd715abb54a0928720cc01f937d913f88b06fe660035460405161099b91906112a2565b60405180910390a150565b6000600460008373ffffffffffffffffffffffffffffffffffffffff1673ffffffffffffffffffffffffffffffffffffffff168152602001908152602001600020549050919050565b60008054906101000a900473ffffffffffffffffffffffffffffffffffffffff1681565b60028054610a20906113de565b80601f0160208091040260200160405190810160405280929190818152602001828054610a4c906113de565b8015610a995780601f10610a6e57610100808354040283529160200191610a99565b820191906000526020600020905b815481529060010190602001808311610a7c57829003601f168201915b505050505081565b610b1f6040518060400160405280601b81526020017f53656e6465722062616c616e636520697320257320746f6b656e730000000000815250600460003373ffffffffffffffffffffffffffffffffffffffff1673ffffffffffffffffffffffffffffffffffffffff16815260200190815260200160002054610d8c565b610b5f6040518060400160405280601e81526020017f547279696e6720746f2073656e6420257320746f6b656e7320746f20257300008152508284610e28565b80600460003373ffffffffffffffffffffffffffffffffffffffff1673ffffffffffffffffffffffffffffffffffffffff168152602001908152602001600020541015610be1576040517f08c379a0000000000000000000000000000000000000000000000000000000008152600401610bd890611282565b60405180910390fd5b80600460003373ffffffffffffffffffffffffffffffffffffffff1673ffffffffffffffffffffffffffffffffffffffff1681526020019081526020016000206000828254610c30919061132f565b9250508190555080600460008473ffffffffffffffffffffffffffffffffffffffff1673ffffffffffffffffffffffffffffffffffffffff1681526020019081526020016000206000828254610c8691906112d9565b925050819055507fddf252ad1be2c89b69c2b068fc378daa952ba7f163c4a11628f55a4df523b3ef338383604051610cc093929190611140565b60405180910390a15050565b6005602052816000526040600020602052806000526040600020600091509150505481565b60008054906101000a900473ffffffffffffffffffffffffffffffffffffffff1673ffffffffffffffffffffffffffffffffffffffff163373ffffffffffffffffffffffffffffffffffffffff1614610d4957600080fd5b806000806101000a81548173ffffffffffffffffffffffffffffffffffffffff021916908373ffffffffffffffffffffffffffffffffffffffff16021790555050565b610e248282604051602401610da29291906111b4565b6040516020818303038152906040527f9710a9d0000000000000000000000000000000000000000000000000000000007bffffffffffffffffffffffffffffffffffffffffffffffffffffffff19166020820180517bffffffffffffffffffffffffffffffffffffffffffffffffffffffff8381831617835250505050610ec7565b5050565b610ec2838383604051602401610e40939291906111e4565b6040516020818303038152906040527fe3849f79000000000000000000000000000000000000000000000000000000007bffffffffffffffffffffffffffffffffffffffffffffffffffffffff19166020820180517bffffffffffffffffffffffffffffffffffffffffffffffffffffffff8381831617835250505050610ec7565b505050565b60008151905060006a636f6e736f6c652e6c6f679050602083016000808483855afa5050505050565b600081359050610eff81611549565b92915050565b600081359050610f1481611560565b92915050565b600060208284031215610f2c57600080fd5b6000610f3a84828501610ef0565b91505092915050565b60008060408385031215610f5657600080fd5b6000610f6485828601610ef0565b9250506020610f7585828601610ef0565b9150509250929050565b600080600060608486031215610f9457600080fd5b6000610fa286828701610ef0565b9350506020610fb386828701610ef0565b9250506040610fc486828701610f05565b9150509250925092565b60008060408385031215610fe157600080fd5b6000610fef85828601610ef0565b925050602061100085828601610f05565b9150509250929050565b60006020828403121561101c57600080fd5b600061102a84828501610f05565b91505092915050565b61103c81611363565b82525050565b61104b81611375565b82525050565b600061105c826112bd565b61106681856112c8565b93506110768185602086016113ab565b61107f8161146e565b840191505092915050565b60006110976028836112c8565b91506110a28261147f565b604082019050919050565b60006110ba6014836112c8565b91506110c5826114ce565b602082019050919050565b60006110dd6018836112c8565b91506110e8826114f7565b602082019050919050565b60006111006011836112c8565b915061110b82611520565b602082019050919050565b61111f816113a1565b82525050565b600060208201905061113a6000830184611033565b92915050565b60006060820190506111556000830186611033565b6111626020830185611033565b61116f6040830184611116565b949350505050565b600060208201905061118c6000830184611042565b92915050565b600060208201905081810360008301526111ac8184611051565b905092915050565b600060408201905081810360008301526111ce8185611051565b90506111dd6020830184611116565b9392505050565b600060608201905081810360008301526111fe8186611051565b905061120d6020830185611116565b61121a6040830184611033565b949350505050565b6000602082019050818103600083015261123b8161108a565b9050919050565b6000602082019050818103600083015261125b816110ad565b9050919050565b6000602082019050818103600083015261127b816110d0565b9050919050565b6000602082019050818103600083015261129b816110f3565b9050919050565b60006020820190506112b76000830184611116565b92915050565b600081519050919050565b600082825260208201905092915050565b60006112e4826113a1565b91506112ef836113a1565b9250827fffffffffffffffffffffffffffffffffffffffffffffffffffffffffffffffff0382111561132457611323611410565b5b828201905092915050565b600061133a826113a1565b9150611345836113a1565b92508282101561135857611357611410565b5b828203905092915050565b600061136e82611381565b9050919050565b60008115159050919050565b600073ffffffffffffffffffffffffffffffffffffffff82169050919050565b6000819050919050565b60005b838110156113c95780820151818401526020810190506113ae565b838111156113d8576000848401525b50505050565b600060028204905060018216806113f657607f821691505b6020821081141561140a5761140961143f565b5b50919050565b7f4e487b7100000000000000000000000000000000000000000000000000000000600052601160045260246000fd5b7f4e487b7100000000000000000000000000000000000000000000000000000000600052602260045260246000fd5b6000601f19601f8301169050919050565b7f43757272656e7420616c6c6f77616e636520697320646966666572656e74206660008201527f726f6d207a65726f000000000000000000000000000000000000000000000000602082015250565b7f4e6f7420656e6f75676820616c6c6f77616e6365000000000000000000000000600082015250565b7f4e6f7420656e6f75676820746f6b656e20746f206275726e0000000000000000600082015250565b7f4e6f7420656e6f75676820746f6b656e73000000000000000000000000000000600082015250565b61155281611363565b811461155d57600080fd5b50565b611569816113a1565b811461157457600080fd5b5056fea2646970667358221220fd3231a609b3662614f0e987e38159062eb5ca7aab4185ed484620b69885b45564736f6c63430008010033",
  "linkReferences": {},
  "deployedLinkReferences": {}
}