{
  "_format": "hh-sol-artifact-1",
  "contractName": "TokenSale",
  "sourceName": "contracts/TokenSale.sol",
  "abi": [
    {
      "inputs": [
        {
          "internalType": "contract Token",
          "name": "_keeyContract",
          "type": "address"
        },
        {
          "internalType": "contract Token",
          "name": "_usdtContract",
          "type": "address"
        },
        {
          "internalType": "uint256",
          "name": "_tokenPrice",
          "type": "uint256"
        }
      ],
      "stateMutability": "nonpayable",
      "type": "constructor"
    },
    {
      "anonymous": false,
      "inputs": [
        {
          "indexed": false,
          "internalType": "address",
          "name": "buyer",
          "type": "address"
        },
        {
          "indexed": false,
          "internalType": "uint256",
          "name": "amount",
          "type": "uint256"
        }
      ],
      "name": "Sell",
      "type": "event"
    },
    {
      "inputs": [
        {
          "internalType": "uint256",
          "name": "amount",
          "type": "uint256"
        }
      ],
      "name": "buyTokens",
      "outputs": [],
      "stateMutability": "nonpayable",
      "type": "function"
    },
    {
      "inputs": [],
      "name": "collectedUsdt",
      "outputs": [
        {
          "internalType": "uint256",
          "name": "",
          "type": "uint256"
        }
      ],
      "stateMutability": "view",
      "type": "function"
    },
    {
      "inputs": [],
      "name": "endSale",
      "outputs": [
        {
          "internalType": "bool",
          "name": "",
          "type": "bool"
        }
      ],
      "stateMutability": "nonpayable",
      "type": "function"
    },
    {
      "inputs": [],
      "name": "endTimestamp",
      "outputs": [
        {
          "internalType": "uint256",
          "name": "",
          "type": "uint256"
        }
      ],
      "stateMutability": "view",
      "type": "function"
    },
    {
      "inputs": [],
      "name": "keeyContract",
      "outputs": [
        {
          "internalType": "contract Token",
          "name": "",
          "type": "address"
        }
      ],
      "stateMutability": "view",
      "type": "function"
    },
    {
      "inputs": [],
      "name": "owner",
      "outputs": [
        {
          "internalType": "address",
          "name": "",
          "type": "address"
        }
      ],
      "stateMutability": "view",
      "type": "function"
    },
    {
      "inputs": [],
      "name": "remainingToken",
      "outputs": [
        {
          "internalType": "uint256",
          "name": "",
          "type": "uint256"
        }
      ],
      "stateMutability": "view",
      "type": "function"
    },
    {
      "inputs": [
        {
          "internalType": "uint256",
          "name": "_endTimestamp",
          "type": "uint256"
        }
      ],
      "name": "startSale",
      "outputs": [],
      "stateMutability": "nonpayable",
      "type": "function"
    },
    {
      "inputs": [],
      "name": "startTimestamp",
      "outputs": [
        {
          "internalType": "uint256",
          "name": "",
          "type": "uint256"
        }
      ],
      "stateMutability": "view",
      "type": "function"
    },
    {
      "inputs": [],
      "name": "tokenPrice",
      "outputs": [
        {
          "internalType": "uint256",
          "name": "",
          "type": "uint256"
        }
      ],
      "stateMutability": "view",
      "type": "function"
    },
    {
      "inputs": [
        {
          "internalType": "address",
          "name": "newOwner",
          "type": "address"
        }
      ],
      "name": "transferOwnership",
      "outputs": [],
      "stateMutability": "nonpayable",
      "type": "function"
    },
    {
      "inputs": [],
      "name": "usdtContract",
      "outputs": [
        {
          "internalType": "contract Token",
          "name": "",
          "type": "address"
        }
      ],
      "stateMutability": "view",
      "type": "function"
    }
  ],
  "bytecode": "0x60806040523480156200001157600080fd5b50604051620014a2380380620014a28339818101604052810190620000379190620001ed565b336000806101000a81548173ffffffffffffffffffffffffffffffffffffffff021916908373ffffffffffffffffffffffffffffffffffffffff160217905550600073ffffffffffffffffffffffffffffffffffffffff168373ffffffffffffffffffffffffffffffffffffffff161415620000b257600080fd5b600073ffffffffffffffffffffffffffffffffffffffff168273ffffffffffffffffffffffffffffffffffffffff161415620000ed57600080fd5b82600260006101000a81548173ffffffffffffffffffffffffffffffffffffffff021916908373ffffffffffffffffffffffffffffffffffffffff16021790555081600160006101000a81548173ffffffffffffffffffffffffffffffffffffffff021916908373ffffffffffffffffffffffffffffffffffffffff16021790555080600381905550336000806101000a81548173ffffffffffffffffffffffffffffffffffffffff021916908373ffffffffffffffffffffffffffffffffffffffff160217905550505050620002c9565b600081519050620001d08162000295565b92915050565b600081519050620001e781620002af565b92915050565b6000806000606084860312156200020357600080fd5b60006200021386828701620001bf565b93505060206200022686828701620001bf565b92505060406200023986828701620001d6565b9150509250925092565b600062000250826200026b565b9050919050565b6000620002648262000243565b9050919050565b600073ffffffffffffffffffffffffffffffffffffffff82169050919050565b6000819050919050565b620002a08162000257565b8114620002ac57600080fd5b50565b620002ba816200028b565b8114620002c657600080fd5b50565b6111c980620002d96000396000f3fe608060405234801561001057600080fd5b50600436106100b45760003560e01c80638ed76287116100715780638ed76287146101695780639952390f14610187578063a85adeab146101a5578063a88cf6c2146101c3578063e6fd48bc146101e1578063f2fde38b146101ff576100b4565b80630e3ab61d146100b95780633610724e146100d5578063380d831b146100f1578063611509231461010f5780637ff9b5961461012d5780638da5cb5b1461014b575b600080fd5b6100d360048036038101906100ce9190610bc4565b61021b565b005b6100ef60048036038101906100ea9190610bc4565b61040d565b005b6100f9610743565b6040516101069190610dbb565b60405180910390f35b61011761096e565b6040516101249190610dd6565b60405180910390f35b610135610994565b6040516101429190610ea1565b60405180910390f35b61015361099a565b6040516101609190610d17565b60405180910390f35b6101716109be565b60405161017e9190610ea1565b60405180910390f35b61018f6109c4565b60405161019c9190610dd6565b60405180910390f35b6101ad6109ea565b6040516101ba9190610ea1565b60405180910390f35b6101cb6109f0565b6040516101d89190610ea1565b60405180910390f35b6101e96109f6565b6040516101f69190610ea1565b60405180910390f35b61021960048036038101906102149190610b9b565b6109fc565b005b60008054906101000a900473ffffffffffffffffffffffffffffffffffffffff1673ffffffffffffffffffffffffffffffffffffffff163373ffffffffffffffffffffffffffffffffffffffff161461027357600080fd5b806007819055506000600260009054906101000a900473ffffffffffffffffffffffffffffffffffffffff1673ffffffffffffffffffffffffffffffffffffffff166370a08231336040518263ffffffff1660e01b81526004016102d79190610d17565b60206040518083038186803b1580156102ef57600080fd5b505afa158015610303573d6000803e3d6000fd5b505050506040513d601f19601f820116820180604052508101906103279190610bed565b9050600260009054906101000a900473ffffffffffffffffffffffffffffffffffffffff1673ffffffffffffffffffffffffffffffffffffffff166323b872dd3330846040518463ffffffff1660e01b815260040161038893929190610d5b565b600060405180830381600087803b1580156103a257600080fd5b505af11580156103b6573d6000803e3d6000fd5b5050505080600481905550426006819055506104096040518060400160405280600d81526020017f53746172742073616c6520617400000000000000000000000000000000000000815250600654610a97565b5050565b600042905060006006541415610458576040517f08c379a000000000000000000000000000000000000000000000000000000000815260040161044f90610e41565b60405180910390fd5b60075481111561049d576040517f08c379a000000000000000000000000000000000000000000000000000000000815260040161049490610e21565b60405180910390fd5b8160045410156104ac57600080fd5b6000600354836104bc9190610f2e565b90506000600160009054906101000a900473ffffffffffffffffffffffffffffffffffffffff1673ffffffffffffffffffffffffffffffffffffffff1663dd62ed3e33306040518363ffffffff1660e01b815260040161051d929190610d32565b60206040518083038186803b15801561053557600080fd5b505afa158015610549573d6000803e3d6000fd5b505050506040513d601f19601f8201168201806040525081019061056d9190610bed565b9050818110156105b2576040517f08c379a00000000000000000000000000000000000000000000000000000000081526004016105a990610e61565b60405180910390fd5b600160009054906101000a900473ffffffffffffffffffffffffffffffffffffffff1673ffffffffffffffffffffffffffffffffffffffff166323b872dd3330856040518463ffffffff1660e01b815260040161061193929190610d5b565b600060405180830381600087803b15801561062b57600080fd5b505af115801561063f573d6000803e3d6000fd5b5050505081600560008282546106559190610ed8565b92505081905550600260009054906101000a900473ffffffffffffffffffffffffffffffffffffffff1673ffffffffffffffffffffffffffffffffffffffff1663a9059cbb33866040518363ffffffff1660e01b81526004016106b9929190610d92565b600060405180830381600087803b1580156106d357600080fd5b505af11580156106e7573d6000803e3d6000fd5b5050505083600460008282546106fd9190610f88565b925050819055507f5e5e995ce3133561afceaa51a9a154d5db228cd7525d34df5185582c18d3df093385604051610735929190610d92565b60405180910390a150505050565b60008060009054906101000a900473ffffffffffffffffffffffffffffffffffffffff1673ffffffffffffffffffffffffffffffffffffffff163373ffffffffffffffffffffffffffffffffffffffff161461079e57600080fd5b600042905060075481116107e7576040517f08c379a00000000000000000000000000000000000000000000000000000000081526004016107de90610e81565b60405180910390fd5b600160009054906101000a900473ffffffffffffffffffffffffffffffffffffffff1673ffffffffffffffffffffffffffffffffffffffff1663a9059cbb60008054906101000a900473ffffffffffffffffffffffffffffffffffffffff166005546040518363ffffffff1660e01b8152600401610866929190610d92565b600060405180830381600087803b15801561088057600080fd5b505af1158015610894573d6000803e3d6000fd5b50505050600260009054906101000a900473ffffffffffffffffffffffffffffffffffffffff1673ffffffffffffffffffffffffffffffffffffffff166342966c686004546040518263ffffffff1660e01b81526004016108f59190610ea1565b600060405180830381600087803b15801561090f57600080fd5b505af1158015610923573d6000803e3d6000fd5b505050506109666040518060400160405280600f81526020017f456e6465642073616c652061743a20000000000000000000000000000000000081525082610a97565b600191505090565b600160009054906101000a900473ffffffffffffffffffffffffffffffffffffffff1681565b60035481565b60008054906101000a900473ffffffffffffffffffffffffffffffffffffffff1681565b60045481565b600260009054906101000a900473ffffffffffffffffffffffffffffffffffffffff1681565b60075481565b60055481565b60065481565b60008054906101000a900473ffffffffffffffffffffffffffffffffffffffff1673ffffffffffffffffffffffffffffffffffffffff163373ffffffffffffffffffffffffffffffffffffffff1614610a5457600080fd5b806000806101000a81548173ffffffffffffffffffffffffffffffffffffffff021916908373ffffffffffffffffffffffffffffffffffffffff16021790555050565b610b2f8282604051602401610aad929190610df1565b6040516020818303038152906040527f9710a9d0000000000000000000000000000000000000000000000000000000007bffffffffffffffffffffffffffffffffffffffffffffffffffffffff19166020820180517bffffffffffffffffffffffffffffffffffffffffffffffffffffffff8381831617835250505050610b33565b5050565b60008151905060006a636f6e736f6c652e6c6f679050602083016000808483855afa5050505050565b600081359050610b6b81611165565b92915050565b600081359050610b808161117c565b92915050565b600081519050610b958161117c565b92915050565b600060208284031215610bad57600080fd5b6000610bbb84828501610b5c565b91505092915050565b600060208284031215610bd657600080fd5b6000610be484828501610b71565b91505092915050565b600060208284031215610bff57600080fd5b6000610c0d84828501610b86565b91505092915050565b610c1f81610fbc565b82525050565b610c2e81610fce565b82525050565b610c3d81611004565b82525050565b6000610c4e82610ebc565b610c588185610ec7565b9350610c68818560208601611028565b610c718161108a565b840191505092915050565b6000610c89601083610ec7565b9150610c948261109b565b602082019050919050565b6000610cac601e83610ec7565b9150610cb7826110c4565b602082019050919050565b6000610ccf603c83610ec7565b9150610cda826110ed565b604082019050919050565b6000610cf2601083610ec7565b9150610cfd8261113c565b602082019050919050565b610d1181610ffa565b82525050565b6000602082019050610d2c6000830184610c16565b92915050565b6000604082019050610d476000830185610c16565b610d546020830184610c16565b9392505050565b6000606082019050610d706000830186610c16565b610d7d6020830185610c16565b610d8a6040830184610d08565b949350505050565b6000604082019050610da76000830185610c16565b610db46020830184610d08565b9392505050565b6000602082019050610dd06000830184610c25565b92915050565b6000602082019050610deb6000830184610c34565b92915050565b60006040820190508181036000830152610e0b8185610c43565b9050610e1a6020830184610d08565b9392505050565b60006020820190508181036000830152610e3a81610c7c565b9050919050565b60006020820190508181036000830152610e5a81610c9f565b9050919050565b60006020820190508181036000830152610e7a81610cc2565b9050919050565b60006020820190508181036000830152610e9a81610ce5565b9050919050565b6000602082019050610eb66000830184610d08565b92915050565b600081519050919050565b600082825260208201905092915050565b6000610ee382610ffa565b9150610eee83610ffa565b9250827fffffffffffffffffffffffffffffffffffffffffffffffffffffffffffffffff03821115610f2357610f2261105b565b5b828201905092915050565b6000610f3982610ffa565b9150610f4483610ffa565b9250817fffffffffffffffffffffffffffffffffffffffffffffffffffffffffffffffff0483118215151615610f7d57610f7c61105b565b5b828202905092915050565b6000610f9382610ffa565b9150610f9e83610ffa565b925082821015610fb157610fb061105b565b5b828203905092915050565b6000610fc782610fda565b9050919050565b60008115159050919050565b600073ffffffffffffffffffffffffffffffffffffffff82169050919050565b6000819050919050565b600061100f82611016565b9050919050565b600061102182610fda565b9050919050565b60005b8381101561104657808201518184015260208101905061102b565b83811115611055576000848401525b50505050565b7f4e487b7100000000000000000000000000000000000000000000000000000000600052601160045260246000fd5b6000601f19601f8301169050919050565b7f546f6b656e2073616c6520656e64656400000000000000000000000000000000600082015250565b7f546f6b656e2073616c6520686173206e6f742073746172746564207965740000600082015250565b7f596f75206d75737420617070726f7665207468697320636f6e7472616374206360008201527f6f6e73756d6520656e6f75676820616d6f756e74206f66205553445400000000602082015250565b7f53616c6520646964206e6f7420656e6400000000000000000000000000000000600082015250565b61116e81610fbc565b811461117957600080fd5b50565b61118581610ffa565b811461119057600080fd5b5056fea26469706673582212202c18d314818122f6a2f2fa0ffd8f962e464ab95881e5d5c79d4b09349ad0b1ac64736f6c63430008010033",
  "linkReferences": {},
  "deployedLinkReferences": {}
}