{
  "contractName": "KeeyTokenSale",
  "abi": [
    {
      "inputs": [
        {
          "internalType": "contract KeeyToken",
          "name": "_token",
          "type": "address"
        },
        {
          "internalType": "contract USDTToken",
          "name": "_usdtToken",
          "type": "address"
        }
      ],
      "stateMutability": "nonpayable",
      "type": "constructor"
    },
    {
      "anonymous": false,
      "inputs": [
        {
          "indexed": false,
          "internalType": "uint256",
          "name": "_amount",
          "type": "uint256"
        }
      ],
      "name": "EndSale",
      "type": "event"
    },
    {
      "anonymous": false,
      "inputs": [
        {
          "indexed": false,
          "internalType": "address",
          "name": "_buyer",
          "type": "address"
        },
        {
          "indexed": false,
          "internalType": "uint256",
          "name": "_amount",
          "type": "uint256"
        }
      ],
      "name": "Sell",
      "type": "event"
    },
    {
      "inputs": [],
      "name": "admin",
      "outputs": [
        {
          "internalType": "address payable",
          "name": "",
          "type": "address"
        }
      ],
      "stateMutability": "view",
      "type": "function",
      "constant": true
    },
    {
      "inputs": [],
      "name": "token",
      "outputs": [
        {
          "internalType": "contract KeeyToken",
          "name": "",
          "type": "address"
        }
      ],
      "stateMutability": "view",
      "type": "function",
      "constant": true
    },
    {
      "inputs": [],
      "name": "tokenPriceUSD",
      "outputs": [
        {
          "internalType": "uint256",
          "name": "",
          "type": "uint256"
        }
      ],
      "stateMutability": "view",
      "type": "function",
      "constant": true
    },
    {
      "inputs": [],
      "name": "tokensSold",
      "outputs": [
        {
          "internalType": "uint256",
          "name": "",
          "type": "uint256"
        }
      ],
      "stateMutability": "view",
      "type": "function",
      "constant": true
    },
    {
      "inputs": [
        {
          "internalType": "uint256",
          "name": "",
          "type": "uint256"
        }
      ],
      "name": "transaction",
      "outputs": [
        {
          "internalType": "address",
          "name": "buyer",
          "type": "address"
        },
        {
          "internalType": "uint256",
          "name": "amount",
          "type": "uint256"
        }
      ],
      "stateMutability": "view",
      "type": "function",
      "constant": true
    },
    {
      "inputs": [],
      "name": "transactionCount",
      "outputs": [
        {
          "internalType": "uint256",
          "name": "",
          "type": "uint256"
        }
      ],
      "stateMutability": "view",
      "type": "function",
      "constant": true
    },
    {
      "inputs": [],
      "name": "usdtToken",
      "outputs": [
        {
          "internalType": "contract USDTToken",
          "name": "",
          "type": "address"
        }
      ],
      "stateMutability": "view",
      "type": "function",
      "constant": true
    },
    {
      "inputs": [
        {
          "internalType": "uint256",
          "name": "_amount",
          "type": "uint256"
        }
      ],
      "name": "buyToken",
      "outputs": [],
      "stateMutability": "payable",
      "type": "function",
      "payable": true
    },
    {
      "inputs": [],
      "name": "endSale",
      "outputs": [],
      "stateMutability": "nonpayable",
      "type": "function"
    }
  ],
  "bytecode": "0x60806040523480156200001157600080fd5b5060405162001580380380620015808339818101604052810190620000379190620001cd565b61271060048190555081600160006101000a81548173ffffffffffffffffffffffffffffffffffffffff021916908373ffffffffffffffffffffffffffffffffffffffff16021790555080600260006101000a81548173ffffffffffffffffffffffffffffffffffffffff021916908373ffffffffffffffffffffffffffffffffffffffff160217905550336000806101000a81548173ffffffffffffffffffffffffffffffffffffffff021916908373ffffffffffffffffffffffffffffffffffffffff160217905550505062000214565b600080fd5b600073ffffffffffffffffffffffffffffffffffffffff82169050919050565b60006200013c826200010f565b9050919050565b600062000150826200012f565b9050919050565b620001628162000143565b81146200016e57600080fd5b50565b600081519050620001828162000157565b92915050565b600062000195826200012f565b9050919050565b620001a78162000188565b8114620001b357600080fd5b50565b600081519050620001c7816200019c565b92915050565b60008060408385031215620001e757620001e66200010a565b5b6000620001f78582860162000171565b92505060206200020a85828601620001b6565b9150509250929050565b61135c80620002246000396000f3fe6080604052600436106100865760003560e01c8063518ab2a811610059578063518ab2a814610127578063a98ad46c14610152578063b77bf6001461017d578063f851a440146101a8578063fc0c546a146101d357610086565b80632d296bf11461008b578063380d831b146100a7578063407fcc31146100be57806346bd0841146100e9575b600080fd5b6100a560048036038101906100a09190610b9d565b6101fe565b005b3480156100b357600080fd5b506100bc61073d565b005b3480156100ca57600080fd5b506100d3610938565b6040516100e09190610bd9565b60405180910390f35b3480156100f557600080fd5b50610110600480360381019061010b9190610b9d565b61093e565b60405161011e929190610c35565b60405180910390f35b34801561013357600080fd5b5061013c610982565b6040516101499190610bd9565b60405180910390f35b34801561015e57600080fd5b50610167610988565b6040516101749190610cbd565b60405180910390f35b34801561018957600080fd5b506101926109ae565b60405161019f9190610bd9565b60405180910390f35b3480156101b457600080fd5b506101bd6109b4565b6040516101ca9190610cf9565b60405180910390f35b3480156101df57600080fd5b506101e86109d8565b6040516101f59190610d35565b60405180910390f35b6102426040518060600160405280602b81526020016112fc602b913960008054906101000a900473ffffffffffffffffffffffffffffffffffffffff1630336109fe565b80600160009054906101000a900473ffffffffffffffffffffffffffffffffffffffff1673ffffffffffffffffffffffffffffffffffffffff166370a08231306040518263ffffffff1660e01b815260040161029e9190610d50565b602060405180830381865afa1580156102bb573d6000803e3d6000fd5b505050506040513d601f19601f820116820180604052508101906102df9190610d80565b1015610320576040517f08c379a000000000000000000000000000000000000000000000000000000000815260040161031790610e0a565b60405180910390fd5b8060045461032e9190610e59565b600260009054906101000a900473ffffffffffffffffffffffffffffffffffffffff1673ffffffffffffffffffffffffffffffffffffffff1663dd62ed3e33306040518363ffffffff1660e01b815260040161038b929190610eb3565b602060405180830381865afa1580156103a8573d6000803e3d6000fd5b505050506040513d601f19601f820116820180604052508101906103cc9190610d80565b101561040d576040517f08c379a000000000000000000000000000000000000000000000000000000000815260040161040490610f28565b60405180910390fd5b600260009054906101000a900473ffffffffffffffffffffffffffffffffffffffff1673ffffffffffffffffffffffffffffffffffffffff166323b872dd3360008054906101000a900473ffffffffffffffffffffffffffffffffffffffff168460045461047b9190610e59565b6040518463ffffffff1660e01b815260040161049993929190610f69565b6020604051808303816000875af11580156104b8573d6000803e3d6000fd5b505050506040513d601f19601f820116820180604052508101906104dc9190610fd8565b61051b576040517f08c379a000000000000000000000000000000000000000000000000000000000815260040161051290611051565b60405180910390fd5b61053c6040518060600160405280602e81526020016112ce602e9139610aa0565b600160009054906101000a900473ffffffffffffffffffffffffffffffffffffffff1673ffffffffffffffffffffffffffffffffffffffff1663a9059cbb33836040518363ffffffff1660e01b8152600401610599929190610c35565b6020604051808303816000875af11580156105b8573d6000803e3d6000fd5b505050506040513d601f19601f820116820180604052508101906105dc9190610fd8565b61061b576040517f08c379a0000000000000000000000000000000000000000000000000000000008152600401610612906110bd565b60405180910390fd5b61063c60405180606001604052806032815260200161129c60329139610aa0565b806003600082825461064e91906110dd565b9250508190555060405180604001604052803373ffffffffffffffffffffffffffffffffffffffff1681526020018281525060066000600554815260200190815260200160002060008201518160000160006101000a81548173ffffffffffffffffffffffffffffffffffffffff021916908373ffffffffffffffffffffffffffffffffffffffff16021790555060208201518160010155905050600560008154809291906106fc90611133565b91905055507f5e5e995ce3133561afceaa51a9a154d5db228cd7525d34df5185582c18d3df093382604051610732929190610c35565b60405180910390a150565b60008054906101000a900473ffffffffffffffffffffffffffffffffffffffff1673ffffffffffffffffffffffffffffffffffffffff163373ffffffffffffffffffffffffffffffffffffffff161461079557600080fd5b6000600160009054906101000a900473ffffffffffffffffffffffffffffffffffffffff1673ffffffffffffffffffffffffffffffffffffffff166370a08231306040518263ffffffff1660e01b81526004016107f29190610d50565b602060405180830381865afa15801561080f573d6000803e3d6000fd5b505050506040513d601f19601f820116820180604052508101906108339190610d80565b9050600160009054906101000a900473ffffffffffffffffffffffffffffffffffffffff1673ffffffffffffffffffffffffffffffffffffffff1663a9059cbb60008054906101000a900473ffffffffffffffffffffffffffffffffffffffff16836040518363ffffffff1660e01b81526004016108b292919061117c565b6020604051808303816000875af11580156108d1573d6000803e3d6000fd5b505050506040513d601f19601f820116820180604052508101906108f59190610fd8565b6108fe57600080fd5b7f94173af9e1cd5351395663e6a7838552ea54f5233d0c38bc46de5f4915b302bf8160405161092d9190610bd9565b60405180910390a150565b60045481565b60066020528060005260406000206000915090508060000160009054906101000a900473ffffffffffffffffffffffffffffffffffffffff16908060010154905082565b60035481565b600260009054906101000a900473ffffffffffffffffffffffffffffffffffffffff1681565b60055481565b60008054906101000a900473ffffffffffffffffffffffffffffffffffffffff1681565b600160009054906101000a900473ffffffffffffffffffffffffffffffffffffffff1681565b610a9a84848484604051602401610a18949392919061122d565b6040516020818303038152906040527fed8f28f6000000000000000000000000000000000000000000000000000000007bffffffffffffffffffffffffffffffffffffffffffffffffffffffff19166020820180517bffffffffffffffffffffffffffffffffffffffffffffffffffffffff8381831617835250505050610b39565b50505050565b610b3681604051602401610ab49190611279565b6040516020818303038152906040527f41304fac000000000000000000000000000000000000000000000000000000007bffffffffffffffffffffffffffffffffffffffffffffffffffffffff19166020820180517bffffffffffffffffffffffffffffffffffffffffffffffffffffffff8381831617835250505050610b39565b50565b60008151905060006a636f6e736f6c652e6c6f679050602083016000808483855afa5050505050565b600080fd5b6000819050919050565b610b7a81610b67565b8114610b8557600080fd5b50565b600081359050610b9781610b71565b92915050565b600060208284031215610bb357610bb2610b62565b5b6000610bc184828501610b88565b91505092915050565b610bd381610b67565b82525050565b6000602082019050610bee6000830184610bca565b92915050565b600073ffffffffffffffffffffffffffffffffffffffff82169050919050565b6000610c1f82610bf4565b9050919050565b610c2f81610c14565b82525050565b6000604082019050610c4a6000830185610c26565b610c576020830184610bca565b9392505050565b6000819050919050565b6000610c83610c7e610c7984610bf4565b610c5e565b610bf4565b9050919050565b6000610c9582610c68565b9050919050565b6000610ca782610c8a565b9050919050565b610cb781610c9c565b82525050565b6000602082019050610cd26000830184610cae565b92915050565b6000610ce382610bf4565b9050919050565b610cf381610cd8565b82525050565b6000602082019050610d0e6000830184610cea565b92915050565b6000610d1f82610c8a565b9050919050565b610d2f81610d14565b82525050565b6000602082019050610d4a6000830184610d26565b92915050565b6000602082019050610d656000830184610c26565b92915050565b600081519050610d7a81610b71565b92915050565b600060208284031215610d9657610d95610b62565b5b6000610da484828501610d6b565b91505092915050565b600082825260208201905092915050565b7f4e6f7420656e6f756768204b45455920746f2073656e64000000000000000000600082015250565b6000610df4601783610dad565b9150610dff82610dbe565b602082019050919050565b60006020820190508181036000830152610e2381610de7565b9050919050565b7f4e487b7100000000000000000000000000000000000000000000000000000000600052601160045260246000fd5b6000610e6482610b67565b9150610e6f83610b67565b9250817fffffffffffffffffffffffffffffffffffffffffffffffffffffffffffffffff0483118215151615610ea857610ea7610e2a565b5b828202905092915050565b6000604082019050610ec86000830185610c26565b610ed56020830184610c26565b9392505050565b7f4e6f7420656e6f75676820616c6c6f77616e6365000000000000000000000000600082015250565b6000610f12601483610dad565b9150610f1d82610edc565b602082019050919050565b60006020820190508181036000830152610f4181610f05565b9050919050565b6000610f5382610c8a565b9050919050565b610f6381610f48565b82525050565b6000606082019050610f7e6000830186610c26565b610f8b6020830185610f5a565b610f986040830184610bca565b949350505050565b60008115159050919050565b610fb581610fa0565b8114610fc057600080fd5b50565b600081519050610fd281610fac565b92915050565b600060208284031215610fee57610fed610b62565b5b6000610ffc84828501610fc3565b91505092915050565b7f5472616e7366657220555344542066726f6d206275796572206661696c656400600082015250565b600061103b601f83610dad565b915061104682611005565b602082019050919050565b6000602082019050818103600083015261106a8161102e565b9050919050565b7f5472616e7366657220746f6b656e206661696c65640000000000000000000000600082015250565b60006110a7601583610dad565b91506110b282611071565b602082019050919050565b600060208201905081810360008301526110d68161109a565b9050919050565b60006110e882610b67565b91506110f383610b67565b9250827fffffffffffffffffffffffffffffffffffffffffffffffffffffffffffffffff0382111561112857611127610e2a565b5b828201905092915050565b600061113e82610b67565b91507fffffffffffffffffffffffffffffffffffffffffffffffffffffffffffffffff82141561117157611170610e2a565b5b600182019050919050565b60006040820190506111916000830185610f5a565b61119e6020830184610bca565b9392505050565b600081519050919050565b60005b838110156111ce5780820151818401526020810190506111b3565b838111156111dd576000848401525b50505050565b6000601f19601f8301169050919050565b60006111ff826111a5565b6112098185610dad565b93506112198185602086016111b0565b611222816111e3565b840191505092915050565b6000608082019050818103600083015261124781876111f4565b90506112566020830186610c26565b6112636040830185610c26565b6112706060830184610c26565b95945050505050565b6000602082019050818103600083015261129381846111f4565b90509291505056fe5472616e7366657220746f6b656e2066726f6d20536d632053616c6520746f204275796572207375636365737366756c6c795472616e7366657220555344542066726f6d20427579657220746f2041646d696e207375636365737366756c6c79416464726573732061646d696e3a2025732c20746869733a2025732c206d73672e73656e6465723a202573a2646970667358221220eb18937c905ece8977cf69ba3ab25cb58d4aac92572cc85989176395a2f55c7364736f6c634300080c0033",
  "immutableReferences": {},
  "source": "// SPDX-License-Identifier: MIT\r\npragma solidity ^0.8.4;\r\n\r\nimport './KeeyToken.sol';\r\nimport './USDTToken.sol';\r\nimport \"hardhat/console.sol\";\r\n\r\ncontract KeeyTokenSale {\r\n    address payable public admin;\r\n    KeeyToken public token;\r\n    USDTToken public usdtToken;\r\n    uint256 public tokensSold;\r\n    uint256 public tokenPriceUSD;\r\n\r\n    uint256 public transactionCount;\r\n\r\n    event Sell(address _buyer, uint256 _amount);\r\n    event EndSale(uint256 _amount);\r\n\r\n    struct Transaction {\r\n        address buyer;\r\n        uint256 amount;\r\n    }\r\n\r\n    mapping(uint256 => Transaction) public transaction;\r\n\r\n    constructor(KeeyToken _token, USDTToken _usdtToken) {\r\n        tokenPriceUSD = 10000;\r\n        token = _token;\r\n        usdtToken = _usdtToken;\r\n        admin = payable(msg.sender);\r\n    }\r\n\r\n\r\n    function buyToken(uint256 _amount) public payable {\r\n        console.log('Address admin: %s, this: %s, msg.sender: %s', admin, address(this), msg.sender);\r\n        // Check that the sale contract provides the enough KEEY to make this transaction\r\n        require(token.balanceOf(address(this)) >= _amount, 'Not enough KEEY to send');\r\n\r\n        require(usdtToken.allowance(msg.sender, address(this)) >= uint256(tokenPriceUSD * _amount), 'Not enough allowance');\r\n        // Make sure transfer USDT from buyer to ICO SMC successfully\r\n        require(usdtToken.transferFrom(msg.sender, admin, uint256(tokenPriceUSD * _amount)),'Transfer USDT from buyer failed');\r\n        console.log(\"Transfer USDT from Buyer to Admin successfully\");\r\n        // Make sure token transfer successfully\r\n        require(token.transfer(msg.sender, _amount), 'Transfer token failed');\r\n        console.log(\"Transfer token from Smc Sale to Buyer successfully\");\r\n\r\n        tokensSold += _amount;\r\n        transaction[transactionCount] = Transaction(msg.sender, _amount);\r\n        transactionCount++;\r\n\r\n        emit Sell(msg.sender, _amount);\r\n    }\r\n\r\n    function endSale() public {\r\n        require(msg.sender == admin);\r\n        // Return the tokens that were left inside of the sale contract\r\n        uint256 amount = token.balanceOf(address(this));\r\n        require(token.transfer(admin, amount));\r\n\r\n        emit EndSale(amount);\r\n        \r\n    }\r\n}",
  "sourcePath": "C:\\Users\\Khoa\\Documents\\bye-bye-world\\contracts\\KeeyTokenSale.sol",
  "compiler": {
    "name": "solc",
    "version": "0.8.12+commit.f00d7308.Emscripten.clang"
  },
  "schemaVersion": "3.4.6",
  "updatedAt": "2022-03-17T11:06:33.026Z",
  "networkType": "ethereum",
  "devdoc": {
    "kind": "dev",
    "methods": {},
    "version": 1
  },
  "userdoc": {
    "kind": "user",
    "methods": {},
    "version": 1
  }
}