{
  "contractName": "KeeyTokenSale",
  "abi": [
    {
      "inputs": [
        {
          "internalType": "contract KeeyToken",
          "name": "_token",
          "type": "address"
        },
        {
          "internalType": "contract USDTToken",
          "name": "_usdtToken",
          "type": "address"
        }
      ],
      "stateMutability": "nonpayable",
      "type": "constructor"
    },
    {
      "anonymous": false,
      "inputs": [
        {
          "indexed": false,
          "internalType": "uint256",
          "name": "_amount",
          "type": "uint256"
        }
      ],
      "name": "EndSale",
      "type": "event"
    },
    {
      "anonymous": false,
      "inputs": [
        {
          "indexed": false,
          "internalType": "address",
          "name": "_buyer",
          "type": "address"
        },
        {
          "indexed": false,
          "internalType": "uint256",
          "name": "_amount",
          "type": "uint256"
        }
      ],
      "name": "Sell",
      "type": "event"
    },
    {
      "inputs": [],
      "name": "admin",
      "outputs": [
        {
          "internalType": "address payable",
          "name": "",
          "type": "address"
        }
      ],
      "stateMutability": "view",
      "type": "function",
      "constant": true
    },
    {
      "inputs": [],
      "name": "token",
      "outputs": [
        {
          "internalType": "contract KeeyToken",
          "name": "",
          "type": "address"
        }
      ],
      "stateMutability": "view",
      "type": "function",
      "constant": true
    },
    {
      "inputs": [],
      "name": "tokenPriceUSD",
      "outputs": [
        {
          "internalType": "uint256",
          "name": "",
          "type": "uint256"
        }
      ],
      "stateMutability": "view",
      "type": "function",
      "constant": true
    },
    {
      "inputs": [],
      "name": "tokensSold",
      "outputs": [
        {
          "internalType": "uint256",
          "name": "",
          "type": "uint256"
        }
      ],
      "stateMutability": "view",
      "type": "function",
      "constant": true
    },
    {
      "inputs": [
        {
          "internalType": "uint256",
          "name": "",
          "type": "uint256"
        }
      ],
      "name": "transaction",
      "outputs": [
        {
          "internalType": "address",
          "name": "buyer",
          "type": "address"
        },
        {
          "internalType": "uint256",
          "name": "amount",
          "type": "uint256"
        }
      ],
      "stateMutability": "view",
      "type": "function",
      "constant": true
    },
    {
      "inputs": [],
      "name": "transactionCount",
      "outputs": [
        {
          "internalType": "uint256",
          "name": "",
          "type": "uint256"
        }
      ],
      "stateMutability": "view",
      "type": "function",
      "constant": true
    },
    {
      "inputs": [],
      "name": "usdtToken",
      "outputs": [
        {
          "internalType": "contract USDTToken",
          "name": "",
          "type": "address"
        }
      ],
      "stateMutability": "view",
      "type": "function",
      "constant": true
    },
    {
      "inputs": [
        {
          "internalType": "uint256",
          "name": "_amount",
          "type": "uint256"
        },
        {
          "internalType": "address payable",
          "name": "buyer",
          "type": "address"
        }
      ],
      "name": "buyToken",
      "outputs": [],
      "stateMutability": "payable",
      "type": "function",
      "payable": true
    },
    {
      "inputs": [],
      "name": "endSale",
      "outputs": [],
      "stateMutability": "nonpayable",
      "type": "function"
    }
  ],
  "bytecode": "0x60806040523480156200001157600080fd5b506040516200160d3803806200160d8339818101604052810190620000379190620001cd565b61271060048190555081600160006101000a81548173ffffffffffffffffffffffffffffffffffffffff021916908373ffffffffffffffffffffffffffffffffffffffff16021790555080600260006101000a81548173ffffffffffffffffffffffffffffffffffffffff021916908373ffffffffffffffffffffffffffffffffffffffff160217905550336000806101000a81548173ffffffffffffffffffffffffffffffffffffffff021916908373ffffffffffffffffffffffffffffffffffffffff160217905550505062000214565b600080fd5b600073ffffffffffffffffffffffffffffffffffffffff82169050919050565b60006200013c826200010f565b9050919050565b600062000150826200012f565b9050919050565b620001628162000143565b81146200016e57600080fd5b50565b600081519050620001828162000157565b92915050565b600062000195826200012f565b9050919050565b620001a78162000188565b8114620001b357600080fd5b50565b600081519050620001c7816200019c565b92915050565b60008060408385031215620001e757620001e66200010a565b5b6000620001f78582860162000171565b92505060206200020a85828601620001b6565b9150509250929050565b6113e980620002246000396000f3fe6080604052600436106100865760003560e01c80639134709e116100595780639134709e14610136578063a98ad46c14610152578063b77bf6001461017d578063f851a440146101a8578063fc0c546a146101d357610086565b8063380d831b1461008b578063407fcc31146100a257806346bd0841146100cd578063518ab2a81461010b575b600080fd5b34801561009757600080fd5b506100a06101fe565b005b3480156100ae57600080fd5b506100b76103f9565b6040516100c49190610b9c565b60405180910390f35b3480156100d957600080fd5b506100f460048036038101906100ef9190610be8565b6103ff565b604051610102929190610c56565b60405180910390f35b34801561011757600080fd5b50610120610443565b60405161012d9190610b9c565b60405180910390f35b610150600480360381019061014b9190610cbd565b610449565b005b34801561015e57600080fd5b506101676109a9565b6040516101749190610d5c565b60405180910390f35b34801561018957600080fd5b506101926109cf565b60405161019f9190610b9c565b60405180910390f35b3480156101b457600080fd5b506101bd6109d5565b6040516101ca9190610d86565b60405180910390f35b3480156101df57600080fd5b506101e86109f9565b6040516101f59190610dc2565b60405180910390f35b60008054906101000a900473ffffffffffffffffffffffffffffffffffffffff1673ffffffffffffffffffffffffffffffffffffffff163373ffffffffffffffffffffffffffffffffffffffff161461025657600080fd5b6000600160009054906101000a900473ffffffffffffffffffffffffffffffffffffffff1673ffffffffffffffffffffffffffffffffffffffff166370a08231306040518263ffffffff1660e01b81526004016102b39190610ddd565b602060405180830381865afa1580156102d0573d6000803e3d6000fd5b505050506040513d601f19601f820116820180604052508101906102f49190610e0d565b9050600160009054906101000a900473ffffffffffffffffffffffffffffffffffffffff1673ffffffffffffffffffffffffffffffffffffffff1663a9059cbb60008054906101000a900473ffffffffffffffffffffffffffffffffffffffff16836040518363ffffffff1660e01b8152600401610373929190610e5b565b6020604051808303816000875af1158015610392573d6000803e3d6000fd5b505050506040513d601f19601f820116820180604052508101906103b69190610ebc565b6103bf57600080fd5b7f94173af9e1cd5351395663e6a7838552ea54f5233d0c38bc46de5f4915b302bf816040516103ee9190610b9c565b60405180910390a150565b60045481565b60066020528060005260406000206000915090508060000160009054906101000a900473ffffffffffffffffffffffffffffffffffffffff16908060010154905082565b60035481565b61048d6040518060600160405280602b8152602001611389602b913960008054906101000a900473ffffffffffffffffffffffffffffffffffffffff163033610a1f565b81600160009054906101000a900473ffffffffffffffffffffffffffffffffffffffff1673ffffffffffffffffffffffffffffffffffffffff166370a08231306040518263ffffffff1660e01b81526004016104e99190610ddd565b602060405180830381865afa158015610506573d6000803e3d6000fd5b505050506040513d601f19601f8201168201806040525081019061052a9190610e0d565b101561056b576040517f08c379a000000000000000000000000000000000000000000000000000000000815260040161056290610f46565b60405180910390fd5b816004546105799190610f95565b600260009054906101000a900473ffffffffffffffffffffffffffffffffffffffff1673ffffffffffffffffffffffffffffffffffffffff1663dd62ed3e8360008054906101000a900473ffffffffffffffffffffffffffffffffffffffff166040518363ffffffff1660e01b81526004016105f6929190610fef565b602060405180830381865afa158015610613573d6000803e3d6000fd5b505050506040513d601f19601f820116820180604052508101906106379190610e0d565b1015610678576040517f08c379a000000000000000000000000000000000000000000000000000000000815260040161066f90611064565b60405180910390fd5b600260009054906101000a900473ffffffffffffffffffffffffffffffffffffffff1673ffffffffffffffffffffffffffffffffffffffff166323b872dd8260008054906101000a900473ffffffffffffffffffffffffffffffffffffffff16856004546106e69190610f95565b6040518463ffffffff1660e01b815260040161070493929190611084565b6020604051808303816000875af1158015610723573d6000803e3d6000fd5b505050506040513d601f19601f820116820180604052508101906107479190610ebc565b610786576040517f08c379a000000000000000000000000000000000000000000000000000000000815260040161077d90611107565b60405180910390fd5b6107a76040518060600160405280602e815260200161135b602e9139610ac1565b600160009054906101000a900473ffffffffffffffffffffffffffffffffffffffff1673ffffffffffffffffffffffffffffffffffffffff1663a9059cbb82846040518363ffffffff1660e01b8152600401610804929190610e5b565b6020604051808303816000875af1158015610823573d6000803e3d6000fd5b505050506040513d601f19601f820116820180604052508101906108479190610ebc565b610886576040517f08c379a000000000000000000000000000000000000000000000000000000000815260040161087d90611173565b60405180910390fd5b6108a760405180606001604052806032815260200161132960329139610ac1565b81600360008282546108b99190611193565b9250508190555060405180604001604052808273ffffffffffffffffffffffffffffffffffffffff1681526020018381525060066000600554815260200190815260200160002060008201518160000160006101000a81548173ffffffffffffffffffffffffffffffffffffffff021916908373ffffffffffffffffffffffffffffffffffffffff1602179055506020820151816001015590505060056000815480929190610967906111e9565b91905055507f5e5e995ce3133561afceaa51a9a154d5db228cd7525d34df5185582c18d3df09818360405161099d929190610e5b565b60405180910390a15050565b600260009054906101000a900473ffffffffffffffffffffffffffffffffffffffff1681565b60055481565b60008054906101000a900473ffffffffffffffffffffffffffffffffffffffff1681565b600160009054906101000a900473ffffffffffffffffffffffffffffffffffffffff1681565b610abb84848484604051602401610a3994939291906112ba565b6040516020818303038152906040527fed8f28f6000000000000000000000000000000000000000000000000000000007bffffffffffffffffffffffffffffffffffffffffffffffffffffffff19166020820180517bffffffffffffffffffffffffffffffffffffffffffffffffffffffff8381831617835250505050610b5a565b50505050565b610b5781604051602401610ad59190611306565b6040516020818303038152906040527f41304fac000000000000000000000000000000000000000000000000000000007bffffffffffffffffffffffffffffffffffffffffffffffffffffffff19166020820180517bffffffffffffffffffffffffffffffffffffffffffffffffffffffff8381831617835250505050610b5a565b50565b60008151905060006a636f6e736f6c652e6c6f679050602083016000808483855afa5050505050565b6000819050919050565b610b9681610b83565b82525050565b6000602082019050610bb16000830184610b8d565b92915050565b600080fd5b610bc581610b83565b8114610bd057600080fd5b50565b600081359050610be281610bbc565b92915050565b600060208284031215610bfe57610bfd610bb7565b5b6000610c0c84828501610bd3565b91505092915050565b600073ffffffffffffffffffffffffffffffffffffffff82169050919050565b6000610c4082610c15565b9050919050565b610c5081610c35565b82525050565b6000604082019050610c6b6000830185610c47565b610c786020830184610b8d565b9392505050565b6000610c8a82610c15565b9050919050565b610c9a81610c7f565b8114610ca557600080fd5b50565b600081359050610cb781610c91565b92915050565b60008060408385031215610cd457610cd3610bb7565b5b6000610ce285828601610bd3565b9250506020610cf385828601610ca8565b9150509250929050565b6000819050919050565b6000610d22610d1d610d1884610c15565b610cfd565b610c15565b9050919050565b6000610d3482610d07565b9050919050565b6000610d4682610d29565b9050919050565b610d5681610d3b565b82525050565b6000602082019050610d716000830184610d4d565b92915050565b610d8081610c7f565b82525050565b6000602082019050610d9b6000830184610d77565b92915050565b6000610dac82610d29565b9050919050565b610dbc81610da1565b82525050565b6000602082019050610dd76000830184610db3565b92915050565b6000602082019050610df26000830184610c47565b92915050565b600081519050610e0781610bbc565b92915050565b600060208284031215610e2357610e22610bb7565b5b6000610e3184828501610df8565b91505092915050565b6000610e4582610d29565b9050919050565b610e5581610e3a565b82525050565b6000604082019050610e706000830185610e4c565b610e7d6020830184610b8d565b9392505050565b60008115159050919050565b610e9981610e84565b8114610ea457600080fd5b50565b600081519050610eb681610e90565b92915050565b600060208284031215610ed257610ed1610bb7565b5b6000610ee084828501610ea7565b91505092915050565b600082825260208201905092915050565b7f4e6f7420656e6f756768204b45455920746f2073656e64000000000000000000600082015250565b6000610f30601783610ee9565b9150610f3b82610efa565b602082019050919050565b60006020820190508181036000830152610f5f81610f23565b9050919050565b7f4e487b7100000000000000000000000000000000000000000000000000000000600052601160045260246000fd5b6000610fa082610b83565b9150610fab83610b83565b9250817fffffffffffffffffffffffffffffffffffffffffffffffffffffffffffffffff0483118215151615610fe457610fe3610f66565b5b828202905092915050565b60006040820190506110046000830185610e4c565b6110116020830184610e4c565b9392505050565b7f4e6f7420656e6f75676820616c6c6f77616e6365000000000000000000000000600082015250565b600061104e601483610ee9565b915061105982611018565b602082019050919050565b6000602082019050818103600083015261107d81611041565b9050919050565b60006060820190506110996000830186610e4c565b6110a66020830185610e4c565b6110b36040830184610b8d565b949350505050565b7f5472616e7366657220555344542066726f6d206275796572206661696c656400600082015250565b60006110f1601f83610ee9565b91506110fc826110bb565b602082019050919050565b60006020820190508181036000830152611120816110e4565b9050919050565b7f5472616e7366657220746f6b656e206661696c65640000000000000000000000600082015250565b600061115d601583610ee9565b915061116882611127565b602082019050919050565b6000602082019050818103600083015261118c81611150565b9050919050565b600061119e82610b83565b91506111a983610b83565b9250827fffffffffffffffffffffffffffffffffffffffffffffffffffffffffffffffff038211156111de576111dd610f66565b5b828201905092915050565b60006111f482610b83565b91507fffffffffffffffffffffffffffffffffffffffffffffffffffffffffffffffff82141561122757611226610f66565b5b600182019050919050565b600081519050919050565b60005b8381101561125b578082015181840152602081019050611240565b8381111561126a576000848401525b50505050565b6000601f19601f8301169050919050565b600061128c82611232565b6112968185610ee9565b93506112a681856020860161123d565b6112af81611270565b840191505092915050565b600060808201905081810360008301526112d48187611281565b90506112e36020830186610c47565b6112f06040830185610c47565b6112fd6060830184610c47565b95945050505050565b600060208201905081810360008301526113208184611281565b90509291505056fe5472616e7366657220746f6b656e2066726f6d20536d632053616c6520746f204275796572207375636365737366756c6c795472616e7366657220555344542066726f6d20427579657220746f2041646d696e207375636365737366756c6c79416464726573732061646d696e3a2025732c20746869733a2025732c206d73672e73656e6465723a202573a2646970667358221220db823455dcae49703b674c9e751872e7b32fad7d6ad076978b4f18efd79dc92864736f6c634300080c0033",
  "immutableReferences": {},
  "source": "// SPDX-License-Identifier: MIT\r\npragma solidity ^0.8.4;\r\n\r\nimport './KeeyToken.sol';\r\nimport './USDTToken.sol';\r\nimport \"hardhat/console.sol\";\r\n\r\ncontract KeeyTokenSale {\r\n    address payable public admin;\r\n    KeeyToken public token;\r\n    USDTToken public usdtToken;\r\n    uint256 public tokensSold;\r\n    uint256 public tokenPriceUSD;\r\n\r\n    uint256 public transactionCount;\r\n\r\n    event Sell(address _buyer, uint256 _amount);\r\n    event EndSale(uint256 _amount);\r\n\r\n    struct Transaction {\r\n        address buyer;\r\n        uint256 amount;\r\n    }\r\n\r\n    mapping(uint256 => Transaction) public transaction;\r\n\r\n    constructor(KeeyToken _token, USDTToken _usdtToken) {\r\n        tokenPriceUSD = 10000;\r\n        token = _token;\r\n        usdtToken = _usdtToken;\r\n        admin = payable(msg.sender);\r\n    }\r\n\r\n\r\n    function buyToken(uint256 _amount, address payable buyer) public payable {\r\n        console.log('Address admin: %s, this: %s, msg.sender: %s', admin, address(this), msg.sender);\r\n        // Check that the sale contract provides the enough KEEY to make this transaction\r\n        require(token.balanceOf(address(this)) >= _amount, 'Not enough KEEY to send');\r\n\r\n        require(usdtToken.allowance(buyer, admin) >= uint256(tokenPriceUSD * _amount), 'Not enough allowance');\r\n        // Make sure transfer USDT from buyer to ICO SMC successfully\r\n        require(usdtToken.transferFrom(buyer, admin, uint256(tokenPriceUSD * _amount)),'Transfer USDT from buyer failed');\r\n        console.log(\"Transfer USDT from Buyer to Admin successfully\");\r\n        // Make sure token transfer successfully\r\n        require(token.transfer(buyer, _amount), 'Transfer token failed');\r\n        console.log(\"Transfer token from Smc Sale to Buyer successfully\");\r\n\r\n        tokensSold += _amount;\r\n        transaction[transactionCount] = Transaction(buyer, _amount);\r\n        transactionCount++;\r\n\r\n        emit Sell(buyer, _amount);\r\n    }\r\n\r\n    function endSale() public {\r\n        require(msg.sender == admin);\r\n        // Return the tokens that were left inside of the sale contract\r\n        uint256 amount = token.balanceOf(address(this));\r\n        require(token.transfer(admin, amount));\r\n\r\n        emit EndSale(amount);\r\n        \r\n    }\r\n}",
  "sourcePath": "C:\\Users\\Khoa\\Documents\\bye-bye-world\\contracts\\KeeyTokenSale.sol",
  "compiler": {
    "name": "solc",
    "version": "0.8.12+commit.f00d7308.Emscripten.clang"
  },
  "schemaVersion": "3.4.6",
  "updatedAt": "2022-03-15T04:40:55.662Z",
  "networkType": "ethereum",
  "devdoc": {
    "kind": "dev",
    "methods": {},
    "version": 1
  },
  "userdoc": {
    "kind": "user",
    "methods": {},
    "version": 1
  }
}